:1000000000000420750300005D0300005171000032
:1000100061030000630300006503000000000000AE
:10002000000000000000000000000000013002009D
:100030006903000000000000253002006D0300008D
:10004000A9C500006F030000B9C5000055190100E3
:100050006D1901006F03000005C00000C905010013
:1000600099020100B1020100C902010035710000CE
:100070006F0300006F0300006F0300006F030000B8
:10008000A51E0100413502006F0300006F03000050
:100090006F0300006F0300006F0300006F03000098
:1000A0006F0300006F0300006F0300006F03000088
:1000B0006F0300006F03000000000000000000005C
:1000C0006F0300006F0300006F030000852B010029
:1000D0006F0300006F0300006F030000F5E90000EC
:1000E0006F030000EDC600006F0300000000000079
:1000F000000000006F030000000000006F0300001C
:1001000000000000000000000000000000000000EF
:1001100000000000000000000000000000000000DF
:1001200000000000000000000000000000000000CF
:1001300000000000000000000000000000000000BF
:1001400000000000000000000000000000000000AF
:10015000000000000000000000000000000000009F
:10016000000000000000000000000000000000008F
:10017000000000000000000000000000000000007F
:10018000000000000000000000000000000000006F
:10019000000000000000000000000000000000005F
:1001A000000000000000000000000000000000004F
:1001B000000000000000000000000000000000003F
:1001C000000000000000000000000000000000002F
:1001D000000000000000000000000000000000001F
:1001E000000000000000000000000000000000000F
:1001F00000000000000000000000000000000000FF
:10020000354936480A1A02D0072291438D463449AF
:1002100034480A1A06D00722914381F30988022242
:1002200082F3148830483149314A00F044F83148AB
:100230003149324A00F03FF831483249324A00F041
:100240003AF832483249334A00F035F832483349F7
:10025000334A00F030F833483349344A00F02BF881
:1002600033483449344A00F026F8344834490022EF
:1002700000F02CF833483449002200F027F83348C6
:100280003349091A082902DB002202604160314A21
:1002900090471F481F49884205D00268043003B4C4
:1002A000904703BCF7E700208646EC46002000217B
:1002B000294A9047FEE7884207D0521A05D00378B2
:1002C00001300B700131013AF9D17047884202D0F8
:1002D00002700130FAE770470000042000E00320BC
:1002E000000004200000042020A4030000000020DF
:1002F000D0000020D0030000D003000004680200FA
:1003000020A4030000000020000000200468020078
:100310000468020004680200046802000468020025
:1003200004680200046802000468020020A40300BC
:10033000F0A40300D0000020D0000020D000002056
:10034000D4270120D4270120DC270120DC2701202D
:10035000DC4701209D030000693F0100FEE7FEE746
:10036000FEE7FEE7FEE7FEE7FEE7FEE7FEE7FEE765
:1003700000F002B8FFF7FCBF0F484FF007018843B9
:1003800085460E4880470E48016841F470010160BF
:10039000BFF34F8FBFF36F8FFFF732BF09480A4992
:1003A0000A4A884207D0521A05D0037801300B70F0
:1003B0000131013AF9D1704700000420290B0200F5
:1003C00088ED00E00468020000000020000000202A
:1003D00000487047CC27012086B00390029101921B
:1003E00001238DF817309DF81730204A039B1360C6
:1003F0001E4A029B53601D4A019B9360039B44F27B
:100400000102934212D0039B44F20202934220D194
:10041000019B164AD360154BDB681B68134A936136
:10042000124BDB685B68114AD36112E0019B0F4AF3
:1004300013610E4B1B699B680C4A53610B4B1B6984
:100440001B680A4A9361094B1B695B68074AD361C1
:1004500000BF72B600BF00BF9DF81730DBB2002BA3
:10046000FAD162B600BF00BF06B07047D0000020CE
:1004700000B583B002900091019244F201007146F0
:100480006A4600F003F803B000BD00BF10B588B0A5
:1004900005900491039272B600BF059B44F20102DD
:1004A00093420FD0059B44F20202934221D1039B59
:1004B0000793079B5968079B1B681A4615481CF051
:1004C00099FA17E0039B0693069B9C68069B9B6822
:1004D000184607F0A9FA069B5968069B1B68049A00
:1004E000019200930B46024621460B481CF082FA0B
:1004F00000E000BF094B1B6803F00103002B00D094
:1005000000BE039A04990598FFF766FF00BF08B084
:1005100010BD00BF0468020020680200F0ED00E09A
:1005200000B583B00190019B1B68184600F0B1F83C
:100530000346002B04D10B494FF4F67006F06CFE15
:10054000019B1B681F2B02D84FF0A04306E0019BC4
:100550001B6803F01F02019B1A60034B184603B08F
:100560005DF804FB486802000003005000B585B048
:100570000190084611461A4603468DF803300B4693
:100580008DF8023013468DF8013001AB1846FFF7A5
:10059000C7FF03909DF803209DF802305B001A43CB
:1005A0009DF801309B001A439DF818301B0242EA67
:1005B00003019DF81C301B04019A1943039B02F5AB
:1005C000E07243F8221000BF05B05DF804FB00B5EF
:1005D00085B00390002301930023009300230122A0
:1005E00001210398FFF7C2FF00BF05B05DF804FBCF
:1005F00000B585B003900B468DF80B309DF80B309D
:100600000022019200220092002200210398FFF7AD
:10061000ADFF00BF05B05DF804FB00B585B00190EB
:1006200001AB1846FFF77CFF0390019B012202FA01
:1006300003F31946039800F018F800BF05B05DF801
:1006400004FB00B585B0019001AB1846FFF768FFC9
:100650000390019B012202FA03F31946039800F06C
:100660000EF800BF05B05DF804FB82B00190009168
:10067000019B009AC3F8082500BF02B0704782B002
:1006800001900091019B009AC3F80C2500BF02B0B5
:10069000704784B00190019B5B0902930023039390
:1006A000029B002B03D0029B012B04D007E04FF0EC
:1006B000FF33039303E04FF6FF73039300BF019BE7
:1006C00003F01F030193039A019B22FA03F303F043
:1006D0000103002B14BF01230023DBB2184604B032
:1006E000704782B001900091009A019BC3F82425C5
:1006F00000BF02B0704700B583B00190019B043386
:10070000184612F047F800BF03B05DF804FB00B5CF
:100710008FB003900291009313468DF807300023A9
:100720000D93029B09939DF807300A93009B0B934E
:100730009DF840300C93039B043309A9002218460E
:1007400012F076F90D900D9B18460FB05DF804FB82
:1007500000B589B0059003921A460B468DF8133008
:1007600013468DF812300F4B93F858301846FFF7A8
:1007700068FF9DF813209DF812300093039B0599A4
:100780000948FFF7C4FF0790079B0693069B002BC1
:1007900004D0064AF0210698FFF76AFE00BF09B0B0
:1007A0005DF804FBF0000020C86802006C680200DD
:1007B00008B5044B4FF080411846FFF792FF00BF89
:1007C00008BD00BF0030024088B00190019B1B783B
:1007D0009B098DF81F309DF81F30022B06D0022B8D
:1007E00049DC002B02D0012B30D044E0019B0833C0
:1007F0001B789B09DBB21A46019B07331B789B00D1
:100800001A44019B06331B789B0203F44063134494
:100810000593019B05331B7803F00F030493019BA1
:100820000A331B78DB09DBB21A46019B09331B78BC
:100830005B0003F0060313440393059B5A1C0499C1
:10084000039B0B44073B02FA03F316E0019B0933B9
:100850001B781A46019B08331B781B021A44019B24
:1008600007331B781B0403F47C1313440693069B85
:1008700001339B0201E000BF0023184608B0704717
:1008800000B585B0034600918DF8073013468DF80A
:100890000630594B93F82330002B01D01123A7E0E9
:1008A00000238DF80F30544B012283F823209DF94B
:1008B0000730002B1EDA06238DF80F304E4B022234
:1008C00083F823204C4B772283F828204A4B0022C0
:1008D00083F82920484B002283F82A20464B002227
:1008E00083F82B20444B002283F82C20424BFF221C
:1008F00083F82D209DF80F309DF8072002F07F022D
:10090000D1B23D4A13440A4683F82820009B1A0EB0
:100910009DF80F300133D1B2374A13440A4683F8A9
:100920002820009B1A0C9DF80F300233D1B2324AB6
:1009300013440A4683F82820009B1A0A9DF80F30BA
:100940000333D1B22C4A13440A4683F828209DF879
:100950000F300433009AD1B2274A13440A4683F871
:1009600028209DF80730402B02D0482B04D007E008
:1009700095238DF80E3007E087238DF80E3003E0C5
:10098000FF238DF80E3000BF9DF80F3005331A4A53
:1009900013449DF80E2083F828209DF80630022B82
:1009A00002D0032B05D009E0134B052283F8242045
:1009B00009E0114B052283F8242004E00E4B0122AC
:1009C00083F8242000BF9DF90730002B03DB0A4B7E
:1009D00093F8243000E001238DF80D309DF80D30A0
:1009E0000E33DBB2054A06210548FFF7B1FE0023AE
:1009F000184605B05DF804FBF00000202801002037
:100A00001801002000B589B0039001930B468DF8C2
:100A10000B301346ADF8083001238DF81F30AA4B78
:100A2000DB8BB3F5F67F00F03281B3F5F67F00F390
:100A30004081B3F5F07F00F00B81B3F5F07F00F358
:100A4000388140F2D912934200F0E380B3F5ED7F94
:100A500080F22F81002B05D040F2C712934200F0A4
:100A60009E8026E1BDF80830002B04D197494FF451
:100A7000C87006F0D1FB944B9B8A002B04D193499C
:100A800040F2911006F0C8FB8F4B9A8A8E4BDA82A7
:100A9000E7E08D4B00221A848B4BFF2283F828203D
:100AA000894B00221A83884B032283F823207CE0A1
:100AB000854B1B8C01339AB2834B1A84824B1B8C5F
:100AC00044F6206293420FD9019B02221A707E4B9A
:100AD0000022DA830223F3E0039B013303939DF8A2
:100AE0000B30013B8DF80B309DF80B30002B03D001
:100AF000039B1B78FF2BEFD09DF80B30002B41D0D0
:100B0000039B1B78FE2B35D1039B013303939DF888
:100B10000B30013B8DF80B306B4B042283F8232004
:100B20009DF80B309BB2BDF80820934228BF1346B6
:100B3000ADF81430002306930BE0039A069B1A4489
:100B4000614BD968069B0B4412781A70069B0133DF
:100B50000693BDF81430069A9A42EED35A4ABDF86D
:100B600014301383584BDA68BDF814301344564AD6
:100B7000D3601AE0019B05221A70534B0022DA83DE
:100B800002239DE01023524A01215248FFF7E0FD65
:100B900000238DF81F304C4B40F2C712DA839DF8CA
:100BA0001F30002B01D101238AE0474B93F82330FB
:100BB000032B3FF47DAF32E0434B1B8BBDF8082085
:100BC000D31AADF81630BDF81630F02B02D9F02349
:100BD000ADF816303C4BDA68BDF81630DBB20121B7
:100BE0003C48FFF7B5FD384BDA68BDF816301344C2
:100BF000354AD360344B1A8BBDF8163013449AB281
:100C0000314B1A8300238DF81F302F4B40F2D9123D
:100C1000DA839DF81F30002B01D1012350E02A4BCD
:100C20001B8BBDF808209A42C6D8274BDB8A013BB4
:100C30009AB2254BDA820223254A01212548FFF783
:100C400087FD00238DF81F301F4B4FF4F072DA83BD
:100C50009DF81F30002B01D1012331E000238DF8D6
:100C60000B30194BDB8A002B7FF413AF164BFF229E
:100C700083F828200223164A01211648FFF768FD51
:100C800000238DF81F30104B4FF4F672DA839DF875
:100C90001F30002B01D1012312E00B4B002283F8FF
:100CA0002320019B00221A70074B0022DA830223C3
:100CB00006E000238DF81F30034B0022DA83032364
:100CC000184609B05DF804FBF00000206C680200D3
:100CD000280100201801002000B593B003900B46B6
:100CE00001928DF80B30039B1B788DF84730039BE6
:100CF00001331B781A06039B02331B781B041A432B
:100D0000039B03331B781B021343039A04321278AC
:100D10001343109301238DF84630BE4B9B8BB3F5E4
:100D20001C7F00F3E582B3F5137F16DCB3F50E7F6D
:100D300000F08C81B3F50E7F00F3DA82002B00F017
:100D40009380002BC0F2D48240F22622934200F31B
:100D5000CF82B3F5047F51DACAE2A3F24D23232BED
:100D600000F2C68201A252F823F000BF0D1100006C
:100D7000F1120000F1120000F1120000F112000067
:100D8000F112000073110000F1120000F1120000D6
:100D9000F1120000F1120000F1120000F112000047
:100DA000F1120000F1120000F1120000F112000037
:100DB000F1120000F1120000F1120000EF1100002A
:100DC000F1120000F1120000F1120000F112000017
:100DD000F1120000F1120000F1120000F112000007
:100DE000F112000053120000F1120000F112000095
:100DF000F1120000F112000099120000A3F5047333
:100E0000162B00F2758201A252F823F0990E000011
:100E1000F1120000F1120000D50E0000F1120000E6
:100E2000F1120000F1120000F1120000F1120000B6
:100E30002F0F0000F1120000F1120000F11200006B
:100E4000F1120000F1120000F1120000F112000096
:100E5000F1120000F1120000F1120000F112000086
:100E6000F1120000BD0F0000012200214020FFF719
:100E700007FD0F900F9B0E930E9B002B05D0664A2B
:100E800040F20F210E98FFF7F3FA00238DF8463059
:100E9000604B4FF404729A839DF84630002B01D1C9
:100EA00001232CE2012200214020FFF7E9FC0F90F2
:100EB0000F9B0D930D9B002B05D0574A40F212213A
:100EC0000D98FFF7D5FA00238DF84630514B40F2CC
:100ED00013229A839DF84630002B01D101230EE2A4
:100EE0009DF8473023F00303002B07D0019B042219
:100EF0001A70484B00229A83022300E203224FF427
:100F0000D5714820FFF7BCFC0F900F9B0C930C9BF6
:100F1000002B05D0404A4FF406710C98FFF7A8FA51
:100F200000238DF846303B4B40F219229A839DF8FE
:100F30004630002B01D10123E1E19DF8473003F059
:100F40000403002B13D1334A937A032161F3020384
:100F500093729DF8473023F00303002B07D0019BC9
:100F600004221A702B4B00229A830223C7E1294BDB
:100F700000221A84274B9B7A03F00703DBB2032B72
:100F800002D14FF0804300E000230B9302220B9923
:100F9000E920FFF775FC0F900F9B0A930A9B002B2B
:100FA00005D01D4A40F225210A98FFF761FA002377
:100FB0008DF84630174B40F226229A839DF8463032
:100FC000002B01D101239AE19DF8473003F004037F
:100FD000002B56D00F4A937A012161F302039372DA
:100FE0009DF8473023F004038DF84730094B1B8CE4
:100FF00001339AB2074B1A84064B1B8CB3F5FA6F78
:101000000CD9019B02221A70024B00229A83022300
:1010100075E100BFF00000206C6802000222002190
:101020004120FFF72DFC0F900F9B0793079B002B90
:1010300005D0B54A40F237210798FFF719FA002387
:101040008DF84630B14B4FF40E729A839DF84630BE
:10105000002B01D1012352E19DF8473023F0030317
:10106000002B07D0019B04221A70A84B00229A8300
:10107000022344E19DF8473003F00103002BB5D172
:1010800095E09DF8473023F00303002B52D0019BDD
:1010900004221A709D4B00229A8302232FE19B4B5E
:1010A0001B8C01339AB2994B1A84984B1B8CB3F565
:1010B000FA6F07D9019B02221A70944B00229A837F
:1010C00002231CE1914B9B7A03F00703DBB2032B55
:1010D00002D14FF0804300E000230B9302220B99D2
:1010E000E920FFF7CDFB0F900F9B0893089B002B87
:1010F00005D0854A4FF413710898FFF7B9F900231A
:101100008DF84630814B40F24D229A839DF846304F
:10111000002B01D10123F2E09DF8473023F00303B7
:10112000002B08D0019B04221A70784B00229A836E
:101130000223E4E000BF9DF8473003F00103002BD9
:10114000ADD1022200217A20FFF79AFB0F900F9B6E
:101150000993099B002B05D06B4A40F25221099854
:10116000FFF786F900238DF84630684B40F2532292
:101170009A839DF84630002B01D10123BFE09DF8F2
:10118000473023F00303002B07D0019B04221A7081
:101190005E4B00229A830223B1E0109B03F0804350
:1011A000002B04D0594A937A43F008039372574BAB
:1011B0009B7A03F00703DBB2032B2CD001224FF400
:1011C00000715020FFF75CFB0F900F9B0693069B6E
:1011D000002B05D04C4A4FF418710698FFF748F9D8
:1011E00000238DF84630494B40F261229A839DF8E6
:1011F0004630002B01D1012381E09DF8473023F0D8
:101200000303002B07D0019B04221A703F4B0022DE
:101210009A83022373E03D4B3D4ADA603B4B012247
:101220009A82012200214920FFF72AFB0F900F9B91
:101230000593059B002B05D0334A40F26A2105989F
:10124000FFF716F900238DF84630304B40F26B2241
:101250009A839DF84630002B01D101234FE09DF881
:10126000473023F00303002B07D0019B04221A70A0
:10127000264B00229A83022341E0039B0133039310
:101280009DF80B30013B8DF80B30204B0022DA83A8
:101290001E4B4FF41C729A830DF113039DF80B1033
:1012A00010220398FFF7AEFB0346012B01D8002361
:1012B00025E09DF81330002B08D09DF81320019BEA
:1012C0001A70124B00229A83022318E01048FFF78D
:1012D0007BFA03460D4A53600C4B4FF400721A819F
:1012E000019B00221A70094B00229A83022306E018
:1012F00000238DF84630054B00229A8303231846BD
:1013000013B05DF804FB00BF6C680200F000002021
:101310003801002000B589B003900B4601928DF88A
:101320000B3001238DF81F30404B9B8B40F2A222E3
:10133000934261D040F2A22293426BDC002B03D097
:10134000B3F5267F21D065E0039B1B788DF81E3016
:101350009DF81E3023F00303002B07D0019B0422CD
:101360001A70324B00229A8302235AE0039B013306
:1013700003939DF80B30013B8DF80B302B4B002273
:10138000DA832A4B4FF426729A830DF113039DF8EA
:101390000B104FF400720398FFF734FB0346012B48
:1013A00001D800233DE09DF81330002B08D09DF8B4
:1013B0001320019B1A701D4B00229A83022330E0F8
:1013C0001A4B9B8A012B1DD9012200214C20FFF7CB
:1013D00057FA0690069B0593059B002B05D0144AEF
:1013E00040F2A1210598FFF743F800238DF81F3044
:1013F0000E4B40F2A2229A839DF81F30002B01D1A0
:1014000001230EE0019B00221A70084B00229A83F0
:10141000022306E000238DF81F30044B00229A833C
:101420000323184609B05DF804FB00BFF00000205C
:101430006C68020000B58DB003900B4601928DF8E8
:101440000B3001238DF82F30B24B9B8BB3F54C7FC3
:1014500000F0C881B3F54C7F00F3ED81B3F5487F10
:1014600000F09181B3F5487F00F3E58140F20A3244
:10147000934200F03A8140F20A32934200F3DB815A
:10148000B3F53B7F00F0E380B3F53B7F00F3D381FE
:10149000B3F5397F00F0B880B3F5397F00F3CB8125
:1014A00040F2D322934200F08180B3F5357F80F281
:1014B000C281002B04D040F2C322934237D0BAE15C
:1014C000039B1B788DF823309DF8233023F0030312
:1014D000002B07D0019B04221A708E4B00229A83A6
:1014E0000223AFE18B4B9B7A03F00703DBB2012BA6
:1014F00035D0884B9B8A012B31D9864B1B69012241
:1015000019465920FFF7BCF90790079B0693069BE5
:10151000002B05D0804A40F2C2210698FEF7A8FFB2
:1015200000238DF82F307B4B40F2C3229A839DF825
:101530002F30002B01D1012384E1039B1B788DF810
:1015400023309DF8233023F00303002B07D0019BA9
:1015500004221A706F4B00229A83022372E16D4BB2
:101560009A8A6C4BDA82F0E06A4B00221A83694B4C
:10157000042283F82320674BFF2283F82820654B41
:101580009B8A012B01D9FC2200E0FE22614B83F8EB
:1015900029200223614A02216148FFF7D9F800237C
:1015A0008DF82F305B4B40F2D3229A839DF82F3079
:1015B000002B2FD1012345E1564B1B8BC3F5007344
:1015C000ADF82C30BDF82C30F02B02D9F023ADF85B
:1015D0002C30504BDB684F4A128B9818BDF82C30DA
:1015E000D9B201234D4AFFF7B3F84A4B1A8BBDF825
:1015F0002C3013449AB2474B1A8300238DF82F30B6
:10160000444B4FF439729A839DF82F30002B02D14E
:10161000012317E100BF3F4B1B8BB3F5007FCBD3FA
:101620003C4BDB6803F500733A4AD360394B032225
:1016300083F823200323394A01213948FFF788F82A
:1016400000238DF82F30334B4FF43B729A839DF873
:101650002F30002B01D10123F4E02E4B93F83A30C8
:1016600003F01F038DF817309DF81730052B17D0A6
:101670009DF817300B2B03D09DF817300D2B07D199
:10168000019B05221A70234B00229A830223D9E082
:10169000019B04221A701F4B00229A830223D1E07F
:1016A0001C4B00221A8445E01A4B1B8C01339AB262
:1016B000184B1A84174B1B8C44F62062934207D9AF
:1016C000019B02221A70134B00229A830223B9E075
:1016D0001023124A01211248FFF73AF800238DF82F
:1016E0002F300C4B40F20A329A839DF82F30002B9A
:1016F00001D10123A6E000230A9316E0039A0A9B76
:1017000013441B78002B0DD0024B002283F82320BA
:1017100010E000BFF00000206C68020028010020EB
:10172000180100200A9B01330A939DF80B300A9A96
:101730009A42E3D3454B93F82330032BB4D0434B69
:10174000DB8A013B9AB2414BDA82404BDB8A002BA9
:101750007FF40AAF3D4B9B8A012B64D93B4BFF22A0
:1017600083F82820394BFD2283F829200323384AA7
:1017700002213848FEF7ECFF00238DF82F30334B61
:101780004FF448729A839DF82F30002B01D101232A
:1017900058E02E4B00221A842C4B032283F823207E
:1017A0003CE02A4B1B8C01339AB2284B1A84274BFE
:1017B0001B8C44F62062934207D9019B02221A70C7
:1017C000224B00229A8302233CE01023204A01216D
:1017D0002048FEF7BDFF00238DF82F301B4B4FF440
:1017E0004C729A839DF82F30002B01D1012329E000
:1017F000002309930DE0039A099B13441B78002BE7
:1018000004D0124B002283F8232007E0099B013308
:1018100009939DF80B30099A9A42ECD30B4B93F83D
:101820002330032BBDD0019B00221A70074B0022EE
:101830009A83022306E000238DF82F30034B002209
:101840009A83032318460DB05DF804FBF0000020D6
:10185000280100201801002000B58BB001900091F4
:10186000019BDB680993019B1B7C8DF82330B84BEF
:10187000DB8A002B05D1B64B93F858301846FEF79B
:10188000CCFEB34B93F82330022B05D0B04B93F82A
:101890002330012B40F0C0809DF82330062B04D864
:1018A000AC4940F2573005F0B7FC9DF82330063BB9
:1018B0008DF82330099B06330993019B5B681B78E5
:1018C0004C2B14D19DF82330002B10D09DF82330E1
:1018D000013B8DF82330099B0133099307E09DF804
:1018E0002330013B8DF82330099B013309939DF888
:1018F0002330002B03D0099B1B78FF2BEFD09DF8E2
:101900002330002B0FD1019B5B681B784C2B08D137
:101910009DF8233001338DF82330099B013B099357
:1019200001E000230993099B002B53D1884B93F8C6
:101930002230DBB2012B4DD001238DF80930844BCE
:1019400093F82230DBB2052B21D0052B23DC022BB0
:1019500002DC002B03DC1EE0042B14D01BE0002370
:101960008DF808307A4B032283F8222000F0C0FA69
:101970000790079B002B1AD0764A40F283310798D4
:10198000FEF776FD13E001238DF8083012E0022304
:101990008DF808300EE003230693069B002B08D039
:1019A0006C4A4FF463710698FEF762FD01E000BFD8
:1019B00000E000BF664B93F858301846FEF72DFE46
:1019C000634B032283F82220614B1B6802AA104656
:1019D0009847D9E05E4B93F82330022B18D15C4B2B
:1019E000012283F82320099B1B788DF817309DF87E
:1019F000173023F00103002B0AD15748544B93F8BA
:101A000024300E33DBB2554A0621FEF7A1FEBBE0BF
:101A10004F4B002283F8232006238DF80F304C4BC8
:101A200093F82230DBB2013B042B00F2998001A233
:101A300052F823F0491A0000571A0000611B0000F9
:101A4000A11A0000F91A0000414B022283F822205B
:101A50003F4B00229A830DF10F029DF82330194667
:101A60000998FFF739F90346012B40F285800023DE
:101A70008DF80C309DF80F308DF80D30344B03226B
:101A800083F82220324B93F858301846FEF7C5FDF4
:101A9000FEF78EFE2E4B1B6803AA104698476BE09C
:101AA0000DF10F029DF8233019460998FFF732FC1B
:101AB0000346012B62D901238DF80C309DF80F30BD
:101AC0008DF80D30224B032283F82220204B002278
:101AD0009A821F4B0022DA821D4B002283F82320BA
:101AE0001B4B93F858301846FEF797FD184B1B68B0
:101AF00003AA1046984741E00DF10F029DF82330EC
:101B000019460998FFF796FC0346012B38D90223A2
:101B10008DF80C309DF80F308DF80D300C4B0322F2
:101B200083F822200A4B002283F82320084B00224E
:101B30009A82074B0022DA82054B93F858301846F8
:101B4000FEF76BFD024B1B6803AA1046984717E08F
:101B5000F00000206C6802001E0100202801002017
:101B600003230493049B002B0CD0094A40F2D33189
:101B70000498FEF77DFC05E000BF04E000BF02E032
:101B800000BF00E000BF00BF0BB05DF804FB00BF6A
:101B90006C68020000B589B0039002911346ADF85D
:101BA0000630039B002B04D12E4940F2DD3005F0B6
:101BB00033FB2D4B93F82230DBB2002B01D10823ED
:101BC0004CE0294B93F82230DBB2032B01D01123D8
:101BD00044E0BDF80630002B01D107233EE0224B44
:101BE000042283F82220204B9B7A03F00803DBB207
:101BF000002B04D1029B5B021B4A136102E01A4ACC
:101C0000029B1361184A039BD360174ABDF8063044
:101C10009382154ABDF80630D382134B00229A8373
:101C2000BDF80630012B01D9522300E051238DF875
:101C30001F300D4B19699DF81F3001221846FEF721
:101C40001FFE0690069B0593059B002B05D0054AB9
:101C500040F2FD310598FEF70BFC0023184609B051
:101C60005DF804FB6C680200F000002000B589B04C
:101C7000039002911346ADF80630039B002B04D16C
:101C80003E4940F2054005F0C7FA3D4B93F822303B
:101C9000DBB2002B01D108236BE0394B93F82230E3
:101CA000DBB2032B01D0112363E0BDF80630002B1B
:101CB00001D107235DE0324B052283F82220304B0F
:101CC0009B7A03F00803DBB2002B04D1029B5B027A
:101CD0002B4A136102E02A4A029B1361284A039BA4
:101CE000D360274ABDF806309382254ABDF80630F6
:101CF000D382234B00229A83BDF80630012B14D1E6
:101D00001F4B1B69012219465820FEF7B9FD0790A9
:101D1000079B0593059B002B05D0184A4FF485615E
:101D20000598FEF7A5FB002323E0154B9B7A03F0F3
:101D30000703DBB2012B08D1114B1B6901221946A5
:101D40005920FEF79DFD079007E0BDF806300122FF
:101D50001946D720FEF794FD0790079B0693069B34
:101D6000002B05D0054A40F237410698FEF780FB6C
:101D70000023184609B05DF804FB00BF6C68020040
:101D8000F000002000B58DB003900291524B93F803
:101D90002230DBB2002B01D0082398E0029B002BFD
:101DA0000FD0039BDB78FF2B0BD0039B5B78FF2BC3
:101DB00007D0039B1B78FF2B03D0039B9B78FF2B43
:101DC00001D1072383E0039BDB78002B0BD0039B1F
:101DD0005B78002B07D0039B1B78002B03D0039B61
:101DE0009B78002B04D13D4940F24C4005F014FA99
:101DF000039BDA78384B83F85820374B93F85830E8
:101E00001846FEF7E4FB344B93F858301846FEF7BB
:101E100004FC039B9B788DF81430039B1B788DF892
:101E20001530039B5B788DF81630FF238DF8173043
:101E300006238DF81830FF238DF819304FF080639A
:101E4000079300238DF8203000238DF8213005A959
:101E50000023234A234808F091FC0B900B9B0A9324
:101E60000A9B002B05D01D4A4FF48C610A98FEF79F
:101E7000FFFA194A029B1360174B012283F82220B4
:101E8000154A937A6FF302039372134A937A6FF3AE
:101E9000C3039372104B002283F823200E4BFF22C2
:101EA00083F828200A2300930F4B01220F490D4885
:101EB000FEF72DFC0B900B9B0993099B002B05D083
:101EC000064A40F26C410998FEF7D2FA0023184600
:101ED0000DB05DF804FB00BFF00000206C6802004C
:101EE00059180000C86802002801002018010020CD
:101EF00008B5124B93F82230DBB2002B01D1082336
:101F00001AE00E4B93F82230DBB2032B01D01123E1
:101F100012E00B48FEF7EFFB084B93F85830002116
:101F20001846FEF765FB054B002283F82320034B80
:101F3000002283F822200023184608BDF00000206C
:101F4000C8680200094B93F82230DBB2032B07D09C
:101F5000064B93F82230DBB2002B01D0012300E0C6
:101F6000002303F00103DBB218467047F0000020A5
:101F7000054B93F82230DBB2022B01D9034B00E072
:101F800000231846704700BFF0000020F400002036
:101F9000024BD3F88034DBB2184670470070024021
:101FA000024BD3F88434DBB218467047007002400D
:101FB00008B50CF025FE0023184608BD00B585B015
:101FC00003468DF807300B468DF8063013468DF822
:101FD00005309DF8073003F01F029DF806305B01C5
:101FE00003F060031A439DF80530DB01DBB21343B5
:101FF0000393039BFF2B04D905494FF4AC7005F004
:102000000BF9039BDBB2184605B05DF804FB00BF7B
:10201000D868020082B00190019B1B7A184602B07A
:102020007047000000B585B001900B468DF8033075
:10203000019B002B04D10F494FF4887005F0ECF898
:102040000198FFF7E7FF03461A469DF803309342D5
:1020500001D3002309E0019B093303939DF803207A
:1020600013465B001344039A1344184605B05DF809
:1020700004FB00BF3869020082B00190019B1B780D
:10208000184602B0704782B00190019B5B781846F9
:1020900002B0704700B585B001900B468DF8033053
:1020A000019B002B04D10D4940F2431005F0B4F818
:1020B000019B5B789DF803209A4201D3002309E03D
:1020C000019B9B781A46019B134403939DF80330B0
:1020D000039A1344184605B05DF804FB3869020002
:1020E00082B00190019B1B78184602B0704782B005
:1020F0000190019B1B68184602B0704700B583B081
:102100000190019B002B04D1064940F2432005F0C9
:1021100083F80198FFF7EBFF03461B68184603B0EE
:102120005DF804FB9869020000B583B00190019B43
:10213000002B04D1064940F25F2005F06DF80198AC
:10214000FFF7D5FF03465B68184603B05DF804FB54
:102150009869020000B583B00190019B002B04D167
:10216000064940F27B2005F057F80198FFF7BFFFC2
:1021700003465B68184603B05DF804FB98690200EB
:10218000014B1846704700BF5C6B02004FF0804364
:10219000D3F838341846704708B5FFF7F7FF034601
:1021A00003F00103002B14BF01230023DBB2184608
:1021B00008BD08B5FFF7EAFF034603F00203002B52
:1021C00014BF01230023DBB2184608BD00B583B05D
:1021D00001900091019B002B04D1114940F20F1096
:1021E00005F01AF8019B5B68002B04D10C494FF4F1
:1021F000887005F011F8019B5B681B68002B04D107
:10220000074940F2111005F007F8019B5B681B6855
:102210000099019898470346184603B05DF804FBFF
:10222000F069020000B583B001900091019B002B82
:1022300004D1114940F2191004F0EEFF019B1B6814
:10224000002B04D10C494FF48D7004F0E5FF019B85
:102250001B689B68002B04D1074940F21B1004F057
:10226000DBFF019B1B689B68009A528810469847C9
:1022700000BF03B05DF804FBF069020000B583B055
:1022800001900B468DF80330074B1B68002B06D0DE
:10229000054B1B689DF8032011460198984700BF25
:1022A00003B05DF804FB00BF0C03002000B583B051
:1022B00003468DF80730074B5B68002B05D0054BB4
:1022C0005B689DF807201046984700BF03B05DF893
:1022D00004FB00BF0C03002010B58EB003900193E7
:1022E0000B468DF80B3013468DF80A300023099306
:1022F00000230D9302E00D9B01330D93039B5B685C
:102300005C6809A8012300220399A0470346002B1B
:10231000F1D100238DF8233000230C9300238DF896
:102320002F30002306934FE0039B5B685C680DF140
:10233000230206A801230399A047039B5B685C68FE
:102340000DF1170206A801230399A0479DF8173045
:102350009DF80B209A4227D19DF82F209DF80A3036
:102360009A421CD19DF823301A46109B1A60019B9B
:102370005A1C01929DF823201A70019B5A1C01924D
:102380009DF80B201A70039B5B685C689DF82330F6
:10239000023B06A8019A0399A047002319E09DF883
:1023A0002F3001338DF82F30039B5B685C689DF8FC
:1023B0002330023B06A800220399A0479DF8233052
:1023C0001A460C9B13440C930C9A0D9B9A42ABD368
:1023D000052318460EB010BD00B585B003468DF834
:1023E00007309DF90730002B14DA9DF8073003F011
:1023F0000F038DF80E309DF80E30082B04D91149CB
:102400004FF4CC7004F008FF9DF80E30DB000E4A4C
:10241000134413E09DF8073003F00F038DF80F30DD
:102420009DF80F30082B04D906494FF4CF7004F003
:10243000F3FE9DF80F30DB00044A1344184605B044
:102440005DF804FBF06902006C020020B402002079
:1024500000B583B003468DF807309DF80730184665
:10246000FFF7BAFF03461B68184603B05DF804FB8C
:1024700000B585B0034600918DF807309DF8073010
:102480001846FFF7A9FF0390039B009A1A60009B70
:10249000002B10D19DF80730002B03D09DF807309A
:1024A000802B04D108494FF4E17004F0B5FE039B82
:1024B00000225A6004E0009B5B681A68039B5A6024
:1024C00000BF05B05DF804FBF069020000B583B001
:1024D0000190064B5B68054A1268019910469847BF
:1024E0000346184603B05DF804FB00BFB4020020A9
:1024F00000B589B00190019B0793079B1B78052BC2
:102500001AD1FFF74DFD03468DF81730FFF740FD58
:1025100003468DF81630002200210020FFF74EFD03
:1025200003461A469DF81630934205D19DF81730A0
:10253000052B01D1334B0793079B1B78002B27D129
:1025400000F088FF069007E007990698FFF76AFEFB
:102550000698FFF7FFFD0690069B002BF4D10020A4
:1025600004F084FD284B1B68002B03D1079B5A887D
:10257000264B1A800121244804F095FF002004F026
:1025800089FD01210798FFF779FE1F4B1B6835E095
:102590001F4A02AB1946104604F0FCFE0490049B4F
:1025A000002B2BD0049A079B1B681360002004F0BB
:1025B0005DFD164B1A88144B1B689BB2D31A9BB255
:1025C00001339AB2049BDA8000210F4804F03CFFEB
:1025D00003469AB2049B9A80002004F05BFD0C4AEB
:1025E00002AB1946104604F0EEFE03468DF80F309C
:1025F0009DF80F3019460798FFF740FE09B05DF8C7
:1026000004FB00BF546A020064020020680200203C
:102610005402002000B583B003468DF807309DF8C2
:102620000730022B0ED0022B10DC002B02D0012B26
:1026300004D00BE00A48FFF75BFF0DE00948FFF705
:1026400057FF09E00848FFF753FF05E0074940F24C
:10265000622004F0E1FD00BF00BF03B05DF804FBA1
:10266000486A02004C6A0200506A0200F0690200E7
:1026700000B583B001900198FFF73AFF00BF03B0A7
:102680005DF804FB00B583B003468DF807309DF874
:102690000730002B04D0064940F27B2004F0BCFD3B
:1026A0000448FFF725FF00BF03B05DF804FB00BF3F
:1026B000F0690200586A020082B003468DF80730C4
:1026C0009DF80730082B27D801A252F823F000BF4D
:1026D000F5260000F9260000FD2600000127000075
:1026E00005270000092700000D2700001127000022
:1026F00015270000002310E000230EE001230CE06A
:1027000000230AE0002308E0012306E0012304E09F
:10271000012302E0012300E00023184602B07047C5
:1027200082B003468DF807309DF80730082B27D874
:1027300001A252F823F000BF5D27000061270000CE
:1027400065270000692700006D2700007127000041
:1027500075270000792700007D270000002310E086
:1027600000230EE001230CE000230AE0002308E030
:10277000002306E0002304E0002302E0012300E040
:102780000023184602B07047014B1B78184670476B
:102790000803002010B582B003468DF807309DF87D
:1027A00007301846FFF788FF03461C461C4B1B7872
:1027B0001846FFF781FF03469C420DD09DF8073075
:1027C0001846FFF779FF0346002B03D0154807F0A2
:1027D000AFFE01E007F0FCFE9DF807301846FFF75A
:1027E0009FFF03461C460E4B1B781846FFF798FFC9
:1027F00003469C420CD09DF807301846FFF790FF27
:102800000346002B02D00CF083FB01E00CF076FBBA
:10281000034A9DF80730137000BF02B010BD00BF1F
:10282000080300200000002000B587B001900B468F
:102830008DF8033013468DF802300198FFF7EAFB5C
:1028400003461A469DF80330934204D91B4940F2CF
:10285000F92004F0E1FC9DF80230002B01D00723A1
:1028600028E09DF8033019460198FFF7DBFB049040
:102870000498FFF708FC03468DF80F3000238DF80D
:10288000173010E09DF8173019460498FFF702FC46
:102890000290029B1B78184600F0A4FD9DF81730AB
:1028A00001338DF817309DF817209DF80F309A42AC
:1028B000E8D30023184607B05DF804FBF069020076
:1028C00000B587B001900B468DF803300198FFF7F3
:1028D000A1FB03461A469DF80330934204D91949D7
:1028E0004FF4467004F098FC9DF8033019460198A7
:1028F000FFF798FB04900498FFF7C5FB03468DF89B
:102900000F3000238DF8173010E09DF8173019466E
:102910000498FFF7BFFB0290029B1B78184600F05B
:102920007FFD9DF8173001338DF817309DF8172083
:102930009DF80F309A42E8D300BF00BF07B05DF8A2
:1029400004FB00BFF069020000B589B0019007F0F8
:1029500029FD0346002B04D1484940F2313004F0F0
:102960005BFC474808234FF48472464904F0DFFCBF
:102970000690069B002B01D003237BE042480CF01D
:10298000BBF80690069B002B01D0069B72E03F4BE4
:1029900000221A703E4B00221A603E4B00221A6041
:1029A000482200213C4822F010FE482200213B48EA
:1029B00022F00BFE019B002B09D1394B00221A603B
:1029C000374B00225A60364B00221A7204E0344B17
:1029D000019A07CA83E80700002007F069FE069005
:1029E000069B002B08D0069B852B05D0234A40F27E
:1029F0005F310698FDF73CFDFFF7C2FB0590002311
:102A00008DF81F3018E000238DF81E3007E0039882
:102A1000FFF766FB034605991846FFF729FD9DF869
:102A20001E305A1C8DF81E2019460498FFF732FB01
:102A30000390039B002BEAD19DF81F305A1C8DF8A0
:102A40001F2019460598FFF7EDFA0490049B002B10
:102A5000D9D10B238DF8083002AB19460598FFF742
:102A6000B5FB0690069B002B03D0FFF7A1FA069B4F
:102A700000E00023184609B05DF804FBF06902008D
:102A8000540200204C0100207126000008030020A1
:102A9000FC020020000300206C020020B402002091
:102AA0000C03002000B587B007F033FEFFF780FA73
:102AB0000490274B05930BE0059B1B681846FFF716
:102AC00016FB03460193059B00221A60019B0593A8
:102AD000059B1B68002BEFD11E4B05930CE0059B5B
:102AE0001B681846FFF703FB034604330293059B5C
:102AF00000221A60029B0593059B1B68002BEED1F8
:102B0000154B05930CE0059B1B681846FFF7EFFA81
:102B1000034604330393059B00221A60039B05932D
:102B2000059B1B68002BEED1482200210B4822F0A8
:102B30004CFD482200210A4822F047FD0C220021CA
:102B4000084822F042FD049B184607B05DF804FBDC
:102B5000FC02002000030020040300206C0200207F
:102B6000B40200200C03002000B583B00CF040F943
:102B7000034683F00103DBB2002B04D10CF044F9CF
:102B80000346002B01D008230FE00A4807F0B2FDEE
:102B90000190019B0093009B002B05D0064A40F258
:102BA000C2310098FDF764FC0023184603B05DF8BD
:102BB00004FB00BF5C6A0200F069020008B50CF07B
:102BC00037F800BF08BD08B50CF09AF800BF08BD83
:102BD00008B50CF019F90346002B0DD10D494FF43F
:102BE000767004F019FB07E0FFF7D6FA034683F08E
:102BF0000103DBB2002B0BD1FFF7DBFA034683F0B6
:102C00000103DBB2002BEFD10348FFF771FC00E0BA
:102C100000BF08BDF0690200606A020000B583B021
:102C200082238DF8043001AB1846FFF761FC00BF2A
:102C300003B05DF804FB000000B587B0019004F01C
:102C40005CFA0346052B04D8E54940F22C4004F019
:102C5000E3FA019B1B78852B00F2698201A252F8EE
:102C600023F000BF7D2F0000BF2F00006530000063
:102C7000F92F0000293000008D3000009D30000049
:102C80002F31000005310000133100002131000018
:102C90002F3100002F3100002F3100002F310000B4
:102CA0007F3000002F3100002F3100002F31000055
:102CB0002F3100002F3100002F3100002F31000094
:102CC0002F3100002F3100002F3100002F31000084
:102CD0002F3100002F3100002F3100002F31000074
:102CE0002F3100002F3100002F3100002F31000064
:102CF0002F3100002F3100002F3100002F31000054
:102D00002F3100002F3100002F3100002F31000043
:102D10002F3100002F3100002F3100002F31000033
:102D20002F3100002F3100002F3100002F31000023
:102D30002F3100002F3100002F3100002F31000013
:102D40002F3100002F3100002F3100002F31000003
:102D50002F3100002F3100002F3100002F310000F3
:102D60002F3100002F3100002F3100002F310000E3
:102D70002F3100002F3100002F3100002F310000D3
:102D80002F3100002F3100002F3100002F310000C3
:102D90002F3100002F3100002F3100002F310000B3
:102DA0002F3100002F3100002F3100002F310000A3
:102DB0002F3100002F3100002F3100002F31000093
:102DC0002F3100002F3100002F3100002F31000083
:102DD0002F3100002F3100002F3100002F31000073
:102DE0002F3100002F3100002F3100002F31000063
:102DF0002F3100002F3100002F3100002F31000053
:102E00002F3100002F3100002F3100002F31000042
:102E10002F3100002F3100002F3100002F31000032
:102E20002F3100002F3100002F3100002F31000022
:102E30002F3100002F3100002F3100002F31000012
:102E40002F3100002F3100002F3100002F31000002
:102E50002F3100002F3100002F3100002F310000F2
:102E60002F310000FB2E00007D2E0000C12E00003F
:102E70002F2F00004F2F0000953000005948FFF71A
:102E800025FB584800F070FB0D20FFF70FFA00F00B
:102E90008FFC01F068FB544B1B68002B03D1534B94
:102EA0001B7A002B01D0012300E0002303F0010373
:102EB000DBB218460BF044FF0120FFF76BFC43E147
:102EC00000F076FC0BF070FF0020FFF763FC484831
:102ED00000F04AFB4648FFF7F9FA0E20FFF7E6F943
:102EE000FFF752FC03461846FFF7E6FB0346002BAC
:102EF00000F0238107F06CFB1FE1FFF745FC034660
:102F0000072B0ED0072B10DC052B02D0062B04D08C
:102F10000BE00220FFF73EFC08E00820FFF73AFC38
:102F200004E00220FFF736FC00E000BF0CE1FFF7F1
:102F30002BFC0346032B40F002810BF071FF03468C
:102F4000002B00F0FC800420FFF724FCF7E0FFF7E3
:102F50001BFC0346032B07D10BF062FF0346002B3B
:102F600002D00420FFF716FC0BF08AFF0346002B6B
:102F700000F0E7800620FFF70DFCE2E0FFF704FC1D
:102F80000346032B04D0FFF7FFFB0346082B02D1B7
:102F90001848FFF751FE0020FFF788F900F054FAB7
:102FA000059008E001990598FFF710F9039005983E
:102FB000FFF7BAF80590059B002BF3D1C4E000F0B1
:102FC000F7FB01F0C7FA0220FFF7E4FB0120FFF74F
:102FD0006DF90198FFF77AFA019800F0C5FAB3E0AD
:102FE000F0690200646A0200000300200C03002064
:102FF000686A02006C6A0200FFF7C6FB0346082BF2
:1030000005D10220FFF7C6FB0BF08CFF02E0052084
:10301000FFF7C0FB0320FFF749F90198FFF756FAC5
:10302000019800F0A1FA8FE00320FFF73FF948482C
:10303000FFF74CFA464800F097FAFFF7A5FB034666
:10304000062B02D0082B04D007E00720FFF7A2FBD5
:1030500007E00220FFF79EFB03E00220FFF79AFB48
:1030600072E071E00320FFF795FB0220FFF71EF9E5
:10307000019800F079FA0198FFF728FA64E00F2030
:10308000FFF714F9019800F06FFA5DE00198FFF77F
:103090001DFA59E00198FFF719FA55E0019B9B785A
:1030A0001846FFF799F90490049B1B68002B04D184
:1030B000284940F2025004F0AFF8049B5B68002BF3
:1030C00004D1244940F2035004F0A6F8049B5B6845
:1030D000049A12680199104698470346002B32D093
:1030E000019B9B7803F00F03002B2CD0019B9B7856
:1030F00003F00803002B26D1019B9B7818460CF0A7
:1031000078F920E00820FFF7D1F8019800F02CFAB8
:103110001AE00920FFF7CAF8019800F025FA13E039
:103120000A20FFF7C3F8019800F01EFA0CE00949E5
:1031300040F2265004F070F806E000BF04E000BF43
:1031400002E000BF00E000BF00BF07B05DF804FB75
:10315000706A0200F069020000B583B00023019399
:10316000354B1B68002B07D1344B3549184604F00A
:103170003EF90346304A13602F4B1B68002B32D0B8
:103180002D4B1B689B88002B1ED02B4B1B68DB88AC
:10319000B3F5006F03D3284B1B680022DA80264B5F
:1031A0001B68DA88511C89B2D9801346ADF8063005
:1031B000214B1B689A88013A92B29A8001AB18465B
:1031C000FFF73AFD012333E01B4B1B681846FFF75E
:1031D00033FD1A4B1A49184604F022F9164B002207
:1031E0001A60012324E0174B1B68002B1FD000201E
:1031F00003F03CFF144B1B88B3F5006F02D3124B56
:1032000000221A80104B1B885A1C91B20E4A118062
:10321000ADF8063001210B4804F05DF9002003F001
:1032200039FF01AB1846FFF707FD012300E000233B
:10323000184603B05DF804FB180300205402002078
:103240001C030020640200206802002000B589B041
:103250000190019B002B04D15A4940F26A5003F0BF
:10326000DBFF019B5B68002B04D1564940F26B5099
:1032700003F0D2FF019B5B681B68002B04D151490E
:1032800040F26C5003F0C8FF0198FEF730FF034690
:103290001B68002B04D04B4940F26D5003F0BCFF7B
:1032A0000BF0B2FD034683F00103DBB2002B04D028
:1032B0000BF09EFD0346002B04D1424940F27150B1
:1032C00003F0AAFF00238DF81F301CE000238DF8C7
:1032D0001E300BE00398FEF703FF03461846FFF786
:1032E000B7F80346002B01D0112367E09DF81E308C
:1032F0005A1C8DF81E2019460598FEF7CBFE039048
:10330000039B002BE6D19DF81F305A1C8DF81F201F
:1033100019460198FEF786FE0590059B002BD5D136
:1033200000238DF81F3018E000238DF81D3007E0D2
:103330000498FEF7D5FE034601991846FFF798F862
:103340009DF81D305A1C8DF81D2019460598FEF772
:10335000A1FE0490049B002BEAD19DF81F305A1C5B
:103360008DF81F2019460198FEF75CFE0590059B1D
:10337000002BD9D1144B069310E0069B1B68019AD1
:103380009A4204D10F4940F2975003F045FF069B43
:103390001B681846FEF7ABFE03460693069B1B68A8
:1033A000002BEAD1069B019A1A600B238DF8083096
:1033B00002AB19460198FEF709FF0346184609B00B
:1033C0005DF804FBF0690200FC020020044B1B784E
:1033D000002B14BF01230023DBB21846704700BF47
:1033E0000903002000B583B003468DF807309DF82F
:1033F000073003F00803002B09D19DF80730184669
:103400000CF03FF89DF8073018460CF004F89DF8D2
:10341000073018460BF004FE00BF03B05DF804FB54
:1034200000B583B003468DF807309DF80730184685
:103430000BF046FE00BF03B05DF804FB014B1B68B8
:1034400018467047FC020020014B1B681846704765
:1034500000030020014B1B6818467047040300203E
:1034600000B587B0034600918DF80730FFF7E6FFFF
:10347000059031E00598FEF7CDFD03468DF812303A
:1034800000238DF813301DE09DF813301946059880
:10349000FEF7C8FD03900398FEF7EEFD03461A46BB
:1034A0009DF80730934208D1009B002B03D0009B6E
:1034B0009DF813201A70059B12E09DF8133001331C
:1034C0008DF813309DF813209DF812309A42DBD30B
:1034D0000598FEF713FE0590059B002BCAD100232B
:1034E000184607B05DF804FB00B585B003900B46A5
:1034F00001928DF80B3001990398FEF767FE0346A1
:10350000184605B05DF804FB00B585B00346009190
:103510008DF807309DF90730002B05DA9DF807304C
:1035200003F00F03082B09DD9DF90730002B16DB94
:103530009DF8073003F00F03082B10DC9DF80730CF
:103540001846FEF749FF03461B680393039B002BB5
:1035500005D000990398FEF739FE034600E01023DA
:10356000184605B05DF804FB00B585B00190FFF783
:1035700065FF039007E001990398FEF727FE039883
:10358000FEF7BCFD0390039B002BF4D100BF00BFEE
:1035900005B05DF804FB00B585B0019006230293E9
:1035A000FFF74CFF03900BE001990398FEF70EFE26
:1035B0000290029B062B07D10398FEF79FFD039014
:1035C000039B002BF0D100E000BF029B184605B022
:1035D0005DF804FB00B583B0034600918DF8073019
:1035E0009DF8073018460BF008FD034683F00103F1
:1035F000DBB2002B01D008230CE0084B1B78022B18
:1036000001D0082306E09DF80730009918460BF01A
:1036100077FD0346184603B05DF804FB080300205D
:1036200000B583B0034600918DF807309DF8073050
:1036300018460BF0E2FC034683F00103DBB2002BDB
:1036400001D008230CE0084B1B78022B01D0082383
:1036500006E09DF80730009918460BF01FFE034660
:10366000184603B05DF804FB0803002000B585B0E0
:1036700001900B468DF8033013468DF80230062377
:103680000393019B5B689B68002B09D0019B5B68DF
:103690009B689DF802209DF80310019898470390BD
:1036A000039B062B08D19DF802209DF80330194694
:1036B0000198FFF7B9F80390039B184605B05DF831
:1036C00004FB00B583B001900B468DF80330019BDD
:1036D0005B68DB68002B07D0019B5B68DB689DF8AB
:1036E00003201146019898479DF803301946019828
:1036F000FFF7E6F800BF03B05DF804FB00B585B046
:1037000001900B468DF8033000238DF80F30019B9C
:103710005B681B69002B0AD0019B5B681B699DF8E5
:10372000032011460198984703468DF80F309DF805
:103730000F30184605B05DF804FB000000B585B0F9
:10374000FFF77CFE039028E00398FEF763FC034636
:103750008DF80A3000238DF80B3014E09DF80B3003
:10376000002219460398FFF781FF0190019B002B6F
:1037700004D00E4940F26A7003F04EFD9DF80B3004
:1037800001338DF80B309DF80B209DF80A309A42DA
:10379000E4D30398FEF7B2FC0390039B002BD3D134
:1037A00000BF00BF05B05DF804FB00BFF069020078
:1037B00000B583B0FFF742FE01901EE00198FEF7CE
:1037C00029FC03468DF8023000238DF803300AE00F
:1037D0009DF8033019460198FFF773FF9DF80330F9
:1037E00001338DF803309DF803209DF802309A4292
:1037F000EED30198FEF782FC0190019B002BDDD1F6
:1038000000BF00BF03B05DF804FB82B00190019BD4
:1038100003F1804303F51C33184602B0704700B52E
:1038200083B003468DF807309DF807301846FFF740
:10383000ECFF034601221A60BFF36F8F00BFBFF396
:103840004F8F00BF00BF03B05DF804FB82B003469A
:103850008DF807309DF8073003F01F03DBB21846E0
:1038600002B0704782B003468DF807309DF80730EC
:103870005B0903F00303DBB2184602B0704782B065
:1038800003468DF807309DF80730DB09DBB2184698
:1038900002B0704782B00190019B1B7A184602B0BB
:1038A000704782B00190019B1B68184602B07047B8
:1038B00000B583B00190019B002B04D1064940F272
:1038C000432003F0A9FC0198FFF7EBFF03461B68B8
:1038D000184603B05DF804FB746A020082B00190E0
:1038E000019B1B78184602B07047000000B583B0FA
:1038F00003468DF807300E4B1B789DF807209A423F
:1039000011D00B4A9DF8073013709DF80730052B36
:1039100006D0084B1B7823F00203DAB2054B1A706D
:103920000548FFF789F900BF03B05DF804FB00BF4D
:1039300020030020210300207C6B020008B5074B08
:103940001B78012B03D0054B1B78052B02D10020DF
:10395000FFF7CCFF014B1B78184608BD2003002061
:103960004FF08043D3F8383403F00103002B14BF29
:1039700001230023DBB2184670470000024B0022EF
:103980001A6000BF704700BF6803002000B585B013
:1039900003468DF807300B4B1B680393039B002BEA
:1039A0000AD0FFF7EBFF074B59689DF80720039BF0
:1039B00010469847034600E00E23184605B05DF810
:1039C00004FB00BF68030020044B1B68002B14BFDE
:1039D00001230023DBB21846704700BF68030020B4
:1039E00082B0034600918DF807300023184602B0DC
:1039F0007047000010B58EB0039002910192012330
:103A00008DF83730029B0993099B5B68002B15D119
:103A1000099B1B681846FFF74BFF0346002B0DD18F
:103A2000099B9B68002B09D100238DF83730039B3D
:103A300000221A60039B00225A60AAE0019B402BDF
:103A400004D9564940F2991003F0E6FB00230C9389
:103A500000238DF82B300BF08DFC0890099BDB6860
:103A6000019A934228BF13460B9386E0099B9B68FB
:103A70000B9A934228BF13460793099B5B68002B60
:103A80000CD0089A0C9BD018099B5B68079A1946C2
:103A900021F072FD099B00225A6014E0099B9B688B
:103AA000002B10D0099B1B685B685C68099B03F1C5
:103AB0001000099B1968089A0C9B1A44079BA047A1
:103AC00001238DF82B30099B9A68079BD21A099B1A
:103AD0009A60099BDA68079BD21A099BDA600B9AF5
:103AE000079BD31A0B930C9A079B13440C93099BC7
:103AF0009B68002B0BD19DF82B30002B07D0099B26
:103B00001B681846FFF7D4FE0246099B1A60099B02
:103B1000DB68002B03D100238DF837302DE0099BA3
:103B20009B68002B29D1099B1B68002B0DD1099B99
:103B300000225A600C9B002B24D00C9A019B9A42C5
:103B400020D200238DF837301CE00023059304E0D9
:103B5000099B9B685A1C099B9A60099B1B685B68C0
:103B60005C68099B196805A801230022A047034649
:103B7000002BEDD1099B00221A610B9B002B7FF4D7
:103B800075AF00E000BF039B089A1A60039B0C9A74
:103B90005A609DF8373018460EB010BDCC6A02004E
:103BA00000B587B00190019B5B781846FFF75AFE7D
:103BB0000346002B01D0062383E0019B5B798DF83F
:103BC0001730FFF7BBFE03468DF81630019B9B783C
:103BD000032B29D0032B6EDC002B02D0012B44D009
:103BE00069E09DF81630052B05D09DF8173003F0DD
:103BF0000F03002B16D103AB184600F029FD0490EB
:103C00009DF8173018460BF029FC03469AB2049B26
:103C10001A80019B013302220499184600F0ACFC83
:103C200003464EE008234CE09DF8173003F00803EC
:103C3000002B42D1019BB3F803309BB2002B3CD147
:103C40009DF8173003F00F03002B01D1062338E055
:103C50009DF81630052B06D19DF8173018460BF04D
:103C6000C8FB00232DE008232BE09DF8173003F05C
:103C70000803002B23D1019BB3F803309BB2002B28
:103C80001DD19DF8173003F00F03002B01D106233F
:103C900017E09DF81630052B0BD19DF8173018460C
:103CA0000BF0EFFB9DF8173018460BF0B4FB002328
:103CB00007E0082305E000BF02E000BF00E000BF0E
:103CC0000623184607B05DF804FB00B58BB00390DF
:103CD0000B4601928DF80B30019B5B781846FFF77D
:103CE000C1FD0346002B01D006236AE0FFF726FE44
:103CF00003468DF82730019B5B781846FFF7BFFD20
:103D00000346012B3BD1019B9B78002B02D00A2B51
:103D100017D055E09DF82730052B01D0082350E03F
:103D200006AB184600F094FC0790079B00221A800F
:103D3000019B013302220799184600F01DFC03463F
:103D40003FE09DF82730052B01D0082339E005AB73
:103D5000184600F07DFC08909DF80B30194603983A
:103D6000FFF7CCFC03461A46089B1A70019B0133EF
:103D700001220899184600F0FFFB034621E0019B51
:103D80009B780B2B1BD19DF82730052B01D00823E6
:103D900017E0019BB3F803309BB2FF2B01D9072337
:103DA0000FE0019BDB788DF826309DF826209DF8EA
:103DB0000B3019460398FFF759FC034601E000BF9A
:103DC000062318460BB05DF804FB000000B585B073
:103DD0000190009102AB184600F03AFC0390029B60
:103DE000012B04D8184940F2A12003F015FA022251
:103DF0000021039821F0E9FBC02303F04003002BCE
:103E000006D0039B1B7843F00103DAB2039B1A70C0
:103E10000E4B1B785B08DBB203F00103002B06D0CE
:103E2000039B1B7843F00203DAB2039B1A70009BDA
:103E3000013302220399184600F09EFB0346184600
:103E400005B05DF804FB00BFCC6A0200210300202E
:103E500010B58EB001900091009B1B79032B00F0F0
:103E6000BC80032B00F3E780012B02D0022B11D082
:103E7000E1E0009BB3F807309BB2002B01D1002397
:103E8000DBE0009B013312226D49184600F074FB01
:103E90000346D2E0009BB3F807309BB2002B01D160
:103EA0000023CAE0009BB3F807309BB2092B28BF60
:103EB00009239BB2069309230D9300238DF8333019
:103EC000FFF7BCFA0B9037E00B9B5B68002B04D12B
:103ED0005C4940F2D32003F09FF90B9B5B685B6861
:103EE000002B04D157494FF4357003F095F90023A6
:103EF0000A930023029302E00A9B01330A930B9B6F
:103F00005B685C6802A8012300220B99A047034666
:103F1000002BF1D10D9A0A9B13440D930B98FFF7D8
:103F2000B9FC03461A469DF8333013448DF83330FC
:103F30000B98FFF7BDFC0B900B9B002BC4D104AB7F
:103F4000184600F085FB0590049B069A9A4204D916
:103F50003C4940F2E92003F05FF9069A3A49059896
:103F600021F00AFB059B9DF833201A710D9B9AB234
:103F7000059B5A80FFF72AFA0346002B06D0059BC3
:103F8000DB7943F02003DAB2059BDA71FFF756FACA
:103F900003462E4A13602D4A059B53602B4A069B0D
:103FA0009360009BB3F807309BB21A46274BDA6048
:103FB000002003F05BF826498020FFF731FB0990D1
:103FC000099B002B04D12349802000F023FB09909A
:103FD000002003F05FF8099B2FE0009BB3F8073047
:103FE0009BB2002B01D1002327E0009BDB788DF8EA
:103FF0002330009B5A799B791B021343ADF8203084
:10400000BDF820209DF823301146184602F092FF9B
:104010000790079B002B01D106230EE0009B5C1C40
:104020000798FFF75BFC03461A460799204600F005
:10403000A3FA034601E000BF062318460EB010BDE8
:10404000286B0200CC6A02003C6B02007C0300205B
:10405000746B02006C6B020000B587B00190009198
:1040600003AB184600F0F4FA0590FFF767FC03462F
:104070008DF813309DF81330052B03D1059B0122D9
:104080001A7009E09DF81330042B03D1059B002220
:104090001A7001E0062307E0009B01330122059915
:1040A000184600F069FA0346184607B05DF804FBAD
:1040B00000B585B001900091FFF740FC03468DF8F4
:1040C0000F309DF80F30052B05D09DF80F30042BD5
:1040D00001D0082316E0009BDB78002B05D1FFF709
:1040E00067FB0420FFF702FC0BE0009BDB78012B51
:1040F00005D1FFF723FB0520FFF7F8FB01E00723BD
:1041000000E00023184605B05DF804FB00B583B05D
:1041100001900091019B002B04D1504940F26A307C
:1041200003F07AF8009B002B04D14C4940F26B302D
:1041300003F072F8009B5B781846FFF793FB034689
:10414000002B01D0062385E0009B5B781846FFF723
:1041500096FB0346012B1FD1009B9B78082B12D0A6
:10416000082B16DC002B02D0062B06D011E000999C
:104170000198FFF72BFE03466CE000990198FFF7CA
:1041800067FE034666E000990198FFF765FF034666
:1041900060E000BF06235DE0009B9B78013B082B9D
:1041A00052D801A252F823F00B420000494200000D
:1041B000D941000049420000CD41000049420000C1
:1041C00049420000494200003D420000234940F2BC
:1041D0008E3003F021F83CE0009BB3F803309BB233
:1041E000012B33D1FFF7F2F8034683F00103DBB272
:1041F000002B01D00F232DE0194B1B7843F0020355
:10420000DAB2174B1A70002324E0009BB3F8033096
:104210009BB2012B1CD1FFF7D9F8034683F00103B1
:10422000DBB2002B01D00F2314E00D4B1B7823F0E1
:104230000203DAB20A4B1A7000230BE000990198CE
:10424000FFF736FF034605E000BF02E000BF00E0D5
:1042500000BF0623184603B05DF804FBCC6A0200D9
:104260002103002000B58BB001900623099305239C
:104270008DF8103004AB013318460BF011F9FFF73D
:10428000A3FBFFF77BFB9DF811301846FFF7DEFA22
:104290000346032B63D801A252F823F0AD4200007D
:1042A000CB420000194300005343000004AB194601
:1042B0000198FFF72BFF0990099B062B51D104AB06
:1042C0001846FFF768F909904BE09DF815308DF816
:1042D00022300DF10F029DF8223011461846FFF7EB
:1042E000BFF80790079B002B02D1102309933AE0F7
:1042F0009DF80F3004AA19460798FFF7F5F80990C2
:10430000099B062B2FD19DF80F3004AA1946079858
:10431000FFF7DBFC099026E0062309939DF8153092
:104320008DF823309DF8233003F00F03002B07D0C6
:1043300004AA9DF8233011461846FFF7E5F80990C6
:10434000099B062B11D104AB1846FFF729FC0990F5
:104350000BE004AB1846FFF71EF9099006E000BF1A
:1043600004E000BF02E000BF00E000BF099B002B9B
:104370000FD1FFF729FB0346002B07D00BF0CCF839
:104380000346002B07D10BF0B5F804E00BF0B8F8AA
:1043900001E00BF0BBF8099B18460BB05DF804FB7D
:1043A00000B585B00190009106230393009B1B7814
:1043B0000E2B25DC002B40F3BD80013B0D2B00F2C2
:1043C000B98001A252F823F0074400000F44000016
:1043D00015440000354500005B440000DD4400004A
:1043E00035450000354500003545000035450000E5
:1043F000654400007F4400009F440000BD4400006D
:10440000852B1DD096E00320FFF770FA99E000237A
:10441000039396E04D4803F078F80346002B02D052
:104420005C20FFF7FCF9FFF789FA0346002B04D163
:10443000474940F2444002F0EFFE0023039380E03E
:10444000FFF77CFA03468DF80B309DF80B30032BF9
:1044500072D10420FFF74AFA6EE00198FFF702FFDD
:1044600003906EE0FFF76AFA0346002B04D0384948
:104470004FF48B6002F0D0FE0023039361E0FFF75E
:104480005DFA0346012B04D0314940F25E4002F050
:10449000C3FE0020FFF72AFA0023039351E0FFF741
:1044A0005FFA0346002B03D00220FFF71FFA02E059
:1044B0000120FFF71BFA0023039342E0FFF73EFAC7
:1044C0000346012B04D8224940F2724002F0A4FEB8
:1044D0000120FFF70BFA0023039332E0009BDB7807
:1044E000032B2BD0009B9B78002B08D0009B9B7844
:1044F000802B04D016494FF4906002F08DFE009B93
:10450000DB781846FFF742FA0390039B002B0ED18D
:10451000FFF75AFA0346002B06D0009B9B78002B2E
:104520000ED10AF0E7FF0BE00AF0EAFF08E00AF01C
:10453000EDFF05E000BF04E000BF02E000BF00E0C7
:1045400000BF039B184605B05DF804FB2403002060
:10455000CC6A020008B50020FEF744FF8020FEF779
:1045600041FF00BF08BD08B50020FEF759FF8020BD
:10457000FEF756FF00BF08BD00B58DB00390029155
:104580000192039BDB889BB20A93019A0A9B934298
:1045900028BF13460993019A0A9B9A420ED28020A3
:1045A0000AF01AFD03461A46019BB3FBF2F102FB27
:1045B00001F29B1A002B01D1012300E000238DF8AA
:1045C00023309DF8233003F001038DF82330029B44
:1045D0000593099B06939DF823300793002002F072
:1045E00045FD05AB19468020FEF7F4FF0B900B9BB1
:1045F000002B04D10649802000F00CF80B9000201D
:1046000002F048FD0B9B18460DB05DF804FB00BF9F
:104610006C6B020000B583B0034600918DF8073043
:104620000AF07AFF03461A469DF80730934201D0FC
:10463000102306E0054B009A92E8030083E803008C
:104640000023184603B05DF804FB00BF6803002098
:1046500082B00190019B002B02D0019B40221A6086
:10466000014B184602B070472803002082B0019029
:104670000091019BDAB2009B1A70019B1A0A009B01
:104680000133D2B21A70019B1A0C009B0233D2B2D2
:104690001A70019B1A0E009B0333D2B21A700423C6
:1046A000184602B0704782B00190019B1B781B0234
:1046B0001AB2019B01331B781BB213431BB29BB28E
:1046C000184602B0704782B00190019B1B781A46D1
:1046D000019B01331B781B021A43019B02331B7899
:1046E0001B041A43019B03331B781B061343184614
:1046F00002B0704782B00190019B1B781A06019BA3
:1047000001331B781B041A43019B02331B781B02E5
:104710001343019A033212781343184602B07047CC
:1047200084B001900091019B0393039B1ABA009BF4
:104730001A600423184604B07047000000B585B025
:104740000190019B002B0AD0074B43F00103039318
:10475000019B9B010293039B0298984700E000BFD6
:1047600005B05DF804FB00BF706C020082B0034628
:104770008DF807309DF8073003F01F03DBB21846B1
:1047800002B0704782B003468DF807309DF80730BD
:104790005B0903F00303DBB2184602B0704782B036
:1047A00003468DF807309DF80730DB09DBB2184669
:1047B00002B0704782B00190019B1B7A184602B08C
:1047C0007047000000B585B001900B468DF80330AE
:1047D000019B002B04D10F494FF4887002F01CFD9F
:1047E0000198FFF7E7FF03461A469DF8033093420E
:1047F00001D3002309E0019B093303939DF80320B3
:1048000013465B001344039A1344184605B05DF841
:1048100004FB00BF806B020082B00190019B1B78FB
:10482000184602B0704782B00190019B5B78184631
:1048300002B0704700B585B001900B468DF803308B
:10484000019B002B04D10D4940F2431002F0E4FC1F
:10485000019B5B789DF803209A4201D3002309E075
:10486000019B9B781A46019B134403939DF80330E8
:10487000039A1344184605B05DF804FB806B0200F0
:1048800082B00190019B1B78184602B0704700006F
:1048900000B585B0039002910192039B1B681B68D1
:1048A000002B03D10749F02002F0B6FC039B1B68E4
:1048B0001B68019A0299039898470346184605B069
:1048C0005DF804FBB86B020000B583B00190019B5A
:1048D0001B685B68002B03D10649FD2002F09CFC9D
:1048E000019B1B685B68019898470346184603B014
:1048F0005DF804FBB86B020010B582B00190009126
:10490000019B1B689B68002B04D113494FF48970ED
:1049100002F082FC019B1B685B69002B04D10E49ED
:1049200040F2131002F078FC009B1C68019B1B688E
:104930005B690198984703461B689C4201D3072393
:1049400006E0019B1B689B68009901989847034605
:10495000184602B010BD00BFB86B020010B582B09F
:1049600001900091019B1B68DB68002B04D1134967
:104970004FF4977002F050FC019B1B685B69002BA1
:1049800004D10E4940F22F1002F046FC009B1C6837
:10499000019B1B685B690198984703461B689C4212
:1049A00001D3072306E0019B1B68DB68009901988F
:1049B00098470346184602B010BD00BFB86B02000E
:1049C00000B585B003900B4601928DF80B30039B28
:1049D0001B681B69002B04D108494FF4A37002F037
:1049E0001BFC039B1B681B699DF80B10019A039825
:1049F00098470346184605B05DF804FBB86B020003
:104A000000B583B00190019B1B685B69002B04D14A
:104A100007494FF4AA7002F0FFFB019B1B685B691A
:104A2000019898470346184603B05DF804FB00BFA1
:104A3000B86B020082B00190019B1B78184602B04F
:104A4000704700B583B00190019B002B0AD04FF452
:104A50007A70FFF773FE019B013B0193019B002BD2
:104A6000F5D100E000BF03B05DF804FB00B583B0F2
:104A70000190019B002B03D10449822002F0CCFB62
:104A8000019B184603B05DF804FB00BFF06B020009
:104A900000B583B00190019B002B03D109498E2002
:104AA00002F0BAFB019B1B68002B03D105498F2044
:104AB00002F0B2FB019B1B680C33184603B05DF893
:104AC00004FB00BFF06B020000B585B0019000212F
:104AD0000198FFF777FE039000210398FFF7AAFEE5
:104AE00002900298FFF7CCFE0346184605B05DF829
:104AF00004FB00B585B0019000210198FFF762FE2C
:104B0000039001210398FFF795FE02900298FFF7AA
:104B1000B7FE0346184605B05DF804FB00B585B046
:104B200001900198FFF7B4FF0390039B002283F8E4
:104B30003020039B002283F83120039B002283F85E
:104B4000322000BF05B05DF804FB00B585B00190D0
:104B50000198FFF79DFF0390039B93F83130002BE2
:104B600014BF01230023DBB2184605B05DF804FB37
:104B700000B585B001900198FFF78AFF0390039B71
:104B800093F832301A46019B9B699A4234BF012345
:104B90000023DBB2184605B05DF804FB00B587B012
:104BA00001900198FFF774FF049000230593002003
:104BB00002F05CFA0198FFF7DBFF0346002B25D0DB
:104BC000049B93F830301A46049B93F83230134418
:104BD0001A46019B9B69B2FBF3F103FB01F3D31A65
:104BE0008DF80F309DF80F30019A526902FB03F3E4
:104BF0000293019B1A69029B13440593049B93F84B
:104C000032300133DAB2049B83F83220002002F004
:104C100041FA059B184607B05DF804FB00B585B066
:104C200001900198FFF734FF0390002002F01EFA74
:104C3000039B93F83120039B93F832309A4204D3BC
:104C400010494FF4897002F0E7FA039B93F8313072
:104C50001A46019B9B699A4204D30A4940F21310F9
:104C600002F0DAFA039B93F831300133DAB2039B96
:104C700083F83120002002F00DFA00BF05B05DF886
:104C800004FB00BFF06B020000B587B001900198F3
:104C9000FFF7FEFE049000230593002002F0E6F9E2
:104CA0000198FFF752FF0346002B10D0049B93F8A6
:104CB00030308DF80F309DF80F30019A526902FBA9
:104CC00003F30293019B1A69029B1344059300208E
:104CD00002F0E0F9059B184607B05DF804FB000000
:104CE00000B585B001900198FFF7D2FE0390002037
:104CF00002F0BCF9039B93F83130002B04D11B491F
:104D00004FF4A37002F088FA039B93F83230002B23
:104D100004D1164940F2471002F07EFA039B93F843
:104D20003130013BDAB2039B83F83120039B93F8C7
:104D30003230013BDAB2039B83F83220039B93F8B5
:104D4000303001331A46019B9B69B2FBF3F103FB40
:104D500001F3D31ADAB2039B83F83020002002F06B
:104D600099F900BF05B05DF804FB00BFF06B0200CD
:104D700000B58BB001900198FFF778FE0990099873
:104D8000FFF786FE08900198FFF7B3FE03468DF803
:104D90001F30089B01331F220021184620F015FC0C
:104DA000089B013303931F2304930023059303AA55
:104DB0009DF81F3011461846FEF70CFC0690069B26
:104DC000002B02D1089B02221A70069B18460BB0DA
:104DD0005DF804FB00B58BB001900B468DF80330F5
:104DE0000198FFF743FE09900998FFF751FE0890DC
:104DF0000198FFF769FE03468DF81F30089BDA6CB7
:104E0000089B9B6B934238BF13460693089B28333D
:104E100019460698FFF72AFC089B9DF8032083F8A3
:104E20002C20089B203302930D230393002304932B
:104E300002AA9DF81F3011461846FEF7CBFB0590DD
:104E4000059B002B02D1089B06221A70059B184671
:104E50000BB05DF804FB00B58DB003900291019298
:104E60008DF803300398FFF701FE0B900B98FFF7C6
:104E70000FFE0A900398FFF727FE03468DF82730B0
:104E8000029B0593019B06930023079305AA9DF8B7
:104E9000273011461846FEF79DFB0890089B002B13
:104EA00003D10A9B9DF803201A70089B18460DB089
:104EB0005DF804FB00B585B001900198FFF704FE92
:104EC00003468DF80F300198FFF713FE03468DF867
:104ED0000E309DF80F30184608F026FF9DF80E3072
:104EE000184608F021FF00BF05B05DF804FB00B5CF
:104EF0008DB00390029101928DF803300398FFF773
:104F0000B5FD0B900B98FFF7C3FD0A900398FFF7D0
:104F1000F0FD03468DF82730029B0593019B069315
:104F20000023079305AA9DF8273011461846FEF77F
:104F300051FB0890089B002B03D10A9B9DF803208E
:104F40001A70089B18460DB05DF804FB00B587B0D9
:104F500001900B468DF803300198FFF787FD05900F
:104F60000598FFF795FD04900198FFF7ADFD034606
:104F70008DF80F300198FFF7BCFD03468DF80E3019
:104F80009DF80F3018460AF034FA9DF80E30184696
:104F90000AF02FFA9DF80F30184608F0C5FE9DF86C
:104FA0000E30184608F0C0FE049B9DF803201A70CE
:104FB00000BF07B05DF804FB00B587B00190019811
:104FC000FFF754FD04900498FFF762FD0390039BE4
:104FD00009331846FFF777FB0346002B14BF012364
:104FE00000238DF80B30002305939DF80B3083F0E0
:104FF0000103DBB2002B05D001210198FFF7EAFE87
:10500000059003E007210198FFF7A0FF059B1846D4
:1050100007B05DF804FB00B583B00190082101984A
:10502000FFF794FF00BF03B05DF804FB00B583B049
:10503000019009210198FFF789FF00BF03B05DF8D7
:1050400004FB000000B589B003900291029B5B78DD
:105050001846FFF78BFB0346012B29D1029B9B7857
:10506000062B25D10023059304AB1846FFF7F0FA71
:105070000790029B1979029BDA7805AB0093079B96
:105080000398FDF729F90690069B052B10D0059B88
:105090003F2B04D909494FF4187002F0BDF8029B68
:1050A0000133059A07991846FFF766FA034600E0B0
:1050B0000623184609B05DF804FB00BFF06B020040
:1050C00000B587B0019000910198FFF7CFFC0490E4
:1050D0000498FFF7DDFC0390009B5B781846FFF710
:1050E00045FB03468DF80B309DF80B30022B47D162
:1050F000009B9B78012B43D1009BB3F803309BB2FC
:10510000002B3DD1039B1B78082B01D10F2338E0E6
:1051100000230593009B5B798DF80A309DF80A30D7
:1051200018460AF0AEF99DF80A3018460AF073F9ED
:105130009DF90A30002B20DA039B1B78072B02D045
:10514000092B0DD01AE00198FFF7D3FC034618464F
:105150000AF061F901210198FFF73CFE05900DE08E
:105160000198FFF7C6FC034618460AF054F90221DD
:105170000198FFF72FFE059000E000BF059B00E0BF
:105180000623184607B05DF804FB000000B587B0A1
:10519000019000910198FFF769FC0590009B9B78B6
:1051A000FE2B2DD1009BB3F803309BB2002B29D1ED
:1051B000009BB3F807309BB2012B25D102AB1846F8
:1051C000FFF746FA0490059B1B6A002B04D1114996
:1051D00040F2CE2002F020F8059B1B6A9BB2013BF7
:1051E0009AB2049B1A800198FFF7C2FD0390009BBE
:1051F0000133012204991846FFF7BEF9034605E082
:1052000000BF02E000BF00E000BF0623184607B061
:105210005DF804FBF06B020000B587B001900091CF
:105220000198FFF723FC05900598FFF731FC0490E7
:10523000009B9B78FF2B18D1009BB3F803309BB2E7
:10524000002B14D1009BB3F807309BB2002B10D178
:105250000198FFF72FFE049B1B78022B03D00198C7
:10526000FFF786FD0390002305E000BF02E000BFCA
:1052700000E000BF0623184607B05DF804FB0000FD
:1052800000B583B001900091019B002B04D124490B
:1052900040F2213001F0C0FF009B002B04D12049D7
:1052A00040F2223001F0B8FF009B5B781846FFF710
:1052B00076FA0346012B16D1009B5B781846FFF760
:1052C00061FA0346002B02D0012B06D022E00099A0
:1052D0000198FFF7B7FE03461DE000990198FFF71C
:1052E00055FF034617E0009B5B781846FFF74AFA24
:1052F0000346002B02D0012B06D00BE00099019849
:10530000FFF7DEFE034606E000990198FFF784FFF1
:10531000034600E00623184603B05DF804FB00BF17
:10532000F06B020000B585B0019000910198FFF785
:10533000AFFB0390019B5B69009A9A4202D9019BE3
:105340005B690093039B5A6C009B13445A1E039B9A
:105350005B6CB2FBF3F3184605B05DF804FB82B05A
:1053600001900091019B5A69009B934228BF13460C
:10537000184602B07047000000B589B001900023C4
:1053800007930198FFF772FB06900698FFF780FBE2
:105390000590059B93F83C3083F00103DBB2002BB2
:1053A00052D0059B93F83D30002B02D00623079383
:1053B0004AE0059B5B6B002B2BD00698FFF7C5FBE3
:1053C0000346002B40D00698FFF75EFC0490059B37
:1053D0005B6B19460698FFF7C2FF0390049B002BF6
:1053E00004D11C4940F27F3001F016FF059B0122D9
:1053F00083F83C200423039A04990198FFF72BFDBE
:105400000790079B002B1FD0059B002283F83C20B0
:105410001AE0059B1B78042B16D1059B9B6B002B78
:1054200010D1059B93F82C3019460198FFF7D2FC58
:105430000790079B002B07D006494FF4647001F0DA
:10544000EBFE01E006230793079B184609B05DF8C1
:1054500004FB00BFF06B020000B58DB0019000238B
:105460000B930198FFF702FB0A900A98FFF710FBD5
:105470000990099B93F8543083F00103DBB2002BB1
:1054800044D0099B93F85530002B02D006230B9390
:105490003CE0099B9B6C002B38D00A98FFF768FB17
:1054A0000346002B32D00A9BDA69099B9B7B9B0049
:1054B00013441B680893099B9B6C19460A98FFF7D5
:1054C00031FF07900A98FFF769FB0690069B002BB7
:1054D00004D1114940F2AF3001F09EFE099B1B6DD3
:1054E0000393079B0493069B0593099B012283F872
:1054F000542003AB19460898FFF7FEF90B900B9B5D
:10550000002B03D0099B002283F854200B9B1846E4
:105510000DB05DF804FB00BFF06B020000B589B070
:105520000190002307930198FFF7A0FA06900698D0
:10553000FFF7AEFA0590059B93F83C3083F001032A
:10554000DBB2002B2ED0059B5B6B002B2AD006987C
:10555000FFF70EFB0346002B24D00698FFF71EFB37
:105560000490059B5B6B19460698FFF7F8FE0390C5
:10557000049B002B04D10E4940F2D13001F04CFEC7
:10558000059B012283F83C200523039A0499019886
:10559000FFF7ADFC0790079B002B03D0059B002273
:1055A00083F83C20079B184609B05DF804FB00BF58
:1055B000F06B020000B58DB0019000230B930198B1
:1055C000FFF754FA0A900A98FFF762FA0990099BCC
:1055D00093F8543083F00103DBB2002B60D0099BB9
:1055E00093F85530002B02D006230B9358E0099B0B
:1055F0009B6C002B39D00A98FFF7A7FA0346002BC3
:105600004ED00A9BDA69099B9B7B9B0013441B6865
:105610000893099B9B6C19460A98FFF783FE079035
:105620000A98FFF731FB0690069B002B04D11F4917
:1056300040F2F53001F0F0FD099B1B6D0393079BD1
:105640000493069B0593099B012283F8542003AB26
:1056500019460898FFF782F90B900B9B002B1FD07F
:10566000099B002283F854201AE0099B1B78052B24
:1056700016D1099BDB6C002B10D1099B93F82C30C1
:1056800019460198FFF7A6FB0B900B9B002B07D048
:10569000064940F20D4001F0BFFD01E006230B93E7
:1056A0000B9B18460DB05DF804FB00BFF06B0200C9
:1056B00000B585B0039002910192019B0933184611
:1056C000FFF701F80346002B04D00398FFF774FCA2
:1056D000034619E0019BDB7B062B04D00398FFF700
:1056E0006BFC034610E0019B9B7B1A46029B1B6AE6
:1056F0009A4204D30398FFF75FFC034604E00021BD
:105700000398FFF767FB0346184605B05DF804FBF6
:1057100000B587B0039002910192019B103305936D
:10572000019BDB7B052B04D80398FFF745FC034660
:105730003FE0019B9B7B1A46029B1B6A9A4204D363
:105740000398FFF739FC034633E0019B0933184601
:10575000FEF7B9FF0346122B04D90398FFF72CFC80
:10576000034626E0019B09331846FEF7ACFF049080
:10577000049B002B05D100210398FFF72BFB034668
:1057800017E0019B58331222002118461FF01DFF1D
:10579000019BF02283F85820019B0B2283F85F20A5
:1057A000019B03F158010323049A0398FFF753FB6D
:1057B0000346184607B05DF804FB00B585B00390BA
:1057C000029101920398FFF7F7FB0346184605B0D4
:1057D0005DF804FB00B587B0039002910192019B34
:1057E000DB6C002B05D101210398FFF7F3FA034688
:1057F0003EE0019B9B6C002B04D10398FFF7DCFB80
:10580000034635E0019B5B7B5BB2002B04DB039816
:10581000FFF7D2FB03462BE00298FFF77FF9019BCD
:105820009A6C019BDB6C9A4207D9019BDA6C019B55
:105830009A64019B022283F82C20019BDA6C019B65
:105840009A63019B9A6C019B5A63019B002283F827
:105850003C20019B002283F854200398FFF7FCFDB5
:105860000590059B002B02D00398FFF7A5FB059B35
:10587000184607B05DF804FB10B588B0039002919C
:105880000192019B10330793019BDB7B052B04D80E
:105890000398FFF791FB034630E0029BDA69019B16
:1058A0009B7B9B0013441B6806930698FFF7A8F8A0
:1058B00003465B680593079B1B798DF81330079BA4
:1058C0005B781B0403F4F814079B02331846FEF7B9
:1058D000EAFE034623431A46019B1A65019B059A7B
:1058E0005A649DF81330059A02FB03F2019B9A64F7
:1058F000019A02990398FFF76DFF0346184608B016
:1059000010BD00B587B0039002910192019BDB6C42
:10591000002B05D101210398FFF75CFA03463EE016
:10592000019B9B6C002B04D10398FFF745FB0346BA
:1059300035E0019B5B7B5BB2002B04DA0398FFF739
:105940003BFB03462BE00298FFF7E8F8019B9A6CBB
:10595000019BDB6C9A4207D9019BDA6C019B9A642C
:10596000019B022283F82C20019BDA6C019B9A6335
:10597000019B9A6C019B5A63019B002283F83C2097
:10598000019B002283F854200398FFF7C7FD059080
:10599000059B002B02D00398FFF70EFB059B1846D2
:1059A00007B05DF804FB10B588B003900291019236
:1059B000019B10330793019BDB7B052B04D80398D5
:1059C000FFF7FAFA034630E0029BDA69019B9B7B02
:1059D0009B0013441B6806930698FFF711F80346D3
:1059E0005B680593079B1B798DF81330079B5B78E9
:1059F0001B0403F4F814079B02331846FEF753FE0A
:105A0000034623431A46019B1A65019B059A5A6473
:105A10009DF81330059A02FB03F2019B9A64019AE8
:105A200002990398FFF76DFF0346184608B010BDB2
:105A300000B589B0039002910192019B1033079346
:105A4000079B9B78002B04D00398FFF7B5FA034619
:105A50007CE0019B09331846FEF735FE0346242BF4
:105A600004D90398FFF7A8FA03466FE0019B0933B6
:105A70001846FEF728FE0690069B002B05D1002154
:105A80000398FFF7A7F9034660E0019B002283F823
:105A90005820019B802283F85920019B062283F81D
:105AA0005A20019B122283F85B20019B202283F85D
:105AB0005C20029BDA69019B9B7B9B0013441B6863
:105AC00005930023049304AB1A4601210598FEF7C1
:105AD00077FF049B002B1BD0019B03F16000049B0C
