:02000002F0000C
:10400000000004205D430F0045430F0047430F00AD
:1040100049430F004B430F004D430F0000000000C9
:104020000000000000000000000000004F430F00EF
:1040300051430F000000000053430F0055430F0091
:1040400039740F0057430F0057430F0057430F00B9
:1040500057430F0057430F0057430F0057430F00BC
:1040600057430F0057430F0057430F0057430F00AC
:1040700057430F0057430F0057430F0057430F009C
:10408000FD8F0F0057430F0057430F0057430F009A
:1040900057430F0057430F0057430F0057430F007C
:1040A00057430F0057430F0057430F0057430F006C
:1040B00057430F0057430F000000000000000000AE
:1040C00057430F0057430F0057430F0057430F004C
:1040D0008D8C0F0057430F0057430F003D830F0097
:1040E00057430F0057430F00FDBA0F0000000000B8
:1040F0000000000057430F000000000057430F006E
:1041000000000000000000000000000000000000AF
:10411000000000000000000000000000000000009F
:10412000000000000000000000000000000000008F
:10413000000000000000000000000000000000007F
:10414000000000000000000000000000000000006F
:10415000000000000000000000000000000000005F
:10416000000000000000000000000000000000004F
:10417000000000000000000000000000000000003F
:10418000000000000000000000000000000000002F
:10419000000000000000000000000000000000001F
:1041A000000000000000000000000000000000000F
:1041B00000000000000000000000000000000000FF
:1041C00000000000000000000000000000000000EF
:1041D00000000000000000000000000000000000DF
:1041E00000000000000000000000000000000000CF
:1041F00000000000000000000000000000000000BF
:10420000314932480A1A02D0072291438D4630497B
:1042100030480A1A06D00722914381F30988022206
:1042200082F314882C482D492D4A00F03CF82D4883
:104230002D492E4A00F037F82D482E492E4A00F01D
:1042400032F82E482E492F4A00F02DF82E482F49DB
:104250002F4A00F028F82F482F49304A00F023F861
:104260002F483049304A00F01EF8304830490022CB
:1042700000F024F82F483049002200F01FF82F4AA0
:1042800090471F481F49884205D00268043003B494
:10429000904703BCF7E700208646EC46002000214B
:1042A000274A9047FEE7884207D0521A05D0037884
:1042B00001300B700131013AF9D17047884202D0C8
:1042C00002700130FAE770470000042000F8032074
:1042D000000004200000042040C90F001C00002042
:1042E0005C000020B8430F00B8430F0088C30F00E4
:1042F00040C90F001C0000201C000020C0C30F009C
:10430000C0C30F00C0C30F00C0C30F00C0C30F0065
:10431000C0C30F00C0C30F00C0C30F0040C90F00CF
:1043200080C90F005C0000205C0000205C000020C1
:104330004C4000204C4000204C40002085430F00A2
:104340007D880F00FEE7FEE7FEE7FEE7FEE7FEE7FB
:10435000FEE7FEE7FEE7FEE700F002B8FFF7FCBF6E
:104360000F484FF00701884385460E4880470E48A6
:10437000016841F470010160BFF34F8FBFF36F8F8D
:10438000FFF73EBF09480A490A4A884207D0521A35
:1043900005D0037801300B700131013AF9D1704733
:1043A00000000420C1900F0088ED00E0ACC30F00B6
:0843B000080000201C000020A1
:1043B80000207047011F014802F0E1BC98C30F00BC
:1043C80013B5074C0A4601AB0146204602F09EFD94
:1043D800019A0448214602F041F802B010BD00BF1E
:1043E800FF180020C0C30F0001F032BA10B5044610
:1043F8001A4802F08DFC1A4B18481C6002F09FFC0A
:1044080048B3184B002140F603020330C3E90212F7
:1044180058601970144B154959601549C3E90212BF
:10442800144A1A61144A5A6102F0FEFD852800D028
:1044380090B9002002F056FE70B902F099FB0F48BF
:1044480001F006F840B90E4801F0A4F820B9BDE81B
:10445800104001F069B8032010BD00BF98C30F00D9
:10446800E40000208819002070190020C9430F00BB
:10447800BD430F001819002090C30F00E4C30F00BC
:10448800C0C30F00083810B5062820D8DFE800F0B0
:1044980008141B1F1F1F0400BDE8104001F05EB880
:1044A80003F064FC08B901F057F8094B1B6873B1B5
:1044B8000120BDE81040184701F062F8044B1B6862
:1044C8002BB10220F5E7BDE8104001F049B810BD56
:1044D800E400002003780BB901F0BAB9014A0421BD
:1044E80000F032BEF1430F00F8B5E9B9134E144C91
:1044F800144F3178124802F03DFD054660B9384640
:10450800D4E9011206F066F80F4802F018FC18B159
:104518000330C4E9010525700C480122314601F039
:10452800BFFF0028E5D0F8BD0229FCD1BDE8F8405E
:1045380002490648012201F0B3BF00BF301900202C
:10454800881900207019002098C30F00C0C30F00FD
:104558000023C0E902328B881A44B1F9063002619F
:104568001A44C0E9001142610888003818BF0120C8
:1045780070474268118838B50346002937D0148A35
:1045880002F1100141602CB9C2680168FFF7E0FF31
:10459800204638BD9078118900F03005302D14D1AF
:1045A800947C04F03004302C1BD190881969091AC6
:1045B80019610021908AB2F916200844196901444A
:1045C8001961114459610120E3E700F0F004202C3F
:1045D80007D150894143002DECD19868013098608B
:1045E800E8E700F0C000802808BF0421F3E7084688
:1045F800CFE770B5466804460D4663681A88AA4234
:1046080004D19B7803F00F03082B07D12046FFF74E
:10461800B0FF6368B342F0D1002070BD0120FCE711
:1046280043681A44426011B101399A4201D101200C
:10463800704713F8010B01F8010FF6E783682DE9BD
:10464800F3410446884623B90026304602B0BDE847
:10465800F081036801220DF10701984706460028FA
:10466800F2D0A3689DF80750013BA3609DF907307D
:10467800002B1ADA05F07F050727A368002BE3D083
:10468800236801220DF10701204698470028DBD056
:10469800A3689DF80720013BA36002F07F03BB409D
:1046A8001D43130607F1070702D4C8F80050CCE7EA
:1046B800232FE2D1C8E770B54568AA7802F00F0643
:1046C800082E86B003461FD103691C6800260CB962
:1046D80006B070BD236862689D68267329466846DF
:1046E800FFF736FF6368049304F10C030593AB7876
:1046F80003F0C003802B08BF231D684608BF04933E
:10470800FFF7D9FFA468E2E712F0C0011CD102F05C
:10471800300010280AD15A691170072EEC68186900
:1047280009D10146204600F017F8D1E79006F4D5E4
:104738005B691980CCE72A89214614B107F079FA18
:10474800C6E707F09FFAC3E78029C1D100690021B5
:1047580092060160BCD5EBE77FB50A46014668467C
:10476800FFF7F6FE30B16846FFF7A5FF6846FFF78A
:1047780000FFF7E707B05DF804FB000030B504461A
:1047880085B01546A9B90268114B9A4211D0102D6F
:1047980006D82A4669462046FFF7F0FF05B030BD27
:1047A800102269462046FFF7E9FF0028F6D0103DA1
:1047B800EDE7A368AB4201D20020EFE723682A4661
:1047C800204698470028F7D0A268521BA260E5E768
:1047D80029460F00F7B50E4601A907461546FFF70B
:1047E8002DFFA8B1019A0123D3184FF0000404D279
:1047F800B17801F0C001802901D1204608E0318953
:104808009942FAD329463846FFF7B8FF019BEC5482
:1048180003B0F0BD73B50D4601A906461446FFF76F
:104828000DFF98B1019AB2F5803F11D2AB7803F031
:10483800C003802B02F102010AD02B898B4207D3D7
:104848002146304621F8022BFFF798FF02B070BDD1
:104858000020FBE710B5034C82600022C0E900414C
:10486800C26010BD29460F002DE9F3410026044619
:104878000F46B0463546A3682BB3236801220DF1D5
:10488800070120469847F0B1A3689DF807C0013B8F
:104898000CF07F02C5F12001A360A5F1200302FA04
:1048A80003F322FA01F10B43AA401CF0800F46EAF9
:1048B800020643EA080805F1070502D1C7E90068BE
:1048C80002E0462DD7D1002002B0BDE8F08173B5D3
:1048D8000C4669461646FFF7C7FF68B12389082BBF
:1048E8000CD1DDE90045C6E90045DDE90023AB420E
:1048F80006BFA2420120002002B070BD042B04D1E3
:10490800009B33601C460025EFE7022B4FF00000A8
:1049180004D1009B33809CB20546E6E7012BEBD11E
:10492800009B337003F0FF04F6E737B50D46694680
:104938001446FFF799FF30B12A89082ADDE90031CA
:1049480003D1C4E9003103B030BD042A18464FEA48
:10495800E37108D123601A460B468B4206BF824298
:1049680001200020EFE7022A04D11BB223801AB2EB
:10497800D317F2E7012A03D15BB223705AB2F7E7E3
:104988000020E0E7F7B51F4600233B700D460B708B
:10499800136001A904461646FFF750FE30B9A36814
:1049A80013B901233B70002003B0F0BD019C002C1B
:1049B800F7D0E30804F0070433602C70F4E713B56C
:1049C800044605291FD8DFE801F0030F151E1E1C39
:1049D800012201A92046FFF7D1FE18B19DF9043044
:1049E800002BF5DB02B010BD082200212046FFF79E
:1049F800C5FEF7E701A9FFF721FE0028F2D0019ACA
:104A0800F3E70422F1E70020ECE773B50D4601A9AE
:104A18000446FFF713FE064618B90026304602B0D2
:104A280070BD94E80F0085E80F0001998A42F4D31D
:104A3800A960A3685B1AA360F0E700002DE9F043C2
:104A48005668B37813F0C00489B007468C461546FB
:104A580003D0402C67D000240CE003F00F025D491E
:104A680003F03003202B51F8228023D006D8E3B17D
:104A7800102B17D0204609B0BDE8F083302BF9D1B0
:104A88006B6931881980072A09D12146328928693A
:104A980007F0F8F86B682969D868FFF75DFE2A699E
:104AA80069683EE06B6901221A702A693146C0477D
:104AB8000446DFE7BCF1020FD5F8149024D1042A8C
:104AC80022D804A9FFF7A1FF04460028C3D0069BFB
:104AD8002BB16968B9F800304A899A4205D8059B14
:104AE8007B60069B002BC5D0B5E708892A6903FBC4
:104AF800002204A8C04728B1B9F800300133A9F84A
:104B08000030E4E70446EAE7B9F8003072899A42CF
:104B1800A1D931892A69581C03FB0122A9F8000090
:104B280031463846C3E7D2F81080464656F8043B6B
:104B380013B9FFF744FFBBE7022914D104A9FFF713
:104B480064FF002887D0D8F800306968324604A886
:104B58009847044600283FF47EAF069B002BF2D10D
:104B6800059B7B6086E7012925D005292BD00029E4
:104B78007FF471AF0C460DF1040901340B2C3FF49E
:104B88006AAF012249463846FFF7F8FD00283FF48E
:104B980062AF19F9013B002BEFDB0F4B049301AB1C
:104BA800CDE90534002307936968D8F80030324608
:104BB80004A898477CE7082201A9FFF7DFFD08242D
:104BC8000028EAD147E704220DEB0201FFF7D6FDE2
:104BD8000424F5E7F0C30F0029460F002DE9F04F34
:104BE80091B00446002604A8CDE90266FFF7B0FCA0
:104BF800A3683BBBDDE9053404A89D78FFF7B9FC41
:104C08000028F7D115F0300F03D1059B1B8803B19D
:104C18000134002C00F0A9806309002202A9934204
:104C280040F09C8010AA02EB830304F01F0453F8A1
:104C3800383CC4F120044FF0FF30E040C31A58421A
:104C480058410DE00DF1030301AA0DF102012046C0
:104C5800FFF798FE38B99DF80330002BCAD1002021
:104C680011B0BDE8F08F019904A8FFF7C2FC002835
:104C780050D1019BB3427DD3059D059A937803F0EB
:104C88000F03082B7FD004A8FFF773FC059B9D42F8
:104C9800F3D14FF0FF36019FB7426BD3089B9DF8C5
:104CA80002A0D4F808801D684FF00109A368002D00
:104CB8005DD098459CD12B68D3F800B0BBF1000FAC
:104CC80008D053463A4629462046D8470028C6D039
:104CD800AD68EBE7D3F808B0BBF800309F42F7D1D6
:104CE8006A6859460AA8FFF733FC6B680E9305F10A
:104CF8000C030F939BF8023003F0C003802B04BF12
:104D08002B1D0E930AAA85F80C9051462046FFF7F2
:104D180095FEDBE7059B9B7813F0300F0FD1069AC1
:104D28003F2A0CD8510910AB03EB810102F01F0296
:104D38000123934051F8382C134341F8383CE56877
:104D48002DB19DF80220019904AB2046A8479DF893
:104D5800021004AA2046FFF771FE10E051F8225015
:104D680001357FF47DAF013259E7012078E7984596
:104D78007FF43EAF9DF802102046FFF720FE002882
:104D88007FF436AF6BE7168885E737B50C460546DE
:104D9800114620460192FFF7DFFC019A214628467A
:104DA80003B0BDE83040FFF719BF70B586B0CE68D4
:104DB80001920C4602A90546FFF727FE68B1E06894
:104DC80058B1A378019A03F03003202B314602A88A
:104DD80005D1FFF7DAFF039B6B6006B070BDFFF7E4
:104DE800FDFEF8E7D3B50C466946FFF73DFD80B1F7
:104DF800DDE9001300274A0801F0010642EAC37200
:104E080056EA07014FEA53031CBFD243DB43C4E908
:104E1800002302B0D0BD37B50D4669461446FFF7EA
:104E2800E1FF68B12B89082B0CD1DDE90001C4E949
:104E38000001DDE900238B4206BF824201200020E9
:104E480003B030BD042B03D100982060C117F0E7F0
:104E5800022B04D1BDF90000208000B2F6E7012B37
:104E680004D19DF90000207040B2EFE70020E7E789
:104E780013B504220C460DEB0201FFF77FFC08B1C5
:104E8800019B236002B010BD1146FFF7F1BF13B5B7
:104E980008220C466946FFF771FC18B1DDE90023CA
:104EA800C4E9002302B010BD1146FFF7F0BF38B5C2
:104EB8002022044608300D4606F0BBFE2022A91821
:104EC80004F1280006F0B5FE002038BD2DE9F743AF
:104ED800DFF86C809946184B036004460E4640463E
:104EE8000121174601F0DCFE0546BFF35F8FF8B9D4
:104EF80000F0E6F80A9ACDF800903B4606F1080162
:104F0800204605F09BFC044600F0E8F8BFF35F8FED
:104F1800C8F8005044B1094948F2165248F24253C1
:104F28008C4214BF14461C46204603B0BDE8F083EB
:104F380048F20454F8E700BFDD55AABB8408F00026
:104F4800982900200E4B984214D00AD8B8B10D49C0
:104F580048F2165248F20153884214BF10461846C8
:104F68007047094B984208D0084948F2165248F24F
:104F78000353F1E748F20350704748F20250704774
:104F88000102F0000002F0000202F0000F02F0003F
:104F980008B5083005F0BCFCBDE80840FFF7D2BFF3
:104FA80013681F2B2DE9F34106460F46144620D9F6
:104FB800DFF84C800121404601F072FE0546BFF340
:104FC8005F8FC8B900F07CF8394606F1080005F093
:104FD8000BFD019000F082F8BFF35F8F0198C8F8CD
:104FE8000050FFF7AFFF08B92023236002B0BDE8E7
:104FF800F08148F21450F9E748F20450F6E700BF90
:10500800982900202DE9F04105460E46194801214E
:10501800144601F045FEBFF35F8F38BB00F050F82F
:10502800DFF854800835B4F5805F274628BF4FF471
:10503800805731463A46404606F0FBFD3A4641461F
:10504800284605F07FFCE41B3E4468B9002CEAD1F1
:1050580000F044F8BFF35F8F064B00222046BDE8FE
:10506800F0411A60FFF76EBF0446F1E748F20450BA
:10507800BDE8F0819829002098190020024B0020F3
:10508800C3F80005704700BF00A0025038B50A4BAE
:1050980000251D60BFF35F8F084C0123C4F800355D
:1050A80005F0D2FCC4F8005520B1052848F2035099
:1050B80018BF032038BD00BF9829002000A0025067
:1050C800044B0122C3F80025034B4FF480625A6059
:1050D800704700BF00A0025000E100E0064B00222C
:1050E800C3F80025054B4FF48062C3F88420BFF352
:1050F8004F8FBFF36F8F704700A0025000E100E0B0
:105108004B1C30B5DB00044612F003009BB20DD1F6
:10511800074D2A601A44074B1A60074B1870074B53
:105128001870074B1C80074B198030BD0720FCE71F
:10513800A4290020A02900209C290020AC290020B7
:10514800A8290020AA2900202DE9F047274F3B88ED
:105158008B4206460D46904644D3002001F080FD60
:10516800234B24481978244B00881C78E2B28442E7
:1051780038BF0132C9B234BFD2B2002291422BD01B
:105188001C781A78D1B2904286BF0131C9B2002189
:105198001970002001F066FD4FF6FF739C4223D082
:1051A800DFF85C90D9F800204FEAC40A42F834804E
:1051B80002EBC4039EB195B1104B38881B682A4690
:1051C80004FB0030314606F034FDD9F80030534472
:1051D80000209D80BDE8F0874FF6FF74D9E70020D6
:1051E8009880F7E70920F5E70420F3E7A8290020CD
:1051F800AC290020AA2900209C290020A0290020F1
:10520800A4290020F8B5114C114D264622782B7898
:105218009A4200D1F8BD0F480F4A237812680788D0
:105228000E4802EBC301006852F83320898803FB5B
:10523800070090470A4922780988D3B2914286BF6D
:105248000133DBB200233370E0E700BFAC29002054
:105258009C290020A8290020A4290020A02900209A
:10526800AA29002043681B6818470000024B5B68A6
:1052780003B11847704700BFB0290020020600F0AC
:105288000F034CBF02480348DB001844704700BFB7
:10529800BC290020042A002008B5FFF7EFFF0160B1
:1052A80009B14B681968416008BD0000024B01460E
:1052B800D3E90002104700BF042A00200378052B19
:1052C8000CD1084AD2F88434D2F8802412F0FF0FA7
:1052D80004D1054ADBB2052B08BF1046034B1B68F7
:1052E800184700BF0070024050C40F00B0290020CA
:1052F800012805D0022805D030B90448FFF7DEBFE1
:105308000348FBE70348F9E7704700BF44C40F00B0
:1053180048C40F004CC40F00FFF7D0BF0148FFF787
:10532800CDBF00BF54C40F0038B5831EDBB2062BB7
:1053380098BF1A4A1A4D98BFD25C2B78A3F1020382
:10534800DBB288BF0022062B9ABF1449CB5C00232E
:105358009342044603D0B2B1124801F085FE022CF4
:1053680014D0A4F10800424242412B78022B0FD0FE
:10537800A3F108014B424B41934202D052B102F0D3
:1053880039FD2C7038BD01F099FEE8E70122ECE701
:105398000123F1E702F024FDF3E700BF38C40F0052
:1053A800552A0020200000202DE9F04F87B0002664
:1053B8000546884691461F4602966B6800225C683F
:1053C8002946012302A8A047044638B98DF80600EB
:1053D80004908246564503D8052028E00136ECE7BC
:1053E8006B680DF10602D3F804B02946012304A81E
:1053F800D8476B680DF10702D3F804B0294601239A
:1054080004A8D8479DF8073043459DF8063013D1C6
:105418004C450FD1109A13603B7087F801806A6879
:10542800023B54682946BA1C04A8A047002007B0CC
:10543800BDE8F08F0134E4B26A68023BD2F804B0E8
:105448002946002204A8D8479DF806309A44C1E7A7
:105458002DE9F74305462B4802F0E2FC04460028F4
:105468004CD1294B1870294B1860294B01461860FC
:105478004822284806F006FC27484822214606F01C
:1054880001FC264B95B9264A1D72C3E90025002068
:1054980001F028FE18B1852801D003F0E8F9214F62
:1054A800002697F8089007F1090814E095E8070026
:1054B80083E807000028EAD1194A1A60E7E7A278CA
:1054C80023443946985CFFF7E7FE01356278EBB272
:1054D8009A42F4D80136F4B2A14504D904EB440445
:1054E80044440025F2E70B230E488DF8043001A947
:1054F800FFF7B8FE044608B102F070FB204603B07F
:10550800BDE8F08321530F00552A00204C2A0020C3
:10551800502A0020BC290020042A0020B02900209D
:1055280059580F0070C40F0010B502F017FC10B9DD
:105538000823184610BD02F019FC04460028F7D1CC
:10554800044801F0EAFD03460028F2D003F08FF981
:105558002346EEE740C40F0002F04ABB02F078BFD2
:105568004FF08043D3F83824920702D50348FFF759
:10557800A5BED3F83824D107F4D4704755C40F001A
:1055880007B5822301A88DF80430FFF797FE03B012
:105598005DF804FB2DE9F74300F1090190F8089044
:1055A800054600260F46F3B24B452AD291F80180F2
:1055B8000024E3B298450AD98B780A190134D05CE3
:1055C800FFF75CFE0368002BF3D0112028E00136BA
:1055D8000331E8E7A37823442946985CFFF75CFE8B
:1055E80001366378F2B29342F4D808F101082B7AB5
:1055F8005FFA88F4A34216D904EB44043C4400261D
:10560800EFE74FF00008F2E713681A68002AFBD1A9
:105618001D6001A90B2328468DF80430FFF722FEF0
:1056280003B0BDE8F083014BEFE700BF4C2A002030
:10563800024B1878003818BF01207047542A002000
:10564800030710B5044604D402F01EFD204602F0FC
:10565800C5FF2046BDE8104002F06CBF02F038BF1D
:10566800014B1868704700BF4C2A0020F0B50A4B60
:105678000246186878B1057A0023861DDCB2A54277
:1056880001D80368F5E7013303EB4307F75D974259
:10569800F4D101B10C70F0BD4C2A00201146FFF77F
:1056A800E1BD08B500F00F03082B07D8FFF7E6FDAA
:1056B800006818B1BDE80840FFF7D4BD102008BD48
:1056C80038B5054B05461C6804B938BD294620463F
:1056D800FFF7C8FD2368F6E74C2A002038B5074BCA
:1056E80005461C680CB9062038BD29462046FFF738
:1056F800B9FD0628F8D12368F3E700BF4C2A00203B
:1057080013B50446019102F0D1FB50B1064B1B784A
:10571800022B06D10199204602B0BDE8104002F0E4
:10572800D5BB082002B010BD552A002013B5044689
:10573800019102F0BBFB50B1064B1B78022B06D13E
:105748000199204602B0BDE8104002F033BC0820A1
:1057580002B010BD552A0020F8B543689B6805467D
:105768000C46164613B92EB1072002E098470628C2
:10577800F9D0F8BD2B7AA34213D9093504EB4404B8
:105788002C446778F3B29F4201D80020F1E7627891
:105798009A4208D9A219A378D05CFFF751FF0136C5
:1057A800F0E77378FFDE00231B78FBE74368DB68CC
:1057B80070B505460C4603B198472B7AA34213D916
:1057C800093504EB44042C4400256678EBB29E426C
:1057D80000D870BD62789A4209D96219A378D05C62
:1057E80002F076FE0135F1E700235B78FFDE002347
:1057F8001B78FBE743681B6903B1184718467047D5
:1058080070B5084B1C6804B970BD267A0025E9B24A
:105818008E4201D82368F5E700222046FFF79CFF57
:105828000135F4E74C2A002070B5084B1C6804B910
:1058380070BD267A0025E9B28E4201D82368F5E7C3
:105848002046FFF7B3FF0135F5E700BF4C2A0020DB
:1058580038B503780F2B044610D9A3F1800283F0E2
:105868008003052B00D938BD052AFCD8DFE812F0E3
:1058780067002C00490073007E00E0000F2BF2D86F
:1058880001A252F823F000BF97590F00C7590F0023
:10589800275A0F00EB590F00095A0F00395A0F0009
:1058A8004B5A0F006F580F00755A0F00795A0F00A6
:1058B8007D5A0F006F580F006F580F006F580F0078
:1058C8006F580F00435A0F006B48FFF7EFFC6A4808
:1058D800FFF7F6FE0D20FFF7C9FCFFF7A5FF00F064
:1058E800D0FE664B1B6853B9654B187A00F001006F
:1058F80002F010FA0120BDE83840FFF715BD01207D
:10590800F4E7FFF791FF02F081FD0020FFF70CFD9F
:105918005C48FFF7D5FE5B48FFF7C8FC0E20FFF791
:10592800A5FC594B1B78023BDBB2062B9BD8574A88
:10593800D35C002B97D0BDE8384001F0BFBB524B79
:105948001B78062B05D003F0FD03052B8BD1022015
:10595800D1E70820CFE74C4B1B78032B83D102F00B
:1059680091FD00283FF47FAF0420C4E7464B1B7825
:10597800032B05D102F086FD10B10420FFF7D4FCFB
:1059880002F0FEF900283FF46EAF0620B3E73E4B65
:105998001B78032B01D0082B02D13D48FFF758FF95
:1059A8000020FFF763FC354B1D68002D3FF45BAF0B
:1059B80028462146FFF756FC2B685D68F5E7FFF798
:1059C80033FF00F055FE0220FFF7AEFC0120FFF781
:1059D8004DFC2046FFF76AFC2046BDE83840FFF73B
:1059E8006FBE294B1B78082B06D10220FFF79CFCC1
:1059F80002F00AFA0320EAE70520FFF795FCF9E729
:105A08000320FFF733FC2348FFF750FC2148FFF73A
:105A180057FE1D4B1B78062B99D107206BE70320F7
:105A2800FFF782FC0220FFF721FC2046FFF748FE23
:105A38002046BDE83840FFF739BC0F20FFF716FCB9
:105A4800CAE78078FFF71AFC214643680068984740
:105A580000283FF408AFA07802073FF404AF03071B
:105A68003FF501AFBDE8384002F0E8BA0820E5E7A5
:105A78000920E3E70A20E1E756C40F00502A002076
:105A8800B029002057C40F00552A002038C40F0041
:105A980058C40F0059C40F00C36903B118477047B1
:105AA80003680022C3E91E22C3E920221A845A622D
:105AB800DA6203F134025A677047CA699A4210B52C
:105AC80043600CD38C690460086F18440867D01AC7
:105AD8001C44C86100388C6118BF012010BD01F159
:105AE800280202608B670020F8E70000F0B5046820
:105AF8000D7A002C00F08780A4F213347C2C00F27D
:105B080022837C2C00F21F83DFE814F085008F00CD
:105B18009D00A900B500C100CD00D9001D031D03DB
:105B28001D031D031D031D03EF00FB001D031D03C3
:105B38001D031D031801240132011D031D031D034C
:105B4800450151017F011D031D031D031D0367014D
:105B580073017F011D031D031D031D031D031D0389
:105B68008B011D031D031D031D039F01AB01B7011D
:105B7800C301CF011D031D03DB01E701F301FF0191
:105B88000B021D031D0317022302340240021D03EA
:105B98001D034C025802640270027C021D031D039F
:105BA8001D031D031D031D031D031D031D031D03ED
:105BB8001D031D031D031D031D031D031D031D03DD
:105BC8001D039B02A7021D031D031D03C0021D0325
:105BD8001D031D031D03DD021D031D031D031D03FE
:105BE800DD021D031D031D031D031D031D03E90223
:105BF800F5021D031D031D031D0313031D031D03D0
:105C08001D031D0313030824047123B940F2133341
:105C180003600120F0BD0AB1047914700B24012B34
:105C280004710ED84FF44573F2E700240AB10679DF
:105C3800165501340E7D06719C4205D340F215338A
:105C4800E6E70124F2E700240AB106791655013483
:105C580002269C42067103D340F21633D8E700248B
:105C68000AB106791655013402269C42067103D3FF
:105C780040F21733CCE700240AB1067916550134EF
:105C880002269C42067103D34FF44673C0E70024F2
:105C98000AB10679165501344E7E06719C4203D32B
:105CA80040F21933B4E700240AB1067916550134D5
:105CB80000269C42067103D340F21A33A8E7002459
:105CC8000AB106791655A94E002701343770A74E38
:105CD8003678AE4202D340F29A3399E70926A342B6
:105CE800067103D840F2213392E700240AB10679FD
:105CF8001655013404269C42067103D340F2223320
:105D080086E700240AB106791655984E0F7A367838
:105D1800DFF85CC2B74204F1010440F2188201F1D5
:105D2800090706EB460607EB060E9C42BE5DCCF85B
:105D380000E0067103D340F2273369E700240AB173
:105D480006791655013400269C42067103D34FF498
:105D58004A735DE700240AB106791655844E366801
:105D68000134767806719C4203D340F229334FE719
:105D780000240AB1067916557D4E0F7D36683678AF
:105D8800B74204F101041ED102269C42067103D3D6
:105D980040F22D333CE700240AB106791655013448
:105DA80002269C42067103D340F22E3330E70024CA
:105DB8000AB10679165501344E7E06719C4225D3E8
:105DC80040F22F3324E78F7DB74223D10A269C4225
:105DD800067103D34FF44D731AE700240AB106790C
:105DE8001655013400269C42067103D340F2353320
:105DF8000EE700240AB106791655013400269C42A4
:105E0800067103D340F2363302E700240AB106795B
:105E1800165501340026A342067103D840F23D33DB
:105E2800F6E600240AB106791655514E0F7D3668FC
:105E38003678B74204F1010440F0E98005269C4217
:105E4800067103D340F24233E2E600240AB1067930
:105E58001655013424269C42067103D340F243337D
:105E6800D6E600240AB106791655013400269C426C
:105E7800067103D34FF45173CAE600240AB10679B8
:105E88001655013410269C42067103D340F245335F
:105E9800BEE600240AB106791655013401269C4253
:105EA800067103D340F24633B2E600240AB10679FC
:105EB8001655013405269C42067103D340F2493336
:105EC800A6E600240AB106791655013424269C4218
:105ED800067103D340F24A339AE600240AB10679E0
:105EE8001655013401269C42067103D340F24B3308
:105EF8008EE600240AB106791655013403269C4221
:105F0800067103D34FF4537382E600240AB106796D
:105F1800165501348E7D06719C4203D340F24D33F1
:105F280076E600240AB106791655013404269C4207
:105F3800067103D34FF454736AE600240AB1067954
:105F48001655013424269C42067103D340F251337E
:105F58005EE600240AB106791655013402269C42F1
:105F6800067108D340F2523352E600BF572A002088
:105F78005C2A002000240AB106791655013402264D
:105F88009C42067103D340F2533341E600240AB120
:105F980006791655013405269C42067103D340F252
:105FA800563335E600240AB10679165501342426FD
:105FB8009C42067103D340F2573329E600240AB104
:105FC80006791655013406269C42067103D34FF410
:105FD80056731DE600240AB10679165501340E7D64
:105FE80006719C4203D340F2593311E600240AB1EA
:105FF8000679165501348E7D06719C4203D340F212
:106008005A3305E600240AB1067916550134534E71
:1060180036687778524E3770524E00273770514E97
:1060280037784F4E3678B74204D34F4F3E78013613
:106038003E704CE60726A342067103D840F26E3341
:10604800E6E500240AB106791655013405269C4276
:10605800067103D340F26F33DAE500240AB10679FA
:1060680016553E4E3F4F36683F7896F801C0BC45FE
:1060780004F1010470D996F802C03E449C4216F817
:106088000C60067103D340F27333C1E500240AB1F2
:1060980006791655314E0F7D36683678B74204F1C9
:1060A800010406D103269C4206710DD34FF45E739A
:1060B800AEE58F7DB7420BD102269C42067103D311
:1060C80040F27D33A4E500240AB10679165501345F
:1060D8004026A342067103D84FF4617398E5002463
:1060E8000AB106791655013400269C42067103D37D
:1060F80040F285338CE500240AB106791655174E0F
:106108000F7D36683678B74204F1010407D10E6A6C
:106118009C42367806710DD340F28A3378E58F7D3C
:10612800B7420BD100269C42067103D340F28F334D
:106138006EE500240AB1067916550134094F3E78F8
:1061480001363E706BE700230360184662E50023C2
:10615800CCF800301B78FFDE0023FBE75C2A002028
:10616800562A0020582A0020572A002010B5044635
:1061780058B90868037B202B09D100F10E010722CA
:10618800183005F056FD204610BD0320FCE7062018
:10619800FAE7037A012B08D9427B012A00F10C03A4
:1061A80006D9827B13445878704700235B78FFDE5A
:1061B80000231B78FBE700002DE9F0470B7888B037
:1061C80005460E460E2B1AD8DFE813F05C0037019F
:1061D8005C005C0019000F00A200190019003401CE
:1061E80019005C005C005C005C004A78D1094FEA49
:1061F800521330D013F0030303D0012B21D006240F
:106208001BE002F01F02012AF9D1B478062CF6D15E
:1062180005A8039300F0A4FC03AB0093F27831794E
:10622800034607462846FFF7BFF8052805D0039A16
:106238003946701C00F040FA0446204608B0BDE814
:10624800F087B378212BDAD1B6F80720072AD6D100
:1062580001681831EDE7012BD1D1B3780768202BFD
:1062680012D0222BCBD1B6F80730002BC7D197F824
:106278002020B6F803303B8402F0010203F001014C
:106288008A4220D10024D8E7B6F80730072BB6D1C8
:106298004FF4E462BA8100200E37CDE90573079008
:1062A80000F0DEFC05A90020FFF72AFA044630B901
:1062B800684B03A9CDE9033500F0ECF9044600204A
:1062C80000F0D0FCB9E78CB2C1F10301C9B2FFF705
:1062D800E3FB002CD6D12B7A012B40F2B4806B7BE8
:1062E80005F10C02002B00F0B080AB7BD05C01F014
:1062F800E3FF2846FFF74DFF01F0DEFF07F1340307
:10630800C7E91E44C7E920447C62FC627B6794E7C6
:10631800037A002B00F09B80837A00F10901002B9F
:1063280000F09380C27AB3788A5C9A42AAD01B069E
:10633800F77809D527B1032F14BF032400247CE77D
:106348000121FFF7A9FB9DE707F0FD03012B99D079
:10635800002F76D10668FFF71CFF3F4BB46A059300
:1063680006F10C0381460693C4B9F36FB467C6E916
:106378001F43F36A63B1D6E90B0106F1240383E8EE
:106388000300F46205A94846FFF7D0F9044600E087
:10639800746200212846FFF77FFB4EE7D6F884A0F9
:1063A800706A544528BF544606F1340822464146CF
:1063B80005F03FFCF36F2344C6E91F73AAEB0403FF
:1063C800B367F36A444474672BB306F1240406F1F7
:1063D8002C0898E8030084E80300B36F706AF7623A
:1063E8001BB9736A002BCDD116E0B26A716F9A425D
:1063F80014D805F01EFCB36AB26FC6F88030D21A02
:10640800B267726F1A44726700212846FFF744FB8F
:10641800F36A002BDDD173620024BAE71A4605F04F
:1064280008FCB26FB36AF2679B1AB362736A1344CB
:106438007362D6E70321FFF72FFB2846FFF730FBEF
:1064480020E70324F9E66378FFDE1B78FCE75B7836
:10645800FAE700BF75610F00C35A0F001FB5036844
:106468001B8CDC0714D5037A012B13D9437B00F16D
:106478000C0493B1837BE05C9306CDE901120CBF59
:106488000123002301A90393FFF73AF904B010BDD3
:106498000820FBE700235B78FFDE1B78FCE70000A1
:1064A8002DE9F3410468238CDB0780460F46164626
:1064B80046D5002000F0D4FB656A002D38D1A16FC5
:1064C800B14213D3616F3246384605F0B2FBA36F71
:1064D800C4F880609B1BA367636F33446367002025
:1064E80000F0C0FB284602B0BDE8F081C4E9097697
:1064F8004046FFF74EFE134B009304F10C0306468B
:10650800019369B10A463846616F05F092FBA36FA3
:10651800A26AD21AA262626AC4E91E531A4462626B
:1065280069463046FFF702F9051E08BF9225D6E7EF
:10653800E36A1BB9C4E90B769225D0E71125CEE7AB
:106548000825CFE7C35A0F00002070472DE9F04F08
:106558002DED028B4B6885B080460C4601926BB9D5
:106568000B681B681B684BB98D683DB9C0E90055BD
:10657800284605B0BDEC028BBDE8F08F01F05AFD4E
:10658800019BE7689F4228BF1F4604F110034FF0A4
:10659800000A08EE103A8146564601254FB3A36813
:1065A8006168BB429B4628BFBB4629B35A4609EBE4
:1065B800060005F03EFB00236360A268E368A2EBD7
:1065C8000B02A3EB0B03A260E360A7EB0B075E448F
:1065D8000ABBBAF1000F03D0226812681268226061
:1065E800DBB12368DBB963601EB1019BB34288BF8E
:1065F8000025C8E90096BBE7002BDED021684B6870
:1066080018EE100AD3F804A009EB06025B46D0473F
:106618004FF0010AD1E7002BC0D10025BEE70023C7
:10662800029321684B680022D3F804B002A8012322
:10663800D84708B92061B1E7A3680133A360F0E740
:10664800084B1A7882420CD0052818BF064A1870E1
:1066580018BF137805481CBF23F002031370FFF717
:10666800F7B870476C2A0020882A002080C40F00E1
:1066780008B50020FEF7E4FFBDE808408020FEF7DB
:10668800DFBF08B50020FEF7E9FFBDE8084080201D
:10669800FEF7E4BF38B505460C4601F071FDA84287
:1066A80005BFD4E90001034B1020C3E9000108BF6E
:1066B800002038BD8C2A00207FB5C38893421E462F
:1066C80028BF164693420D46144620D9802001F073
:1066D800E7FBB4FBF0F202FB1040B0FA80F040098F
:1066E80003900020CDE9015600F0BAFA01A98020F4
:1066F800FFF706F8044620B906498020FFF7CAFFCD
:106708000446002000F0AEFA204604B070BD002018
:10671800E6E700BFB4C40F002DE9F04F0B780E2B4D
:1067280089B00D4613D8A3B1013B0D2B11D8DFE872
:1067380013F012001A00160010002A00F5011000CC
:106748001000100010001A00DF01E301F301852B8F
:1067580013D00624DCE10320FFF772FFF9E7B14804
:1067680000F0D0FA08B90024D2E1AF4B01221A6038
:10677800BFF36F8FBFF34F8FF5E7AC4B1B78032B3D
:10678800E7D10420E8E70523A94D8DF814300DF171
:10679800150001F089FC00232B609DF8153003F0EB
:1067A8001F07032F00F25D81DFE817F00400F600F1
:1067B80052013E0013F0600FC3F3411834D1DB09D6
:1067C8009DF8161000F0A280062916D0082900F0BE
:1067D8008F8049BB974C0222204605F053FA237854
:1067E80043F001022270944A1278920744BF43F0A2
:1067F8000303237002228F490EE09DF81830022B04
:1068080016D0032B64D0012B0ED1BDF81B30002B02
:1068180000F06B81894912220DF11500FFF74CFF3A
:106828000446062C40F0258105A8FEF757FFF7E03F
:10683800BDF81B60002E00F05881092E28BF0926DC
:10684800FEF70EFF4FF00909044654BB794C7C490A
:106858003246204605F0EDF92771A4F80290FEF7BC
:10686800E7FE18B1E37943F02003E371FEF7F8FE81
:10687800744BC3E900049E60BDF81B20DA60002059
:1068880000F0EEF970498020FEF750FF044620B969
:106898006E498020FFF7FEFE0446002000F0E2F972
:1068A800BFE7CDF80C804FF0000A63680022D3F8E8
:1068B80004B02146012303A8D84730B9237A1F44DE
:1068C8002368D1441C68FFB2BFE70AF1010AECE76C
:1068D800BDF81B30002B00F00881BDF819109DF899
:1068E800170000F08DF9014600289DD0027893E743
:1068F8004E4A1278052A03D14E4A137001227AE7CC
:10690800042A91D14B4B83F80080F7E703290FD075
:1069180009292BD0012987D1BDF81730012B83D144
:10692800FEF786FE60B1444A137823F002030FE0B5
:10693800BDF81730012B7FF477AFFEF779FE18B951
:106948000F2401F013FCE3E03B4A137843F0020301
:1069580013702B68002B00F0C88001F011FC04466E
:1069680000287FF400AF01F0C5FBD1E02F4B1B7866
:10697800043B012B01D90824E3E79DF817302BB914
:10698800FEF752FF0420FFF75BFEE2E7012B40D140
:10699800FEF736FF0520F6E79DF8190003A9FEF774
:1069A80065FE064608B91024CBE79DF80C1005AA29
:1069B800FEF774FE062804465BD19DF8152012F0F8
:1069C800600FBED1194B9DF80C1018789DF8163041
:1069D800D20916D07BB10A2BB3D10528CBD13046CA
:1069E8000192FEF707FF1349019A08700DF115008F
:1069F800FFF762FE14E00528BDD10E490B80022284
:106A0800F4E70B2B9DD10528B5D1BDF81730FF2B26
:106A180001D9072495E79DF817203046FEF79CFE1C
:106A2800044626E0942A00205C7002406C2A00206C
:106A38008C2A0020982A0020882A0020A0C40F0051
:106A480081C40F00702A0020BCC40F00B4C40F001A
:106A58009DF81900030706D19DF8153013F0600F53
:106A68000BD006246DE705A9FEF71BFE0628044691
:106A7800F2D0002C3FF46DAF63E79DF81620354B3C
:106A88009DF819401B78012A1DD0032A0CD0002A32
:106A9800E7D1052B02D027077FF46DAF204601F020
:106AA800D9FA2D490880AAE72607DAD4BDF81720B5
:106AB800002AD6D12007D4D0052B7FF45CAF20461E
:106AC80001F0BCFA45E72107CBD4BDF81720002A0E
:106AD800C7D12207C5D0052B7FF44DAF204601F062
:106AE800D3FA204601F07AFD33E701F035FB3AE6A8
:106AF8000020FFF7A5FD36E64FF08043D3F8384471
:106B080014F0010401D00220F3E70120FFF798FDFB
:106B1800204609B0BDE8F08F0120EAE7C8780328CD
:106B28003FF417AE0D4E33688BB1002271683260A6
:106B38009847044600287FF404AF336823B1AB7844
:106B4800002B7FF410AE0EE701F006FBE0E70E2401
:106B5800F7E600BF6C2A0020982A00208C2A002023
:106B680008B1402303600148704700BF982A0020FD
:106B780070B54FF0805286B0D2F8A830D2F8A42071
:106B880000926FEA83436FEA93430B4A0B4E9BB222
:106B98000D2102A805F028F802AD002402A805F08E
:106BA800A4F8844201D306B070BD15F8013B06F87D
:106BB800013B0134F2E700BFC4C40F00D82A00200B
:106BC80010B50E4B53F8204023780BB9A01C10BD0C
:106BD8000020FFF7C5FF013C00235A1CA15C39B90E
:106BE800DBB201335B00DBB243F440730380EEE7B2
:106BF800D3B220F813101346EFE700BF1CC50F00EF
:106C0800034608B9FFF7DCBF012807D0022805D0E2
:106C1800032803D0042801D0052809D1054800EB32
:106C28004303587820B1044B53F82030002BE9D1A6
:106C38000020704734C50F001CC50F0072B6024A09
:106C48001368013313607047E82A0020034A136869
:106C5800013B136003B962B6704700BFE82A002001
:106C6800FFF7ECBFFFF7F2BF30B53AB11368DB436B
:106C78000A4D0144814204D1D84330BD4FF0FF335F
:106C8800F6E710F8012B5340082213F0010418BF4F
:106C98002C46013A84EA5303F7D1EBE72083B8ED99
:106CA80010B5034653E8000F0A4643E8002494F061
:106CB800000FF7D110BD10B5034653E8000F40EAA6
:106CC800010243E8002494F0000FF6D110BD10B57E
:106CD800034653E8000F00EA010243E8002494F059
:106CE800000FF6D110BD10B5034653E8002F02EA95
:106CF800010043E8000494F0000FF6D110BD012113
:106D0800FFF7D9BF0021FFF7E2BF0021FFF7EBBF74
:106D180010B590B1D0E9012301689B1ADBB20A6073
:106D2800013BDBB2FF2B026802D10020107110BDBD
:106D380011684C1C14600B70F2E70E20F7E738B5A9
:106D480004460020FFF78CFF2268636811689942A7
:106D580013D9481E106011F8015CE368218A01FB11
:106D68000535A36811791B1ADBB2994200D2137159
:106D78000020FFF777FF284638BD0025F8E738B52B
:106D8800054600200C46FFF76BFF2A681368591C5C
:106D98001160E968641A298AB4FBF1F41C70BDE833
:106DA80038400020FFF75EBF0B68016011461847A6
:106DB80010B40468E468A4465DF8044B604710B456
:106DC80004682469A4465DF8044B604770B550B95F
:106DD8000E4D0F4C0026641B1423B4FBF3F4B4428D
:106DE80008D1002010E00368002BF1D0BDE8704006
:106DF800DB6918472B6813B901361435EFE7DB69EF
:106E0800284698470028F7D070BD00BF080000202A
:106E18001C000020014B43600020704740C50F0054
:106E28000846704700207047024B1868003818BFA2
:106E380001207047EC2A002008B50248FFF765FFDB
:106E4800002008BDEC2A002008B510461A4604F0B8
:106E5800F0FE002008BD00002DE9F043814687B010
:106E680014480E4615469846FFF749FF0446F0B900
:106E78000746BD4215D10F48FFF747FFD9F808303C
:106E88005BB102228DF800200022CDE90126CDE970
:106E98000325CDF8148068469847204607B0BDE81A
:106EA800F08306EB073000F04DF90137E1E71124D4
:106EB800F3E700BFEC2A00202DE9F041804686B0B8
:106EC80011480F4616461D46FFF719FF0446C8B974
:106ED800AA083146384600F063F90B48FFF715FF5A
:106EE800D8F8083053B101228DF800200C9A059289
:106EF800CDE90147CDE9036568469847204606B0C5
:106F0800BDE8F0811124F9E7EC2A0020F0B578B348
:106F180071B36BB300241C600A44DB274FF0DC0C10
:106F28004FF0DD0E1C688A4204F1010500EB0406EF
:106F380004D11D60C02333700020F0BD0E78C02E30
:106F480005D0DB2E0CD01D600D78055506E01D60C0
:106F580007551C68651C1D6000F804C00131E1E795
:106F68001D6006551C68651C1D6000F804E0F5E707
:106F78000E20E2E710B580B3D0E902239A422ED062
:106F88000378012B0FD0022B21D053B9C02928D068
:106F9800DB2902D10123037003E04368541C846099
:106FA8009954112006E0DC2905D0DD290AD00223F6
:106FB80003700B2010BD511C43688160C021995497
:106FC8000023E8E7511C81604368DB21F7E7C0290B
:106FD800E7D1002303708360E3E70E20EAE704208B
:106FE800E8E71846E6E7000038B5074C051E04F147
:106FF800080318BF1C4623682BB11A6822605B6817
:1070080028469847F7E738BDF82A002020B9054BED
:1070180001225A70FFF7E8BF012802D1014A907097
:10702800F8E77047F02A002038B50C4C23789BB954
:107038000B486360A3602361E36000F0E7F805464E
:1070480000F0F0F801232370064BD3F800340BB19D
:107058000123A370284638BD8525F5E7F02A0020CE
:1070680015700F000000014038B5134C63780546D1
:1070780003F0FF0073B115B16B680020984700203A
:10708800FFF7EEFD6368013363600020BDE8384018
:10709800FFF7E8BDFFF7E4FD25B1A26813463BB949
:1070A8002A60A5606368002BECD100F0D1F8E9E70D
:1070B8009D42F7D01B68F2E7F02A002038B5084C4B
:1070C8000020FFF7CDFD6368013B6360656815B973
:1070D80000F0CAF86570BDE838400020FFF7C2BD6F
:1070E800F02A002010B5074C23784BB9064B00282E
:1070F80008BF184600F010F908B90123237010BD25
:107108008520FCE7042B00206CC50F0008B500F0B3
:1071180032F9BDE8084000F035B907B50190FFF72E
:10712800F5FF019800F01AF900F01EF9002003B0ED
:107138005DF804FB024AD2F80034002BFBD07047FC
:1071480000E001400A4908B50223C1F80435BFF33D
:107158006F8FBFF34F8FC1F80805FFF7EBFF0023D0
:10716800C1F80435BFF36F8FBFF34F8F08BD00BF61
:1071780000E0014010B5094C0123C4F80435BFF301
:107188006F8FBFF34F8F0160FFF7D4FF0023C4F860
:107198000435BFF36F8FBFF34F8F10BD00E0014080
:1071A8000E4B10B50124C3F80445BFF36F8FBFF32E
:1071B8004F8F01EB8204401AA14208D1074B0022ED
:1071C800C3F80425BFF36F8FBFF34F8F10BD43186B
:1071D80051F8042B1A60FFF7ADFFEDE700E001401E
:1071E80010B5034653E8000F00EA010243E8002403
:1071F80094F0000FF6D110BD00F18040002382B05A
:10720800036003680193019B02B07047044A137935
:1072180023B9012110609180184670478520704776
:10722800082B0020084B1A68D20704D4C02283F820
:10723800002301221A604FF080420123C2F818355A
:10724800024A1370704700BF00E100E0102B0020D5
:1072580008B54FF48070FFF7CFFF4FF0804301224D
:10726800C3F804231A6008BD4FF08042012108B515
:107278004FF48070C2F80813FFF7BEFF064B196081
:10728800D2F80C3403F00113B3F1011FF8D0034B0B
:1072980000225A7108BD00BF04000040082B0020DE
:1072A800124B1B6810B573B14FF48070FFF7A4FF41
:1072B8004FF080430122C3F808230D4B587910B9C9
:1072C8005A711B6898470B4B1B6873B14FF4827057
:1072D800FFF792FF4FF080430222C3F80823044BC4
:1072E800BDE810401B680120184710BD0001004090
:1072F800082B00200401004000F1804382B01A6886
:10730800002A14BF0120002004D000221A601B6844
:107318000193019B02B070470E4B1A78C2B90278EC
:107328004FF08041C2F34002C1F88025027802F094
:107338000102C1F87825084A1168C90704D4C02198
:1073480082F800130121116001221A700020704791
:1073580085207047202B002000E100E0014B0268E7
:107368001A6070471C2B00204FF080434FF4607266
:10737800C3F8042370474FF080434FF46072C3F89A
:1073880008237047014B00221A6070471C2B00200D
:107398004FF0804310B5D3F80443620707D54FF484
:1073A8008470FFF7A9FF10B11E4B1B689847A3060E
:1073B80008D54FF48A70FFF79FFF18B11A4B0020C9
:1073C8001B689847600608D54FF48C70FFF794FF48
:1073D80018B1154B01201B689847210608D54FF4B2
:1073E8008E70FFF789FF18B1104B00201B68984773
:1073F800E20508D54FF49070FFF77EFF18B10B4BEC
:1074080001201B689847A3050AD54FF49270FFF72F
:1074180073FF28B1054BBDE810401B6802201847D0
:1074280010BD00BF142B0020182B00201C2B00209F
:1074380008B5FFF7ADFFBDE80840FFF731BF000012
:10744800034B1868A0F1080358425841704700BF21
:1074580030010010074B1B68082B06D1064B1B6830
:10746800052B04D8054AD05C7047002070470120DE
:10747800704700BF30010010340100106DC50F00C7
:1074880030B54C680D689C4229BFC0E90053002103
:10749800E41AED1832BFC0E900514C600D60934208
:1074A80003D1201E18BF012030BD0020FCE74B6827
:1074B80010B59A420C6828BF1A46C0E90042981ACB
:1074C8000B6848601A4400380A6018BF012010BDD4
:1074D80030B54C680B68A24228BF2246002A14BF68
:1074E8001D460025C0E90052A4EB02041A444C6072
:1074F8000A6014BF0120002030BD0000054B10F0C9
:10750800800FA3F1900208BF134600F00F0003EBB1
:1075180000107047942C002010F0800F14BF002337
:10752800102300F00F0018447047000008B5FFF75B
:1075380087FF10B1034B00221A60034B00221A7018
:1075480008BD00BF1C7C0240222B002007B5094A59
:1075580000231370084AADF8053013708DF8073012
:1075680001238DF80430054B01A81B68984703B028
:107578005DF804FB212B0020282D0020242D00205D
:1075880070470000F8B54B680B4F93420C4628BF74
:10759800134606461A46096838461D4604F049FB54
:1075A80060682268401BC6E900752A44606000389C
:1075B800226018BF0120F8BD2C2D0020F8B54B68BB
:1075C800934228BF134606460D461C468BB10A4F08
:1075D80009681A46384604F02CFB37606B687460FB
:1075E8001B1B6B602B68201E23442B6018BF0120D7
:1075F800F8BD0360F2E700BF2C2D002008B500207D
:10760800FFF72EFB084B094A1868032148B949F2CD
:107618007530186011601860BDE808400020FFF759
:1076280021BB1160F8E700BF00EC064014ED0640EE
:1076380008B50020FFF714FB084B094A186848B939
:1076480049F27531196010601960BDE808400020E2
:10765800FFF708BB00231360F7E700BF00EC064004
:1076680014ED064007B500238DF804300B4BD3F812
:107678002025ADF80620D3F8C034094A002B13683A
:107688000CBF4FF480714FF001210B431360054B81
:1076980001A81B68984703B05DF804FB007002401E
:1076A800002C0020242D002008B50146FFF73EFFDE
:1076B8000846FFF723FF837B032B0BD10846FFF710
:1076C8002BFF012303FA00F0C143BDE8084003483B
:1076D800FFF786BD0368002BF0D008BD902B002073
:1076E8008720FFF7E1BF8620FFF7DEBF8520FFF781
:1076F800DBBF8420FFF7D8BF8320FFF7D5BF8220E8
:10770800FFF7D2BF8120FFF7CFBF000008B5FFF712
:107718000DFF084B93F89E20032A06D1BDE80840C8
:1077280005486FF00101FFF75BBDD3F89030002BDF
:10773800F4D008BD042C0020902B0020FFF7E6BFF2
:10774800012273B502FA01F51E491F4E0B6810F0AD
:10775800800F43EA050304460B6027D000F00F02B0
:107768001A4B33F8123003F1804303F51C331A68BF
:107778004AB100221A60BFF36F8FBFF34F8F802882
:1077880011D0FFF791FF316829400AD106238DF8FF
:1077980004308DF806408DF807100D4B01A81B68C2
:1077A800984702B070BDFFF7B1FFECE733681D42A0
:1077B800F7D106238DF804308DF806008DF80720E0
:1077C800EBE700BF002C0020902B00207CC50F00A9
:1077D800242D002008B5054B1A781046FFF79CFEAB
:1077E800BDE8084001461046FFF7AABF282D002033
:1077F80007B5FFF79BFE0D4B93F88E20032A11D097
:10780800D3F8803073B90A486FF08071FFF7E8FC4D
:1078180006238DF804300823ADF80630054B01A87F
:107828001B68984703B05DF804FB00BF042C0020D8
:10783800902B0020242D002007B5FFF777FE104B72
:1078480093F81E21032A07D10E486FF48071FFF7C1
:10785800C7FC03B05DF804FBD3F81031002BF8D156
:107868006FF480710748FFF7BBFC06238DF80430DE
:107878008823ADF80630044B01A81B689847E8E751
:10788800042C0020902B0020242D0020254B13B51C
:10789800D3F80044C3F80044BFF36F8FBFF34F8F92
:1078A800BFF36F8FBFF34F8FE1050ED51E4B01223B
:1078B8001A700023ADF805308DF8073002238DF8D3
:1078C80004301A4B01A81B689847A2050DD5164A23
:1078D80000231370ADF805308DF8073003238DF8B9
:1078E8000430124B01A81B689847630518D50E4A47
:1078F8001378ABB10B49002313700122C1F8082596
:107908008A65BFF36F8FBFF34F8FADF805308DF8E1
:10791800073004238DF80430044B01A81B689847EE
:1079280002B010BD00700240212B0020242D002041
:107938002DE9F04F654B87B01A780093002A6AD179
:10794800DFF8A8A1DFF888B1614BDAF800101C68ED
:10795800214060D011F0012460D094FAA4F4002CE6
:1079680062D0B4FA84F40F2C60D9A4F11005EDB2FA
:107978002846FFF7C3FD4FFA85F8B8F1000F828952
:10798800064605F0080954DAD0E9003104A89847FA
:1079980000B93060FFF754FD10B14E4B82221A60D7
:1079A800009B059A049801211970B368A140DBF87F
:1079B8000040134424EA0101B8F1000FB360CBF88A
:1079C8000010454B05F00F056EDAB9F1000F63D0D2
:1079D800C3F8A006C3F8A426042303EB850303F128
:1079E800804303F51C3301221A60BFF36F8FBFF386
:1079F8004F8F3A4B3A4A3B4913EA280838BF90461A
:107A080038F8153003F1804303F51C331A6812B9AE
:107A18000A68002AFAD007B0BDE8F08F91FAA1F100
:107A280011B1B1FA81F49EE720249EE744F0800565
:107A38009EE72949B9F1000F27D0D1F8C03413F4D3
:107A4800803F18BF002371683768019304A8B847BE
:107A5800049A002A9CD0059A019B9A4298D2012147
:107A68004FF00208A14086F80E80C9435046FFF740
:107A7800B7FB06238DF80C301B4B8DF80E501B6896
:107A88008DF80F8003A898475EE705F00F0303F50C
:107A9800947351F82330D6E7142101FB0533C3F85A
:107AA8000006C3F8042697E7B9F1000F05D0C3F81C
:107AB800A007C3F8A42728238FE7142101FB053367
:107AC800C3F80007C3F80427F5E700BF222B0020FE
:107AD800002C00201C7C0240007002407CC50F0076
:107AE80098C50F0000710240242D0020902B002023
:107AF80038B5134BD3F86C44C3F86C44BFF36F8F9D
:107B0800BFF34F8F01251CB9BDE83840FFF710BF00
:107B180094FAA4F171B1B1FA81F30F2B19460BDD78
:107B2800A1F11000C0B205FA01F324EA0304FFF73B
:107B380007FEE8E72021F3E743F08000F3E700BF02
:107B48000070024037B50446FFF7F0FC2046FFF707
:107B5800D5FC837B032B0DD12046FFF7DDFC0123E9
:107B680003FA00F0C1431048FFF73AFBFFF7E0FEC5
:107B780003B030BD0568002DF8D12046FFF7CCFCD6
:107B8800012303FA00F0C1430748FFF729FB062346
:107B98008DF80430054B8DF806401B688DF80750AA
:107BA80001A89847E2E700BF902B0020242D002071
:107BB8000720FFF7C7BF0620FFF7C4BF0520FFF760
:107BC800C1BF0420FFF7BEBF0320FFF7BBBF0220E1
:107BD800FFF7B8BF0120FFF7B5BF0000024A002336
:107BE8001360024A13707047242D0020232B0020B5
:107BF80008B5404B4FF40062C3F80024BFF36F8F01
:107C0800BFF34F8FFFF726FC08B1FFF7F7FCFFF72C
:107C180017FC80B10020FFF723F8374B374A186864
:107C2800C021002860D149F27530186011601860D1
:107C38000020FFF717F82F4B0122C3F80025BFF3E8
:107C48006F8FBFF34F8FD3F800241205FBD54FF485
:107C58000062C3F80024BFF36F8FBFF34F8FFFF7A5
:107C6800EFFB78B10020FEF7FBFF234B234A18688F
:107C780000283BD149F27531196010601960002065
:107C8800FEF7F0FFFFF7E6FB30B1FFF7D1FCFFF797
:107C9800E1FB08B1FFF7B2FCFFF7D2FB48B1184B84
:107CA80040F2E3721A6040225A60BFF36F8FBFF34D
:107CB8004F8F104B00218022C3F81C25C3F83015C4
:107CC800104B40F2FF121A600F4B1960FFF72EFCA1
:107CD8000E4B19700E4B02221A70FFF7BBFB40B116
:107CE800BDE80840FFF7A4BC1160A1E700231360BA
:107CF800C5E708BD0070024000EC064014EC0640E1
:107D080000780240002C0020902B0020282D002015
:107D1800232B00200C4B00221A700C4B0C4A002815
:107D28000CBF184610460B4B0B4AC3F80403C0217E
:107D380082F82713802151600122C3F80425BFF37C
:107D48006F8FBFF34F8F7047212B00200714C0019E
:107D58000714E0010070024000E100E0024B1878CF
:107D6800003818BF01207047232B0020034B1878D8
:107D7800012894BF00200120704700BF232B00205A
:107D880010B50020FEF76CFF114B1B7803F0FF04C1
:107D9800A3B1104AD2F82C35BBB10023C2F82C3558
:107DA800FFF74EFB50B10C4B0C4A1C68C02154B96C
:107DB80049F275341C6011601C6004460020FEF70F
:107DC80051FF204610BD1160F7E71C46F6E700BFDB
:107DD800212B00200070024000EC064014EC064005
:107DE800024B034AC3F80823704700BF00700240E3
:107DF80004148001024B034AC3F80423704700BFF0
:107E08000070024004148001014B00221A70704770
:107E1800212B002008B5FFF771FB818108BD000008
:107E280073B51D4B1C78002C33D11C4A10600122FD
:107E38001A702546264615F0080F65F07F00C0B277
:107E48000CBF40214FF400710190FFF7E3FF019848
:107E5800FFF754FB0135092D867306608660EAD169
:107E6800402100252046FFF7D5FF2046FFF746FBB7
:107E78000134E4B2092C85730560856002D10020C5
:107E880002B070BD14F0080F14BF4FF40071402108
:107E9800E8E70820F4E700BF232B0020242D00206A
:107EA80008B5FFF72BFB808908BD0000064A10F0D3
:107EB800800F00F00F0314BFD2F81005D2F8140594
:107EC800D84000F001007047007002402DE9F047EB
:107ED800074600208846FEF7C3FE17F00F0503D1BA
:107EE800294B1B78BB424AD1284B294A1C68166883
:107EF8003846FFF711FBE443A4B24FF001093443BD
:107F080009FA00F914EA090492463AD13846FFF70B
:107F1800F5FA0C2255433A0603462CD51D4AD8F8E3
:107F28000010154401F06041D8F80820B1F1005F55
:107F380002F001021AD1BAB9174A1A6098E8070084
:107F480085E8070000229A609A735D60134B46EA41
:107F580009068022CAF80060C3F804210020FEF751
:107F680081FE2046BDE8F0870D4AE6E70AB90D4ACA
:107F7800E3E70D4AE1E70D4A15440D4ADDE7102411
:107F8800ECE71124EAE700BF282D0020002C002090
:107F9800902B0020942B0020B7740F0000E100E024
:107FA800D9740F008D750F00C5750F00242B0020A4
:107FB80089740F002DE9F041074600200E46FEF7B0
:107FC8004FFE3B0703D1174B1B78BB4225D1164BFD
:107FD80016491C680D683846FFF79EFAE443A4B2B8
:107FE80001232C4303FA00F814EA080417D1384691
:107FF800FFF784FA33680360736843600C4B84604E
:1080080045EA0805802284730D60C3F80421002026
:10801800FEF728FE2046BDE8F0811024F7E711247A
:10802800F5E700BF282D0020002C0020902B002011
:1080380000E100E0004870472C2D0020044B40F47C
:108048008070C3F81805BFF36F8FBFF34F8F704769
:1080580000700240020713D400F00F0310F0800FE5
:10806800084A0BBF03F5887303F5847302EB830397
:1080780052F8230008BF5868431E584258417047B9
:108088000020704700700240064BC3F80C05BFF390
:108098004F8F40F48070C3F80C05BFF36F8FBFF3A8
:1080A8004F8F70470070024010B508220021044627
:1080B80003F0E8FD0E4BD3F880242270D3F8842413
:1080C8006270D3F88824D3F88C1442EA01226280C3
:1080D800D3F89024D3F8941442EA0122A280D3F86A
:1080E8009824D3F89C3442EA0323E38010BD00BFF0
:1080F80000700240034B01221A60BFF36F8FBFF379
:108108004F8F70474C70024013B5FFF70FFA0F4BB3
:108118009A7B032A06D10E486FF48031FFF760F886
:1081280002B010BD1C6874B96FF480310848FFF7BD
:1081380057F806238DF80430064BADF806401B6847
:1081480001A89847ECE7FFF7D5FFE9E7042C0020E2
:10815800902B0020242D0020034B01221A60BFF32E
:108168006F8FBFF34F8F704750700240034B01224F
:108178001A60BFF36F8FBFF34F8F70475470024080
:10818800014B1878704700BF282D002010B5044611
:108198000020FEF765FD2046FFF7BEF90D490122D4
:1081A8000B6802FA00F023EA000314F008020B60DF
:1081B8000AD104F00F04084B04F5947443F8242002
:1081C800BFF36F8FBFF34F8FBDE810400020FEF75D
:1081D80049BD00BF002C002000700240F7B50446DE
:1081E8000020FEF73DFD2046FFF788F905462046AA
:1081F800FFF792F9012314F0800F2A4E03FA00F3D7
:1082080017D1326833EA020109D02046FFF7BEFFD2
:108218000323AB730020FEF725FD03B0F0BD22EA6F
:10822800030229603260204A106820EA03001060C7
:10823800EEE7220711D4802C1C481D4A29D004F0EF
:108248000F0101F2DA314900016011681068C9B202
:1082580041F002010143116012681349326808684D
:1082680062EA00071F42D5D022EA0302184300231E
:1082780032602B600323AB738DF807300D4B086019
:1082880006221B688DF804208DF8064001A898473F
:10829800C0E740F2B471016011681068C9B241F0DA
:1082A8000401D7E7902B0020002C00200078024022
:1082B80004780240242D0020FFF790BFF7B5184B33
:1082C800184CD3F880542368174EDA43174B377885
:1082D8001B6892B238461A43FFF71EF9012303FAC6
:1082E80000F0104202D03846FFF778FF6FF0011116
:1082F80005F080050D483570FEF772FF236843F0DE
:10830800010323600023ADF805308DF807300523FD
:108318008DF80430064B01A81B68984703B0F0BDE0
:1083280000700240002C0020282D0020902B0020F7
:10833800242D00201C4BD3F8041300232DE9F04111
:1083480001241D4671B9194F03F4000623F40004F3
:108358004FF00108D4B9FFF7EBFA1EB3BDE8F041BE
:10836800FFF7ACBF91FAA1F21148B2FA82F2960077
:10837800304404FA02F206682EB10560BFF36F8F2D
:10838800BFF34F8F134321EA0201DBE794FAA4F508
:10839800B5FA85F557F8253008FA05F5984724EA1F
:1083A8000504D7E7BDE8F08100700240ACC50F00B6
:1083B80000710240F8B5134E134A34681268240C51
:1083C8002404144301271CB940F2FF133360F8BD9D
:1083D80094FAA4F585B1B5FA85F30F2B1D460DDD8A
:1083E800A5F11000C0B2030701D4FFF7F7FE07FAA2
:1083F80005F524EA0504E6E72025F1E743F08000C7
:10840800F1E700BF002C0020902B002038B50E4C5F
:108418008025C4F8845163681B0613D5FFF7CAFF8B
:108428000A4B0022C3F80425BFF36F8FBFF34F8FA9
:10843800C4F88450BFF34F8FBFF36F8F4FF0FF32F4
:10844800C3F8082338BD00BF00E100E00070024017
:1084580008B5FFF7DBFF094BD3F80423C3F808235B
:108468000022C3F80025BFF36F8FBFF34F8FFFF7CC
:108478005DF8034B01221A7008BD00BF007002406E
:10848800232B002010B50020FEF7EAFB0E4B1B78CB
:1084980003F0FF042BB900240020FEF7E3FB20467D
:1084A80010BDFFF787FF094AD2F8003413F40073B0
:1084B800F1D10121C2F82C15D2F80014890544BF66
:1084C800C2F82C351C46E7E7212B0020007002403B
:1084D80038B5044604F00F05FFF780FE64B2124A6F
:1084E800002C4FF00103B4BFD2F81015D2F81415C0
:1084F80003FA05F36FEA0303B5BF0B400B40C2F85C
:108508001035C2F81435BFF36F8FBFF34F8F074B89
:10851800074810EA240438BF1C460123625D9340D3
:10852800014AC2F8083338BD007002408EC50F00FA
:1085380073C50F0038B5254A254B45B2002DA8BF95
:10854800134600F00F010446585C224A4FF001031D
:1085580003FA00F0C2F804032ADAD2F81005C8407A
:10856800C00731D4D2F810058B400343C2F8103548
:10857800BFF36F8FBFF34F8F31B3002D24DB14F09F
:10858800080521D12846FEF76BFB2046FFF7FEFDC4
:108598002046FEF7C1FF104901220B6802FA00F0DD
:1085A80023EA00030B602846BDE83840FEF75ABBB3
:1085B800D2F81405C840C00706D4D2F814058B4079
:1085C8000343C2F81435D3E738BD00BF8EC50F008A
:1085D80073C50F0000700240902B0020020610B5F2
:1085E80004460AD4030708D400F00F02074B920090
:1085F8009B58012B01D1FFF7C9FD054BC3F818455E
:10860800BFF36F8FBFF34F8F10BD00BF447402409C
:108618000070024028B139B10023C1E90030184682
:10862800704748F21050704748F21350704738B1FD
:10863800006848F24053884214BF1846002070472B
:1086480048F21050704730B148F21153914214BFAC
:1086580018460020704748F21050704770B506461B
:108668000C461D46FFF7D6FF50B9B3794AB1AB4265
:108678000AD111462046FCF71AFC08B9044B2360BE
:1086880070BD48F21050FBE748F21150F8E700BF00
:108698007052464D2DE9F0470C46054611492046D3
:1086A800DDE9088916461F46FFF7C1FFA8B96368C8
:1086B8005A79494652004046FFF7C5FF68B956B196
:1086C8006DB1CDF820803B46324621462846BDE8AC
:1086D800F047FCF7FBBB48F21050BDE8F08748F2C2
:1086E8001550FAE77052464D10B5044638B149B1F5
:1086F8000B684160984708B9044B236010BD48F2E5
:108708000150FBE748F21050F8E700BF6E524648A8
:10871800F0B4134648B10768094EB7420AD161B1AF
:108728002AB14368F0BC5B68184748F20153184601
:10873800F0BC704748F20253F9E748F21053F6E7E5
:108748006E524648F0B460B107680C4EB7420CD17F
:1087580071B143681568DC68A5420CD3F0BC9B680E
:10876800184748F20150F0BC704748F20250FAE747
:1087780048F21350F7E748F21450F4E76E524648AF
:10878800F7B50446DDE9086715460193FFF7ACFF26
:1087980068B9019A29462046FFF7BAFF38B93A4620
:1087A8003146204603B0BDE8F040FFF7CBBF03B029
:1087B800F0BD0000F8B50A4F0A4C0B4DE41B01212F
:1087C800E40829700026A64203D102232B7000205A
:1087D800F8BD57F8363098470028F9D10136F2E746
:1087E80088C30F0090C30F006C2D0020013901448D
:1087F800814200D2704703780A7800F8012B01F80B
:108808000139F5E7013A02440139824200D2704742
:1088180011F8013F02F80139F7E770B516460D4621
:10882800FFF7F0FF3246A9193044BDE87040FFF762
:10883800E9BF38B50D460446FFF7D8FF2946601949
:10884800BDE83840FFF7D2BFBFF34F8F0549064B4D
:10885800CA6802F4E0621343CB60BFF34F8F00BFD6
:10886800FDE700BF00ED00E00400FA05704708B519
:10887800FFF7EAFF08B500F089FB4FF480510020AC
:1088880000F038F908B1FFF7DFFF0548C0F57E2191
:1088980000F030F90028F6D1024800F053F8F2E76A
:1088A80000400F0075880F00014B01221A707047B5
:1088B80090310020BFF34F8F0549064BCA6802F478
:1088C800E0621343CB60BFF34F8F00BFFDE700BFEB
:1088D80000ED00E00400FA05024B034800221A707C
:1088E80001F05EB890310020BD880F00042810B553
:1088F800044609D8022811D816D00D4B1B68B3B10D
:108908002046BDE810401847831F012BF5D8094BB6
:10891800094800221A7001F043F8EEE707494FF4BE
:10892800701000F00DFAE8E700F082FFE5E710BDEF
:108938009431002090310020BD880F00E1880F009D
:108948000020704738B5544B1860002001F03EF8FD
:108958000446002840F09A8000F0C2FA012800F08E
:108968009080022800F09480002840F08F804FF01B
:108978008043D3F8004414F480343ED04FF480325E
:10898800C3F800240446454D2B6A012B43D04FF40D
:10899800701400F03BFB424A20211820FCF7B0FB82
:1089A80008B1FFF764FF3F4B1A6802F0F902B12AD9
:1089B80002BF1A6802F04E021A60384B9A6D012AFB
:1089C80006D10020986500F0C1FF08B1FFF74FFFFE
:1089D800FFF7B6FF002859D12046334900F0B0F917
:1089E800324800F06FFC002850D100F035FBFCF74E
:1089F80009FC20BF40BF20BFF7E7D3F8202502F0CD
:108A0800F902A92A03BFD3F8202502F05602C3F8B9
:108A180020250124B7E743F204031A68244B9A423D
:108A280009D001F055F8AA69014694B1214801F02E
:108A38000DFB90B9ABE76A6B1CB995F86032012B56
:108A4800EFD01D484FF4805101F000FB0028E8D119
:108A58009DE795F8A132012BE8D1124B1B6803F072
:108A6800F903B12B93D0AB6D012B90D000F0BBFF75
:108A780060B9124B1870124800F092FF00F024F809
:108A880004E00E4B0F481C7000F08AFF032038BD2D
:108A98004FF4A0247DE700BF94310020B8380020AF
:108AA800702D00201C050040E1880F00F5880F009C
:108AB800DBE5B151593B0020183B002090310020E4
:108AC800B1880F00BD880F0008B5074B4FF0FF3283
:108AD800C3F88020C3F8802100F04FFCBDE80840AF
:108AE8004FF4805000F028B800E100E080F30888D7
:108AF8000847000070B50546C1F30B00A8B9B5F5E5
:108B08007F2F12D80B4E3268072A10D8130103F1B1
:108B1800804404F5F0340132C4F80058C4F804184D
:108B28000221C4F80818326070BD0720FCE7042051
:108B3800FAE700BF9831002010B504461448C0F584
:108B48007F21FFF7D7FF08B1FFF791FE00F0C0FFC4
:108B5800104B9B6903F6FF7323F47F6323F00F0325
:108B680019180020FFF7C6FF08B1FFF780FEEFF3E2
:108B780005830023D4E9000183F3148883F3108864
:108B880083F3118883F31388BDE81040FFF7AEBF65
:108B980000400F00B838002037B56FF07F42154C01
:108BA800057BD4F804358A4228BF0A46891A13443B
:108BB8004A1E942A23F07F4305F5A8729BBF963B73
:108BC80096314160416044F822300B4B4FF4F86015
:108BD80043F001039847094BAA00134400221A6086
:108BE8001B680193019B4FF48033AB40C4F80433F6
:108BF80003B030BD0040024050C60F004041024063
:108C080018490A7884B0002A29D14FF08043A0205F
:108C1800D3F81834DB035EBF134B01221A60134AE2
:108C28000023136012680392039A114A13601268B2
:108C38000292029A0F4A136012680192019A0E4A30
:108C480082F82403102050600C4A0D48C2F80835F9
:108C58000123036002201360C2F804030B7004B000
:108C6800704700BFA03100200800004000410240CA
:108C7800404102404441024000E100E0004002401F
:108C880008400240284B1A6813B542B127490A68C0
:108C980001320A6000221A601B680093009B244B73
:108CA8001A68A2B100221A6022481B68027B01934D
:108CB800019B4FF4803393401F4AC2F80833416840
:108CC800044601BB8168D9B9236803B198471B4B97
:108CD8001A6832B300221A6016481B68027F019393
:108CE800019B4FF480339340134AC2F8083341691B
:108CF800044659B1103002B0BDE81040FFF74CBF30
:108D0800FFF74AFFE0E7FFF747FFE0E7816911B1A6
:108D18001030FFF741FF23691BB102B0BDE81040D6
:108D2800184702B010BD00BF044102409C3100202A
:108D380040410240280000200040024044410240D7
:108D480070B50B4B1D682A7B4FF480339340094A5A
:108D58000E46C2F80833044640B1FFF751FF2E60B3
:108D680021462846BDE87040FFF716BF70BD00BF1A
:108D7800480000200040024070B5074B1D680446BB
:108D88000E46A860FFF73CFF2E6021462846BDE846
:108D98007040FFF701BF00BF4C000020014B0122CB
:108DA8001A707047A131002038B50F4BDA6A5D6A36
:108DB8009C6CAC2A10D15B6B1C44ED1A0B482A46FC
:108DC800214602F0DEFE68B100F046F92946204649
:108DD800BDE8384000F0C0BA002CEFD100F08EFE9C
:108DE8000446EBE738BD00BFB838002000400F004C
:108DF8002DE9F74F06468846A8EB06052D0B02F627
:108E0800FF77144600F002F9082D28BF08252B0328
:108E1800DFF868B001933F0B0CB9234629E0BD4247
:108E28002CBFBA46AA464FF000025146304634BF1E
:108E3800DDF80490A14600F077FA0346C8B909F1B5
:108E4800030222F003024146304600F05FFA03466F
:108E580078B9DBF830304B44CBF8303000F0A6FD61
:108E6800A7EB0A07A4EB09044E44C84403460028AC
:108E7800D2D0184603B0BDE8F08F00BFB838002044
:108E880010B500F04DFE154A42F20403916CCC581F
:108E980003F1A34303F5471303F2D7539C4218D1B8
:108EA800D2E90C32934216D0884204D1BDE8104072
:108EB800002000F07BBDD21A02F6FF7222F47F6216
:108EC80022F00F0219441844FFF792FF0028EDD052
:108ED80010BD0320FCE70020FAE700BFB8380020E7
:108EE80070B5264CE36AAA2B37D005D8012B0BD0D6
:108EF800A52B2ED0002070BDAC2BFBD1FFF7C0FFF7
:108F080048BBFFF751FF26E0A66C656A00F0E0FD5C
:108F1800864229D100F0DCFD00222946FDF7A4FE97
:108F2800A36A984202BF0123C4E90703A56100258B
:108F3800134800F09FFD134B134800221A7000F0ED
:108F480035FD68B975B1236A012B14BF01200220D1
:108F5800D1E7FFF795FF0125EAE7FFF725FFE6E7E9
:108F68000320C8E70120C6E7236BEA1AF118184462
:108F7800FFF73EFF0028DAD1CCE700BFB838002061
:108F8800DC380020A1310020A58D0F0040F6F870D4
:108F980008B50368013302D10749FEF7EBF840F63C
:108FA800FC700368013305D1BDE808404FF47E2109
:108FB800FEF7E0B808BD00BF00400F000A4AD2F82B
:108FC80000347BB109480023D2F80815D940C907F5
:108FD80048BF03F5C07103F1010348BF42F82100FF
:108FE800072BF1D1704700BF000001403546526E93
:108FF800FFF7E4BF044B002282B01A601B6801939C
:10900800019B02B0704700BF0001014038B50E4C0B
:109018002278BAB90D4BD3F800248AB1D3F8045595
:10902800FFF7CCFF40F61650A842B8BF28460849BB
:10903800A0F54860FFF7A0FE064B4FF480321A6097
:109048000123237038BD00BFA23100200000014079
:10905800F98F0F0000E100E0034BD3F800340BB1A7
:10906800FFF7ACBF704700BF00000140034B186812
:10907800A0F1080358425841704700BF3001001062
:10908800064B1B68082B06D1054B1B68052B02D81D
:10909800044AD05C70470020704700BF30010010C0
:1090A800340100105CC60F00024AD2F80034002BCD
:1090B800FBD0704700E0014010B5FFF7D7FF40B183
:1090C8004FF080430022C3F80C21C3F81021C3F8E5
:1090D8003825FFF7CBFF002846D04FF08052614B70
:1090E800D2F80414C3F82015D2F80814C3F82415CC
:1090F800D2F80C14C3F82815D2F81014C3F82C159C
:10910800D2F81414C3F83015D2F81814C3F834156B
:10911800D2F81C14C3F84015D2F82014C3F844152B
:10912800D2F82414C3F84815D2F82814C3F84C15FB
:10913800D2F82C14C3F85015D2F83014C3F85415CB
:10914800D2F83414C3F86015D2F83814C3F864158B
:10915800D2F83C14C3F86815D2F84014C3F86C155B
:10916800D2F84424C3F87025FFF78AFF10B13E4BAC
:109178003E4A1A60FFF784FF18B13D4BFB22C3F843
:109188001825FFF77DFF48B13A493B4B0A681B6831
:1091980022F00F0203F00F0313430B60FFF770FF79
:1091A80018B1364B4FF400721A60FFF75FFF48B1F1
:1091B8004FF08043D3F80024D20744BF6FF0010278
:1091C800C3F800242E4AD2F8883043F47003C2F85A
:1091D8008830BFF34F8FBFF36F8F2A4B1B68082B64
:1091E8000ED1294B1B68052B02D8284AD35C3BB10A
:1091F8004FF01023D3F808224FF08043C3F85825C6
:109208004FF01023D3F80022002A03DBD3F80432EE
:10921800002B22DA1E490123C1F80435FFF744FF69
:109228004FF010201224C0F80042FFF73DFFC0F8AD
:109238000442FFF739FF0023C1F80435FFF734FF74
:10924800BFF34F8F0E49134BCA6802F4E062134311
:10925800CB60BFF34F8F00BFFDE70F4B0F4A1A607B
:1092680010BD00BF00C000408C560040488103007C
:1092780000F00040E40E0040580200104096024002
:1092880000ED00E0300100103401001056C60F0058
:1092980000E001400400FA05500000200090D003CF
:1092A800831F012B10B5044602D8002000F0CAFB2A
:1092B800034B1B681BB12046BDE81040184710BD82
:1092C800A431002008B5074B18600020FFF7E8FF1D
:1092D800054800F09FFB20B9BDE80840024800F0AF
:1092E8005BBA08BDA4310020A9920F0043690BB1F5
:1092F800C068184770470000024903480022FDF77C
:1093080053BD00BF4CC50F000800002007B50093EF
:1093180013460A4601460348FDF74AFD03B05DF8C7
:1093280004FB00BF0800002013460A460146014816
:10933800FDF745BD08000020014B18700B20704751
:10934800A8310020024B002218781A70704700BF1D
:10935800A831002018DF704730B585B005461022C7
:109368000C466846002102F08DFCA4086846019569
:109378000294FFF7EFFF05B030BD30B585B0062386
:1093880000244FF480556846CDE90035CDE9024404
:10939800FFF7E0FF072802BF4FF0005320461D608B
:1093A80005B030BD014B06201B681847B4310020BA
:1093B8000A2803D90B38C0B2FFF7BEBF70470000B8
:1093C80010B5044686B00020FDF700FD014630B117
:1093D800164A18212046FBF7B7FE06B010BD182222
:1093E800684602F04FFC0423114A8DF80030114BF7
:1093F800116D1B68994211D10F4B186800F0E0FFFE
:109408008DF80100FFF7D4FFD4E901138DF80100AE
:1094180068469847094800F0C9FADEE701238DF845
:1094280001306846D4E901139847D6E7C9930F007D
:10943800B8380020AC310020B0310020AD930F00C7
:10944800F0B5044687B018220021684602F01AFCDD
:1094580023788DF8003001228DF801200C2B00F2C2
:109468008B81DFE813F00D0080000F008000800082
:10947800890180007700800073001C002F007B00AA
:109488008DF80420D4E90113684698479DF8013007
:10949800012B00F06681A24B05201B6860E14FF0AC
:1094A8008053D3F800210192D3F804210292D3F813
:1094B8000C2192020492D3F81021920203921B69A4
:1094C8000593DFE743F20403964D186896492E6A20
:1094D800227C884214BF01230223012E08BF0133D6
:1094E80052B902238DF80430EB6802938F4B039333
:1094F800C3F57E230493C5E7012A14D1884212D10B
:1095080000234FF440528DF804301278142A84BF97
:1095180043F214031B6802934FF48053039343F2FE
:1095280008031B68E6E79A4209D201238DF8043044
:10953800AB68029300F0F2FAAB690390DAE7FF2315
:109548008DF804300023CDE90233D3E7237C8DF86E
:10955800043097E7238AADF8043093E7704B07206F
:109568001B6898478EE7062B714A01D0012B01D161
:10957800216911701178012904D0022958D00023DB
:1095880013709BE0013B072B3FF67CAF01A252F81A
:1095980023F000BFBD950F008D940F002D960F008E
:1095A800FD950F008D940F0027960F008D940F00E6
:1095B800D5950F005A4B03201B689847606900F047
:1095C80087FCFFF7F5FE8DF801005BE7A18A2069AB
:1095D80000F096FCFFF7ECFE524B8DF80100DA6BB9
:1095E8001B6C0293E3680192002B3FF44BAF206998
:1095F800984747E74F49504800F0D0FCFFF7D8FE9E
:1096080001288DF801007FF43DAF002000F0CEF96D
:1096180000283FF437AF0A238DF8013032E74FF4C2
:10962800007303933F4BDA6B1B6C0192029329E79B
:10963800013B072B3FF626AF01A252F823F000BFEB
:1096480069960F008D940F001F970F0045970F0024
:109658008D940F006F970F008D940F00C9960F001F
:1096680000F06EFC08B90823D6E762690AB903233B
:10967800D2E7C2F30B0333B12A4B2E495B6D09685D
:1096880013448B42F3D1B2F5805F01D90423C3E7B9
:10969800244B2849586D096815188D42E3D85A6437
:1096A800DA6C9A6418651863234B1B680022012141
:1096B8001844FFF739FE00283FF4E4AE0523ABE772
:1096C80000F03EFC0028CED0164DA18AD5E9143210
:1096D8009B1A6A6C0B449342C9D8174B2F6B1B68B3
:1096E800206905F148021F44FDF7BEFAE368A28A23
:1096F800216906463846FFF709FE08B1E36876E7B0
:10970800A38A2A6BAE641A442A632A6D029613440C
:109718002B650193B6E6034B9A6C02921B6DF8E732
:10972800B4310020B8380020DBE5B15100400F000B
:1097380054000020AC310020B03100200F4BD3E999
:109748001402596C821A8A428DD19A6C586500218C
:1097580020465964DA64FFF733FE094B1B6804207E
:10976800984707B0F0BD054B9A6C1B6D01934FF4F9
:1097780080530292039385E602234DE7B838002010
:10978800B431002083681BB1024A1821FBF7DCBC06
:109798000720704749940F0038B50546C0B100202E
:1097A800FFF7AAFD044648B900F084FB00F0C8FBA7
:1097B80030B9084B00201D60FFF7BEFD204638BDBC
:1097C8000549064800F0EAFB0128F2D00324F5E732
:1097D8000724F3E7B4310020AC310020B031002079
:1097E8002DE9F04115464FF46072064688461F463B
:1097F80002F0C7F928B915B90020BDE8F081A847DB
:10980800FAE7002201213046FFF78EFD70B94FF4C8
:1098180060724146384602F00CFA2B464FF46072EB
:1098280039463046FFF772FD0028E5D00320E4E70B
:109838002DE9F0413D4C236801335CD000225821CA
:10984800201DFDF711FAD4F80080A8EB0002D2F130
:10985800000848EB0208364D364E2F683B68013346
:109868005ED000225821381DFDF7FEF93B6883427F
:1098780044D17C68012C0AD00022C32107F5187056
:10988800FDF7F2F9D7F85C42231A5C425C41B8F163
:10989800000F35D0254927484FF4607202F0C9F906
:1098A80064B1296824485422043102F0C2F92968B5
:1098B800224840F2C7225C3102F0BBF97468012CDF
:1098C8002CD11F49402201F2C71002F0B2F91D49FC
:1098D8001C2201F2C71002F0ACF91B4986F8A1421C
:1098E8000023042201F2862086F8603286F8E232EC
:1098F80002F09FF910E04FF00008ACE70024C6E73B
:1099080024B129680B484FF46072D5E709484FF431
:109918006072002102F0B6F902237360BDE8F0819D
:10992800B8F1000FF2D00024B4E700BF00F00F0038
:1099380058000020B8380020BC3800201439002016
:10994800143A0020543A0020D438002070B50C4C4A
:10995800054600225821201DFDF786F900222060C7
:10996800C32104F51870FDF77FF92A46C4F85C0294
:109978002146044B0448BDE87040FFF731BF00BFE3
:10998800B8380020B831002000F00F000246024825
:10999800024B0068FFF724BF58000020383500202C
:1099A8000149FFF7F3BF00BF00F00F0038B50546C7
:1099B8000020FFF7CBFF044618B903492846FFF7F4
:1099C800E5FF204638BD00BFB838002010B5FFF7C6
:1099D80093FC044628B9FFF72BFF2046FFF7E6FF64
:1099E80000B1032010BD00207047000010B5084CDE
:1099F8004FF40072FF2104F15C0002F043F92022C9
:109A0800002104F1380002F03DF90023236310BD62
:109A1800B8380020F8B5094E094CA41B0746E408DD
:109A28000025A54201D10020F8BD56F8353038464A
:109A380098470028F8D10135F3E700BF90C30F001D
:109A480098C30F00F8B5094E094CA41B0746E40853
:109A580000250436A54201D10020F8BD56F835305E
:109A6800384698470028F8D10135F3E790C30F002E
:109A780098C30F0008B50C22002102F003F9024B2D
:109A880000221A6308BD00BFB838002043F2040062
:109A980008B502680B4B9A4212D10B4900230422E5
:109AA800FFF734FC60B9094B1A6A43F20801012A2E
:109AB80008BF18629A6909680A44A2F580529A6137
:109AC80008BD00BFDBE5B15118C80F00B838002049
