:1010000000000420751300005D130000254A000055
:10101000611300006313000065130000000000006E
:10102000000000000000000000000000A9260100F0
:101030006913000000000000C92601006D130000C4
:10104000E97100006F130000F9710000799500004C
:10105000899500006F130000A96E00004D8E0000FE
:10106000F18D0000018E0000118E0000114A000079
:101070006F1300006F1300006F1300006F13000068
:101080007D9A0000F12801006F1300006F1300002B
:101090006F1300006F1300006F1300006F13000048
:1010A0006F1300006F1300006F1300006F13000038
:1010B0006F1300006F13000000000000000000002C
:1010C0006F1300006F1300006F130000219B0000DE
:1010D0006F1300006F1300006F130000BD85000048
:1010E0006F130000857200006F1300000000000005
:1010F000000000006F130000000000006F130000EC
:1011000000000000000000000000000000000000DF
:1011100000000000000000000000000000000000CF
:1011200000000000000000000000000000000000BF
:1011300000000000000000000000000000000000AF
:10114000000000000000000000000000000000009F
:10115000000000000000000000000000000000008F
:10116000000000000000000000000000000000007F
:10117000000000000000000000000000000000006F
:10118000000000000000000000000000000000005F
:10119000000000000000000000000000000000004F
:1011A000000000000000000000000000000000003F
:1011B000000000000000000000000000000000002F
:1011C000000000000000000000000000000000001F
:1011D000000000000000000000000000000000000F
:1011E00000000000000000000000000000000000FF
:1011F00000000000000000000000000000000000EF
:10120000354936480A1A02D0072291438D4634499F
:1012100034480A1A06D00722914381F30988022232
:1012200082F3148830483149314A00F044F831489B
:101230003149324A00F03FF831483249324A00F031
:101240003AF832483249334A00F035F832483349E7
:10125000334A00F030F833483349344A00F02BF871
:1012600033483449344A00F026F8344834490022DF
:1012700000F02CF833483449002200F027F83348B6
:101280003349091A082902DB002202604160314A11
:1012900090471F481F49884205D00268043003B4B4
:1012A000904703BCF7E700208646EC46002000216B
:1012B000294A9047FEE7884207D0521A05D00378A2
:1012C00001300B700131013AF9D17047884202D0E8
:1012D00002700130FAE770470000042000E00320AC
:1012E00000000420000004204871020000000020DB
:1012F00048000020D0130000D0130000284801004F
:101300004871020000000020000000202848010071
:101310002848010028480100284801002848010009
:1013200028480100284801002848010048710200AF
:101330009071020048000020480000204800002072
:1013400084270120842701208C2701208C2701205D
:101350008C4701209D13000065A80000FEE7FEE712
:10136000FEE7FEE7FEE7FEE7FEE7FEE7FEE7FEE755
:1013700000F002B8FFF7FCBF0F484FF007018843A9
:1013800085460E4880470E48016841F470010160AF
:10139000BFF34F8FBFF36F8FFFF732BF09480A4982
:1013A0000A4A884207D0521A05D0037801300B70E0
:1013B0000131013AF9D1704700000420350E0100D7
:1013C00088ED00E028480100000000200000002017
:1013D000004870477C27012082B001238DF8073038
:1013E0009DF80730114B1860596044F201018842A2
:1013F0009A6012D044F20201884206D1DA60DA68BB
:1014000012689A61DA685268DA6172B69DF807303C
:10141000002BFBD162B602B070471A611A6992685C
:101420005A611A6912689A611A69ECE7480000204B
:1014300000B583B002900091019244F20100714620
:101440006A4600F003F803B000BD00007FB5054612
:101450000E46144672B644F20103984215D044F287
:101460000203984204D1D2E900210F480DF0A8FDF3
:101470000E4B1B68DB0700D500BE224631462846CE
:1014800004B0BDE87040FFF7A7BF9168039108461C
:1014900003F068FD23680196009302466368039990
:1014A00003480DF08DFDE3E728480100F0ED00E072
:1014B000424801000268530910B5044618D0012BB8
:1014C0004FF6FF7318BF002302F01F02D340DB0763
:1014D00004D409494FF4F67003F0E0FA23681F2B97
:1014E00083BF03F01F03054823604FF0A04010BDE9
:1014F0004FF0FF33E8E700BF6848010000030050E9
:1015000007B5019001A8FFF7D5FF019A0123934089
:10151000C0F8083503B05DF804FB0000F0B51C46C8
:101520000F4B85B093F858300093074668460E4637
:101530001546FFF7BFFF009A01239340C0F80C3512
:10154000002208486946CDE90076CDE9025408F04A
:101550007FFC18B1044AF021FFF76AFF05B0F0BD27
:1015600068000020E84801008B480100F8B5254BD1
:1015700093F82350002D42D146B2002E33DB0124D4
:1015800083F823405C1900F07F0784F828700F0E61
:1015900084F829700F0C84F82A7040284FEA11272C
:1015A00084F82B7084F82C1027D048280CBF872192
:1015B000FF21023A012A94BF0522012283F8242048
:1015C000002E1D44A8BF93F824300F4A85F82D1033
:1015D000B8BF01230E33A2F11000DBB20621FFF7E2
:1015E0009DFF0020F8BD022483F8234077249C62ED
:1015F0004FF47F449C850625C4E79521D9E7112047
:10160000F0E700BF68000020A00000202DE9F843AB
:1016100017465B4A9846D38B0D4640F2D9118B4250
:101620000646144641D0B3F5ED7F08D2ABB140F287
:10163000C712934231D00023E383032061E0B3F566
:10164000F07F4FF0000511D0B3F5F67FF3D182F8AB
:10165000235088F80050D5834CE0938A23B9494938
:1016600040F2911003F01AFAA38AE382E28AFF2380
:101670005AB9454A84F8283001210223A2F110000A
:10168000FFF74CFF4FF4F6736DE0002284F828302A
:1016900003232284228384F8233044F620624FF00F
:1016A000040C94F82330032B0FD0238BBB4247D379
:1016B000E38A354A013BE38201210223A2F11000B3
:1016C000FFF72CFF4FF4F0734DE0238C01339BB2F6
:1016D0009342238410D83346002D47D0184610F883
:1016E000011BFF290FD0FE2911D0052388F80030F7
:1016F0000023E383022004E00220002388F8000096
:10170000E383BDE8F883013DEDB20346E4E7691EDB
:10171000CDB2BD422946064684F823C028BF3946CB
:101720004FF0000E7145E06803D821830144E16069
:10173000B7E713F8019F00F80E900EF1010EF1E7E4
:10174000FD1AADB2F02D28BFF025EBB2E2680F48CC
:101750000121FFF7E3FEE3682B44E360238B1D4484
:10176000258340F2D913E3830120CAE7064A1023F8
:101770000121A2F11000FFF7D1FE40F2C713F2E7FA
:10178000680000208B480100A0000020900000208D
:1017900070B50C461546064620B91A4940F2DD30B0
:1017A00003F07CF9184B93F822202AB393F82220F7
:1017B000032A23D125B3042283F822209A7A9D821A
:1017C000120758BF6402012DC3E903644FF0010200
:1017D0004FF0000621468CBF52205120DD829E83AF
:1017E000FFF7C4FE034628B1064A40F2FD31FFF779
:1017F0001FFE3346184670BD0823FBE71123F9E7A7
:101800000723F7E78B4801006800002070B50E46FB
:101810001546044620B9234940F2054003F03EF93D
:10182000214B93F82220002A35D093F82220032A56
:1018300033D1002D33D0052283F822209A7A9D825D
:10184000110758BF7602C3E90346012D4FF000048B
:10185000DD829C830DD12A4631465820FFF786FE53
:1018600008B9002070BD0F4A4FF48561FFF7E0FD15
:10187000F7E702F00702012A07BF3146592001228B
:10188000294618BFD720FFF771FE0028E9D0054A86
:1018900040F23741EAE70820E4E71120E2E70720B9
:1018A000E0E700BF8B4801006800002070B53D4CA8
:1018B00094F8223088B005460E46002B6DD10029E1
:1018C0006DD0C078FF286AD06978FF2967D02A7860
:1018D000FF2A64D0AB78FF2B61D010B109B102B1FF
:1018E00023B9314940F24C4003F0D8F8EB7884F842
:1018F000583004A80493FFF7DDFD049B03F5E07363
:10190000032240F8232094F85800FFF7F9FDAB7844
:101910008DF800302B788DF801306B788DF802301F
:10192000FF238DF803304FF60673ADF804304FF007
:10193000806302931D4A1E4800236946ADF80C30AF
:1019400004F0F6FD20B1184A4FF48C61FFF770FDEA
:10195000A37A1848266023F00F03A372FF2384F8AC
:101960002830154B0122CDE904320025103384F8CC
:10197000222006932A460A2304A9079384F82350B9
:1019800008F066FA034628B1074A40F26C41FFF7B7
:101990004FFD2B46184608B070BD0823FAE7072311
:1019A000F8E700BF680000208B4801000D1A000016
:1019B000E4480100E84801009000002013B5114CF4
:1019C00094F82230CBB194F82230032B17D10E4873
:1019D00008F0DAF994F85830019301A8FFF76AFD8E
:1019E000019B03F5E072002340F8223084F8233095
:1019F00084F82230184602B010BD0820FBE7112001
:101A0000F9E700BF68000020E8480100F7B5BA4CCC
:101A1000C668E38A057C07461BB994F85800FFF7AF
:101A20006FFD94F82330013B012B76D8062D04D8A6
:101A3000B24940F2573003F031F879680878AA1FAC
:101A40004C28D2B206F1060303D142B1073DEAB2F7
:101A5000F31D194615460B463DB94C2821D1013BD3
:101A6000012507E0013DEDB2F5E71A78FF2A01F103
:101A70000101F7D094F82320022A4AD1012284F8E8
:101A800023201A7812F0FE0F43D194F824309C4A98
:101A90000E33DBB20621A2F10A00FFF73FFD03B0CF
:101AA000F0BD94F82230012B31D094F8221001229D
:101AB00004298DF80520CBB21CD007D8013B9342F6
:101AC0000AD98E4A4FF46371032010E0052BF8D138
:101AD00002238DF804300FE003238DF8045084F8BE
:101AE0002230FFF76BFF38B1844A40F28331FFF7B1
:101AF0009FFC01E08DF8042094F85800FFF700FDEA
:101B0000032384F82230236801A89847C7E72B46AF
:101B1000B0E7002284F823201E4694F82230D9B280
:101B2000013B042B00F2EA82DFE813F005000A0013
:101B3000E8029201DD01022384F822300023A3830E
:101B4000A18B3378B1F50E7F00F0DE802CD840F207
:101B50001322914279D0B1F5057F08D2002966D0D1
:101B6000B1F5047F55D00023A383062173E040F232
:101B70001922914200F0908040F226229142F2D147
:101B8000580740F1F880A37A012262F30203A3729E
:101B9000238C01339BB2B3F5FA6F238440F29D800E
:101BA0000023A383022156E040F26122914200F01B
:101BB000F68015D840F24D22914200F0DC8040F2D0
:101BC00053229142CFD113F0FC0F41D1D6F801300E
:101BD0001BBA5A0042BFA37A43F00803A37299E0EC
:101BE00040F26B22914200F0EF80B1F51C7FBAD138
:101BF00001AB102229463046FFF708FD01287FF689
:101C00004EAF9DF80410002900F0E9800023A38363
:101C100021E0012200214020FFF7A8FC20B1374A33
:101C200040F21221FFF704FC40F213230BE00122E3
:101C30004020FFF79BFC20B1304A40F20F21FFF714
:101C4000F7FB4FF40473A38329E713F0FC0F14D0C0
:101C50000023A383042100238DF8043094F8580056
:101C60008DF80510032384F82230FFF749FC254B3B
:101C70004FF08042C3F8242545E703224FF4D57185
:101C80004820FFF773FC20B11C4A4FF40671FFF7A0
:101C9000CFFB40F21923D6E75D0707D4A27A0321D0
:101CA00061F3020213F0FC0FA272D1D1002323844E
:101CB000A37A03F00703032B0CBF4FF080410021F0
:101CC0000222E920FFF752FC20B10C4A40F2252104
:101CD000FFF7AEFB40F22623B5E7022200214120A8
:101CE000FFF744FC20B1054A40F23721FFF7A0FB83
:101CF0004FF40E73A7E700BF680000208B48010077
:101D0000A00000200030024013F0FC0FA0D1D90742
:101D10003FF53EAFA37A03F00703032B43D0012224
:101D20004FF400715020FFF721FC20B1BA4A4FF464
:101D30001871FFF77DFB40F2612384E7238C0133A8
:101D40009BB2B3F5FA6F23843FF62AAFA37A03F070
:101D50000703032B0CBF4FF0804100210222E92032
:101D6000FFF704FC20B1AC4A4FF41371FFF760FB9E
:101D700040F24D2367E713F0FC0F7FF469AF13F0D7
:101D80000101DBD102227A20FFF7F0FB20B1A24A49
:101D900040F25221FFF74CFB40F2532353E713F07C
:101DA000FC0F7FF455AF9D4BE360012200214920D9
:101DB000A282FFF7DBFB20B1974A40F26A21FFF7CE
:101DC00037FB40F26B233EE713F0FC0F7FF440AF8C
:101DD000013D4FF41C730136EDB2E36108E794F85E
:101DE00048309B09012B24D0DB072FD494F84F30C7
:101DF00094F8502094F852009B0003EB921394F84F
:101E00004E20920202F440620133134494F85120B0
:101E1000520002F0060202EBD01294F84D0000F0DE
:101E20000F0007380244934063604FF4007323812E
:101E3000ECE694F8513094F85020013303EB022380
:101E400094F84F2003EB02439B02EDE70B46EBE7D0
:101E5000A38BB3F5267F0FD040F2A22293423BD052
:101E6000002B3CD1337813F0FC0F14D1013D4FF41B
:101E700026730136EDB2E36101AB4FF400722946DF
:101E80003046FFF7C3FB01287FF609AE9DF804102A
:101E900091B10023A38301238DF80430032384F838
:101EA000223000238DF80510636184F8233094F804
:101EB0005800FFF725FB26E6A38A012B0CD9012247
:101EC0004C20FFF753FB20B1534A40F2A121FFF70A
:101ED000AFFA40F2A223B6E60021A183DBE700239C
:101EE000A3830621D7E7A28BB2F53B7F00F0AC803D
:101EF00027D840F2C3239A423ED0B2F5317F05D2B3
:101F0000002A41D00023A3830621AAE040F2D32374
:101F10009A4202D0B2F5397FF4D1268BE068B6F54B
:101F2000007F7FD33E4A00F500700323E06001216B
:101F3000A2F1100084F82330FFF7F0FA4FF43B735E
:101F400081E6B2F5487F4FF0000300F0B580B2F5AE
:101F50004C7F00F0CA8040F20A318A42D2D1AB42B3
:101F600080F08D80F25C002A00F0A480002384F8C9
:101F70002330E38A013B22E0337813F0FC0F1DD0BD
:101F80000023A38304216CE0337813F0FC0FF9D114
:101F9000A37A03F00703012B10D0A38A012B0DD9DC
:101FA000216901225920FFF7E1FA20B11A4A40F2D3
:101FB000C221FFF73DFA40F2C32344E6A38AE3823D
:101FC000E28AA38A7AB9012B40F29580144A4FF62F
:101FD000FF53238502210323A2F11000FFF79EFA8D
:101FE0004FF448732FE6002222830422012B84F849
:101FF00023204FF0FF028CBFFC23FE2384F828200F
:10200000074A84F8293002231946A2F11000FFF78D
:1020100085FA40F2D32316E68B480100B000002079
:10202000A0000020C6F50075ADB2F02D28BFF02548
:102030000123E9B2354A3044FFF770FA238B1D447F
:1020400025834FF43973FEE594F83A3003F01F030B
:10205000052B4FF0000211D00B2B01D00D2B8FD18F
:10206000A28302238DF80430032384F82230002356
:102070008DF8051084F82330636118E7228494F802
:102080002330032B7FF475AF238C01339BB244F6CE
:1020900020629342238403D90023A3830221E0E733
:1020A0001A4A10230121A2F11000FFF737FA40F27B
:1020B0000A33C8E5013352E72384032384F823302D
:1020C000238C01339BB244F6206293422384E3D8ED
:1020D0000E4A10230121A2F11000FFF71FFA4FF45E
:1020E0004C73B0E5F25C32B90133AB42FAD394F8E9
:1020F0002330032BE4D00021A183B2E7044A40F24D
:10210000D3310320FFF794F9C9E400BFA0000020F9
:102110008B480100064B93F82220032A05D093F840
:102120002200003818BF012070470020704700BF10
:1021300068000020044890F82230022B00F10400CF
:1021400098BF0020704700BF68000020024B5B680A
:1021500003B11847704700BFC8000020024B01467A
:10216000D3E90002104700BF1C01002038B50D461E
:10217000044620B9064940F2431002F08FFC637810
:10218000AB4283BFA07840190019002038BD00BFC2
:10219000F448010038B50D46044620B906494FF40D
:1021A000887002F07BFC237AAB4283BF093405EBD5
:1021B00045056019002038BDF448010070B50D4692
:1021C000044620B90D4940F20F1002F067FC636825
:1021D00023B90A494FF4887002F060FC63681B68F9
:1021E00023B9064940F2111002F058FC63682946F1
:1021F00020461B68BDE87040184700BF54490100E5
:1022000010B5044620B9044940F2432002F046FCD0
:102210002368186810BD00BFA949010000F00F0332
:1022200010F0800F10B51C460AD0082B04D90949BC
:102230004FF4CC7002F032FC074800EBC40010BD34
:10224000082B04D903494FF4CF7002F027FC034850
:10225000F3E700BF54490100D40000201C01002016
:1022600070B50D460646FFF7D9FF044605604DB927
:10227000730604D105494FF4E17002F00FFC00230E
:10228000636070BD6B681B68FAE700BF54490100CA
:1022900038B5831EDBB2062B98BF1A4A1A4D98BF79
:1022A000D25C2B78A3F10203DBB288BF0022062B9D
:1022B0009ABF1449CB5C00239342044603D0B2B1C9
:1022C000124804F08FF8022C14D0A4F10800424206
:1022D00042412B78022B0FD0A3F108014B424B4116
:1022E000934202D052B105F07BFC2C7038BD04F053
:1022F000B5F8E8E70122ECE70123F1E705F066FC19
:10230000F3E700BFFE490100940200200000002016
:102310000378052B73B504460CD1344AD2F88434C3
:10232000D2F8802412F0FF0F04D1314ADBB2052B22
:1023300008BF14462378002B32D12E4B2E4E1D6839
:10234000C5B928462D4D02F027FB2A6812B92C4B3F
:1023500062881A800121294802F04BFC002002F01B
:102360002BFB284B1B6813B10121204698472B6893
:1023700002B070BD2B6823B931464FF48D7002F066
:102380008DFB2B689B6823B9314640F21B1002F08D
:1023900085FB2B6860889B6898472B685D68CFE752
:1023A000194801A902F099FB05460028E0D02368EE
:1023B0000360002002F0F0FA114B10481B880268FD
:1023C00001339B1AEB80002102F0FCFBA880002067
:1023D00002F0F2FA01A90C4802F0A9FB094B1B68B4
:1023E0000146002BC4D020469847C1E70070024048
:1023F000184A010088020020544901009002002080
:1024000064010020C800002070020020FFF780BF98
:10241000012805D0022805D030B90648FFF778BF5B
:102420000548FBE70548F9E7054940F2622002F05C
:1024300035BB00BF0C4A0100104A0100144A0100DC
:102440005449010008B520B1044940F27B2002F054
:1024500025FBBDE808400248FFF75ABF5449010078
:102460001C4A01002DE9F04F87B00026054688463A
:1024700091461F4602966B6800225C68294601233C
:1024800002A8A047044638B98DF806000490824699
:10249000564503D8052028E00136ECE76B680DF1BE
:1024A0000602D3F804B02946012304A8D8476B6874
:1024B0000DF10702D3F804B02946012304A8D84738
:1024C0009DF8073043459DF8063013D14C450FD198
:1024D000109A13603B7087F801806A68023B546869
:1024E0002946BA1C04A8A047002007B0BDE8F08F19
:1024F0000134E4B26A68023BD2F804B029460022F3
:1025000004A8D8479DF806309A44C1E7F7B50546B8
:1025100003F0F4FE20B9304940F2313002F0BEFA47
:102520002E492F4808234FF4847202F0C3FA002882
:1025300050D12C4805F094FB0446002834D12A4B96
:1025400018702A4B18602A4B014618604822294807
:1025500011F0A3FD28484822214611F09EFD274B8B
:102560002DBBC3E900551D72002003F09BFF30B165
:10257000852804D0184A40F25F31FEF759FF204FFA
:10258000002529463846FFF705FE0135EDB2044621
:10259000F0B90B231A488DF8043001A9FFF70EFE9D
:1025A000044608B105F0ECF9204603B0F0BD95E80B
:1025B000070083E80700D7E700783946FFF750FEA9
:1025C000F1B22046FFF7D2FD01360028F4D1D8E75A
:1025D0000026F5E70324E7E75449010066010020DF
:1025E000700200200D2400009402002080020020D0
:1025F00084020020D40000201C010020C80000201C
:102600007C4A010010B503F061FF05F0B9F9144AE6
:1026100000211368BBB913491A460B68BBB9124AAB
:102620001468C4B921464822104811F036FD2146ED
:1026300048220F4811F031FD0C2221460D4811F0BF
:102640002CFD204610BD1B6811601A46E1E71B688F
:102650000A60191DE1E7216813600A1DE0E700BF69
:10266000800200208402002088020020D400002084
:102670001C010020C800002010B505F065FA10B953
:102680000823184610BD05F067FA04460028F7D164
:10269000064803F022FF03460028F2D0044A40F225
:1026A000C231FEF7C5FE2346EBE700BF084A010032
:1026B0005449010005F07AB906F01AB808B505F0DA
:1026C0004BFA20B90A494FF4767002F0E7F94FF05F
:1026D0008043D3F83824920704D5BDE80840054864
:1026E000FFF716BED3F83824D107F2D408BD00BFD7
:1026F000544901001D4A010007B5822301A88DF845
:102700000430FFF705FE03B05DF804FBF7B504469F
:1027100020B9384940F26A5002F0C0F9636823B921
:10272000344940F26B5002F0B9F963681B6823B971
:10273000304940F26C5002F0B1F923681B6823B1B4
:102740002C4940F26D5002F0A9F905F005FA30B1BC
:10275000284940F2715002F0A1F9002613E005F07B
:10276000F3F90028F9D1F3E70078FFF757FD036884
:10277000013713B1112023E00027F9B22846FFF7F3
:10278000F5FC0028F0D131462046FFF703FD013665
:10279000F6B205460028EFD129462046FFF7FAFC9D
:1027A0000135EDB20646C8B9134D124E2B68BBB9C0
:1027B0002C600B2301A920468DF80430FFF7FEFCA6
:1027C00003B0F0BD00782146FFF74AFDF9B230466C
:1027D000FFF7CCFC01370028F4D1DDE70027F5E74F
:1027E000A34204D1314640F2975002F057F92B68CA
:1027F0001D68DBE75449010080020020024B187875
:10280000003818BF012070478C020020030710B564
:10281000044604D405F030FD204606F03BF820467F
:10282000BDE8104005F0E2BF05F0AABF014B1868F3
:10283000704700BF800200202DE9F8430F4B1C6851
:1028400006460D46BCB194F808904FF000085FFAB8
:1028500088F7B94504D82046FFF7D2FC0446F1E7D3
:1028600039462046FFF796FC0378B34208F1010889
:10287000EDD105B12F702046BDE8F883800200201D
:102880001146FFF79BBC07B500F00F03082B019121
:1028900009D8FFF7C3FC006828B1019903B05DF8BF
:1028A00004EBFFF78BBC102003B05DF804FB0000C5
:1028B00038B5074B1C68054604B938BD2946204683
:1028C000FFF77CFC2046FFF79BFC0446F4E700BFC3
:1028D0008002002038B5084B1C6805460CB906205C
:1028E00038BD29462046FFF769FC0628F8D1204666
:1028F000FFF786FC0446F1E78002002013B504468A
:10290000019105F0FAF950B1064B1B78022B06D164
:102910000199204602B0BDE8104005F0FBB908203F
:1029200002B010BD9402002013B50446019105F0D9
:10293000E4F950B1064B1B78022B06D101992046D1
:1029400002B0BDE8104005F06DBA082002B010BD1D
:102950009402002043689B6870B505460E461446F5
:102960009BB92B7AB34204D20F4940F2F92002F00E
:1029700095F8B4B931462846FFF70CFC4678054671
:10298000E1B2B14205D3002002E098470628E8D022
:1029900070BD2846FFF7EAFB0078FFF737FF0134E8
:1029A000EEE70720F4E700BF544901004368DB6805
:1029B00070B504460D4603B19847237AAB4204D262
:1029C0000B494FF4467002F069F829462046FFF79C
:1029D000E1FB467804460025E9B28E4200D870BD7E
:1029E0002046FFF7C3FB007805F0CAFE0135F3E788
:1029F0005449010043681B6903B1184718467047E2
:102A0000F8B50D4B0D4E1C6804B9F8BD277A0025AA
:102A1000E9B28F4204D82046FFF7F2FB0446F3E701
:102A200000222046FFF796FF20B1314640F26A703F
:102A300002F034F80135EBE7800200205449010030
:102A4000094B70B51C6804B970BD267A0025E9B23F
:102A50008E42204603D8FFF7D3FB0446F3E7FFF787
:102A6000A5FF0135F3E700BF8002002038B504461A
:102A700001F0B2FF052804D8904940F22C4002F042
:102A80000DF823780F2B13D9A3F1800283F0800374
:102A9000052B06D9BDE83840884940F2265001F0A0
:102AA000FDBF052AF6D8DFE802F06429467079D820
:102AB0000F2BEFD801A252F823F000BFBB2B000070
:102AC000E92B0000492C00000D2C00002B2C0000ED
:102AD0005B2C00006D2C0000952A0000AF2C00003C
:102AE000B32C0000B72C0000952A0000952A0000A6
:102AF000952A0000952A0000652C00007048FFF719
:102B00002DFB6F48FFF7D4FE0D20FFF71FFBFFF7EB
:102B100097FF00F0FCF96B4B1B6853B96A4B187AAE
:102B200000F0010004F0DEFF0120BDE83840FFF7AF
:102B3000AFBB0120F4E7FFF783FF05F0ABFD0020FA
:102B4000FFF7A6FB6148FFF7B3FE6048FFF706FBFF
:102B50000E20FFF7FBFA5E4B1B78023BDBB2062B25
:102B60003AD85C4AD35C002B36D0BDE8384003F03D
:102B700075BC574B1B78062B05D003F0FD03052BC6
:102B80002AD10220D1E70820CFE7514B1B78032B35
:102B900022D105F0CFFDF8B10420C6E74C4B1B78DD
:102BA000032B05D105F0C6FD10B10420FFF770FB23
:102BB00004F0DCFF80B10620B7E7454B1B78032B00
:102BC00001D0082B02D14448FFF750FF0020FFF747
:102BD000BDFA3C4B1D6805B938BD28462146FFF7B4
:102BE000EDFA2B685D68F6E7FFF72AFF00F086F93B
:102BF0000220FFF74DFB0120FFF7A8FA2046FFF760
:102C0000ADFA2046BDE83840FFF752BE304B1B7886
:102C1000082B06D10220FFF73BFB04F0EBFF03205B
:102C2000EAE70520FFF734FBF9E70320FFF78EFA08
:102C30002A48FFF793FA2948FFF73AFE244B1B78FE
:102C4000062B9ED1072070E70320FFF721FB02200F
:102C5000FFF77CFA2046FFF72BFE2046BDE8384000
:102C6000FFF77CBA0F20FFF771FACAE7A078FFF7E9
:102C7000D5FA0368054623B9104940F2025001F025
:102C80000DFF6B6823B90D4940F2035001F006FFB8
:102C90006B6828682146984700289DD0A0780207D5
:102CA0009AD0030798D4BDE8384005F0A7BA0820A9
:102CB000D9E70920D7E70A20D5E700BF544901002A
:102CC0001E4A010084020020C80000201F4A0100A3
:102CD00094020020FE490100204A0100214A01001F
:102CE00073B5224D002301932B6823B92049214855
:102CF00001F02DFF28602C68ECB1A68886B1E3882E
:102D0000B3F5006F24BF0023E380E388ADF80630FD
:102D10005A1C013EE280A68001A8FFF7A7FE07E04B
:102D20002046FFF7A3FE1249124801F03BFF2E6038
:102D3000012002B070BD104B18680028F9D0204661
:102D400001F02AFE0D4B0C481A88B2F5006F28BF1F
:102D50001C801A88ADF80620511C1980012101F051
:102D600054FF002001F028FED6E700BF98020020A3
:102D7000C4000020700200209002002064010020A6
:102D80000020704710B5044620B9044940F24320A2
:102D900001F084FE2368186810BD00BFA949010036
:102DA0002DE9F04F2DED028B4B6885B007460C46A0
:102DB00091466BB90868FFF7E5FF48B9A5683DB9CA
:102DC000C7E90055284605B0BDEC028BBDE8F08F81
:102DD000B9F1400F04D9354940F2991001F05EFE77
:102DE00005F06AF8E36801904B4528BF4B469846CA
:102DF00004F110034FF0000A08EE103A5646012580
:102E0000B8F1000F2DD0A368616843459B4628BFE9
:102E1000C34651B3019B5A46981911F015F9002386
:102E20006360A368E268A3EB0B03A2EB0B02A36051
:102E3000E260A8EB0B085E4433B9BAF1000F03D08F
:102E40002068FFF79FFF2060E368002B2CD0A36869
:102E5000002BD5D12268BAB9626016B1B14588BFDE
:102E60000025019BC7E90036ACE7002BD9D02168CB
:102E7000019A4B6818EE100AD3F804A032445B465E
:102E8000D0474FF0010ACCE7029321684B6800223B
:102E9000D3F804B002A80123D84708B92061AFE7EE
:102EA000A3680133A360F0E71D46A9E7224A0100A9
:102EB000084B1A7882420CD0052818BF064A1870B1
:102EC00018BF137805481CBF23F002031370FFF7E7
:102ED000CDBD7047A8020020C40200208C4A01002A
:102EE00010B5054C227802F0FB02012A02D1002025
:102EF000FFF7DEFF207810BDA802002008B50020F3
:102F0000FFF784FCBDE808408020FFF77FBC08B5D0
:102F10000020FFF789FCBDE808408020FFF784BC53
:102F200038B505460C4605F037FAA84205BFD4E986
:102F30000001034B1020C3E9000108BF002038BD89
:102F4000C80200207FB5C38893421E4628BF16469C
:102F500093420D46144620D9802004F0C9FEB4FBEC
:102F6000F0F202FB1040B0FA80F04009039000201C
:102F7000CDE9015601F010FD01A98020FFF7BEFC4C
:102F8000044620B906498020FFF7CAFF0446002006
:102F900001F012FD204604B070BD0020E6E700BF3E
:102FA000C04A01002DE9F04F0B780E2B89B0044682
:102FB0000D4613D8A3B1013B0D2B11D8DFE813F058
:102FC000120025001600100036003F02100010000D
:102FD0001000100014021F022C023402852B1FD097
:102FE000062419E00320FFF763FFF9E7AC4801F07E
:102FF0001AFE30B1AB4B01221A60BFF36F8FBFF3E3
:103000004F8FFFF76DFF044608B1002404E0A64986
:1030100040F2444001F042FD204609B0BDE8F08F87
:10302000FFF75EFF0328DBD10420DCE705230DF169
:1030300015008DF8143005F043F99DF815709B4D7F
:10304000002307F01F072B60032F00F28B81DFE8BE
:1030500017F004001D018001D80024B9924940F204
:103060006A3001F01BFD9DF8153013F0600FC3F3BB
:10307000411640F0C680DC099DF8161000F0B280C1
:10308000062918D0082900F0A080002940F0B98056
:10309000874C0222204611F000F8237843F0010209
:1030A0002270844A1278900744BF43F003032370D0
:1030B00002227F490FE09DF81830022B11D0032B1C
:1030C00075D0012B40F09D80BDF81B30002B00F027
:1030D000AC80794912220DF11500FFF733FF044649
:1030E0003BE0BDF81B30002B00F09F80092B28BF70
:1030F00009239846FFF79AFBDFF8ACA106464FF08C
:1031000009097EBB6A4C6D494246204610F09CFF7F
:103110002771A4F80290FFF771FB18B1E37943F02F
:103120002003E371FFF782FB654BC3E90004C3F89A
:103130000880BDF81B20DA60002001F02DFC6149F9
:103140008020FFF7F1FB044620B95F498020FFF79C
:10315000E7FE0446002001F02FFC062C51D0002C85
:1031600063D05AE0736823B9514640F2D32001F08E
:1031700095FC73685B6823B951464FF4357001F0D4
:103180008DFC0024039473680022D3F804B0314608
:10319000012303A8D84740B9337A30461F44FFF7CC
:1031A000F1FDA144FFB20646ABE70134EBE7BDF801
:1031B0001B30002B39D0BDF819109DF8170001F015
:1031C000ADFB0146E8B1027885E7FFF789FE0528E7
:1031D00003D1374B1C7001226BE7042811D1344B0B
:1031E0001E70F8E7013908290BD8DFE801F02B0A37
:1031F0000E0A050A0A0A38002B4940F28E3001F007
:103200004DFC05A8FFF766FBA1E0BDF81730012BC8
:10321000F7D1FFF7F3FA18B90F2405F0B3F8FBE67E
:10322000244A137843F0020313702C68002C00F03A
:10323000258105F0B1F8044600287FF4E6AE05F0DC
:1032400065F8E9E6BDF81730012BDAD1FFF7D6FAB9
:103250000028E1D0174A137823F00203E4E7FFF7D0
:103260003FFE0438C0B2012801D90824D5E79DF8F3
:1032700017302BB9FFF7E4FB0420FFF719FED4E762
:10328000012B5DD1FFF7BCFB0520F6E79DF8190087
:1032900003A9FFF7D1FA0646C0B91024BDE700BF65
:1032A000D00200205C700240224A0100C8020020C7
:1032B000D4020020C4020020AC4A01008D4A010063
:1032C000AC020020C84A0100C04A01009DF80C1061
:1032D00005AAFFF7D5FA062804467FF440AF9DF80B
:1032E000153013F0600F98D19DF80C100191FFF785
:1032F000F7FD9DF815209DF816300199D20916D0DA
:103300007BB10A2B89D10528AFD130460192FFF756
:1033100071FB5D49019A08700DF11500FFF712FE6F
:1033200015E00528A1D158490B800222F4E70B2BA8
:103330007FF473AF052898D1BDF81730FF2B01D962
:1033400007246AE79DF817203046FFF703FB044681
:1033500005E79DF81900010706D19DF8153013F017
:10336000600F09D0062458E705A9FFF78CFA062854
:1033700004467FF4F4AEF0E79DF81940FFF7B0FD86
:103380009DF81630012B1DD0032B0CD0002BE9D15A
:10339000052802D022077FF468AF204604F04CFFD6
:1033A00039490880C1E72307DCD4BDF81730002B6A
:1033B000D8D12707D6D005287FF457AF204604F090
:1033C0001DFF32E72607CDD4BDF81730002BC9D139
:1033D0002107C7D005287FF448AF204604F04CFFF2
:1033E000204605F057FA20E7FFF77AFD00283FF462
:1033F0000CAE26494FF48B6001F050FB05E6FFF759
:103400006FFD012804D0214940F25E4001F046FBE7
:103410000020FFF74DFDF8E54FF08043D3F8383436
:10342000DA070AD50220F4E7FFF75AFD012804D88D
:10343000164940F2724001F031FB0120E9E7CB78F8
:10344000032B3FF4CDAD8B785B0604D00F494FF4CE
:10345000906001F023FB0E4E336893B10022716837
:10346000E87832609847044600287FF4D6AE336887
:1034700023B1AB78002B7FF4C8ADE0E604F078FF11
:10348000CAE50E24C9E600BFD4020020224A01008A
:10349000C802002008B1402303600148704700BF04
:1034A000D40200200068704738B50D46044620B9A4
:1034B00006494FF4887001F0F1FA237AAB4283BFDA
:1034C000093405EB45056019002038BDD04A0100DC
:1034D00038B50D46044620B9064940F2431001F0C4
:1034E000DDFA6378AB4283BFA07840190019002051
:1034F00038BD00BFD04A010008B50021FFF7D4FF56
:103500000021FFF7E5FF007808BD08B50021FFF7AF
:10351000CBFF0121FFF7DCFF007808BD2DE9F84360
:10352000B14F99460B7A3B700E469046054620B93E
:10353000AE4940F6DC0001F0B1FA2C6854B3A4F6B1
:10354000E304202C00F24C81202C00F24981DFE8BA
:1035500014F03500440047014701470147015A0074
:1035600069007A0089009900A900B8004701470165
:10357000470147014701470147014701470147010B
:10358000DA00E900470147014701FE000D011C0177
:103590002B013A01964B1C70954B1A783B789A4256
:1035A00002D340F6081305E00923A1452B7106D884
:1035B00040F6E3032B600120BDE8F8830024B8F156
:1035C000000F02D02B7908F80430013404234C4555
:1035D0002B7103D340F6E403ECE70024B8F1000FAD
:1035E00002D02B7908F80430814B30461978FFF768
:1035F0005BFF804B013418604C4503782B7103D37B
:1036000040F6E903D6E70024B8F1000F02D02B7989
:1036100008F80430013400234C452B7103D340F6E5
:10362000EA03C7E70024B8F1000F02D02B7908F8AD
:103630000430704B1B6801345B782B714C4503D30D
:1036400040F6EB03B6E70024B8F1000F02D02B7967
:1036500008F80430013408234C452B7103D340F69D
:10366000EC03A7E70024B8F1000F02D02B7908F88B
:103670000430013496F828302B714C4503D340F6C2
:10368000ED0397E70024B8F1000F02D02B7908F87A
:103690000430013496F829302B714C4503D340F6A1
:1036A000EE0387E70024B8F1000F02D02B7908F869
:1036B0000430013400234C452B7103D340F6EF0353
:1036C00078E70024B8F1000F02D02B7908F8043015
:1036D000484B1B685A78484B1A70484B00220134FB
:1036E0001A70464B1A78444B1B789A4204D3404ACE
:1036F0001378013313704FE70723A1452B7103D8CB
:1037000040F6FA0356E70024B8F1000F02D02B79F7
:1037100008F80430013405234C452B7103D340F6DF
:10372000FB0347E70024B8F1000F02D02B7908F81B
:103730000430324B19782F4B1868FFF7C9FE01345B
:1037400003782B714C4503D340F6FF0332E7002486
:10375000B8F1000F02D02B7908F8043001340223AD
:103760004C452B7103D34FF4106323E70024B8F1C9
:10377000000F02D02B7908F80430013440234C4567
:103780002B7103D340F6011314E70024B8F1000FA6
:1037900002D02B7908F80430013400234C452B71FA
:1037A00003D340F6021305E70024B8F1000F02D05E
:1037B0002B7908F80430013400234C452B7103D3D6
:1037C00040F60313F6E60024B8F1000F02D02B797F
:1037D00008F80430094A137801330134137080E784
:1037E00000232B601846E7E616030020074B010074
:1037F00015030020180300201403002017030020E5
:1038000010B5044618B906498E2001F047F923681F
:103810001BB903498F2001F041F920680C3010BD1D
:10382000074B010003681B6937B504460D4633B9E1
:10383000074901924FF4A37001F030F9019A23680F
:103840001B692946204603B0BDE83040184700BF39
:103850006A4B010003685B6910B5044623B905494A
:103860004FF4AA7001F01AF9236820465B69BDE89D
:10387000104018476A4B010003685B6810B50446A6
:103880001BB90549FD2001F009F9236820465B6852
:10389000BDE81040184700BF6A4B010038B5054627
:1038A000FFF7AEFF0446002001F076F894F83120CF
:1038B00094F832309A4204D30C494FF4897001F0E5
:1038C000EDF894F83120AB699A4204D3074940F2ED
:1038D000131001F0E3F894F83130013384F83130FB
:1038E000BDE83840002001F067B800BF074B010079
:1038F00038B50546FFF784FF0446002001F04CF878
:1039000094F8313023B913494FF4A37001F0C6F88D
:1039100094F8323023B90F4940F2471001F0BEF855
:1039200094F83130013B84F8313094F83230013B67
:1039300084F8323094F83030A9690133B3FBF1F2E6
:1039400001FB123384F83030BDE83840002001F02C
:1039500033B800BF074B01000149822001F09EB837
:10396000074B01002DE9FF41884617461E460446D5
:1039700008B9FFF7F1FF2046FFF742FF0546204652
:10398000FFF7BAFD002301A9CDE901870393FEF7F4
:10399000B5FF00B92E7004B0BDE8F0817FB50E46CA
:1039A000054608B9FFF7D8FF2846FFF729FF044668
:1039B0002846FFF7A1FDE36CA26B84F82C609342CC
:1039C00038BF13461A0A84F8283084F829201A0CC4
:1039D0001B0E84F82B3004F1200384F82A20019375
:1039E0000D22002301A9CDE90223FEF787FF08B9C4
:1039F0000623237004B070BD7FB5044608B9FFF7F5
:103A0000ABFF2046FFF7FCFE05462046FFF77DFD95
:103A10006E1C04461F220021304610F03EFB1F2280
:103A2000002301A92046CDE902230196FEF766FF97
:103A300008B902232B7004B070BDF8B50F460446D8
:103A400008B9FFF789FF2046FFF7DAFE0646204651
:103A5000FFF752FD05462046FFF757FD044628466E
:103A600004F0CCFB204604F0C9FB284604F068FDB6
:103A7000204604F065FD3770F8BD38B5856804460A
:103A80000DB9FFF769FF2846FFF7BAFE6368026DBC
:103A90005968436C0A440265826C4B43934294BF5D
:103AA000D21A00228264C26C0021934294BFD31ABE
:103AB0000B46C36480F8541038BD10B5044608B9ED
:103AC000FFF74AFF2046FFF79BFE0930FFF7EAFCAD
:103AD00028B920460121BDE81040FFF75FBF20460E
:103AE0000721FFF7AAFF002010BD70B50546FFF7BC
:103AF00087FE0646002000F04FFF2846FFF780FEB5
:103B000090F831402CB1D5E9043296F8304002FBF0
:103B10000434002000F050FF204670BD2DE9FF4125
:103B2000054608B9FFF718FF2846FFF769FE90F829
:103B30005430044623B10025284604B0BDE8F08186
:103B400090F85530002B68D1836C002B52D028465A
:103B5000FFF756FE90F83130002BECD0EB69A27BDA
:103B6000A76C53F822802846FFF74AFE6E69436C23
:103B7000B74228BF374628467E1E1E44B6FBF3F6E2
:103B8000FFF7B3FF054620B9254940F2F53000F0B4
:103B900085FF236D0395CDE90136012384F8543068
:103BA000D8F80030DB6823B91E494FF4977000F055
:103BB00075FFD8F800305B6923B91A4940F22F101D
:103BC00000F06CFFD8F80030019D5B6940469847D3
:103BD00003689D420CD2D8F8003001A9DB6840464A
:103BE000984705460028A7D0002384F85430A3E75F
:103BF0000725F9E70378052B9DD1C36C6BB990F8C5
:103C00002C102846FFF7CAFE0546002894D0044928
:103C100040F20D4000F042FF8EE706258CE700BF22
:103C2000074B01006A4B010070B50546FFF7E8FD40
:103C30000646002000F0B0FE2846FFF7E1FDA96926
:103C400090F832308B4215D296F8323096F83040E8
:103C5000E218B2FBF1F401FB1424D5E90421E4B22B
:103C6000013301FB042486F83230002000F0A4FE6A
:103C7000204670BD0024F8E72DE9FF41044608B94D
:103C8000FFF76AFE2046FFF7BBFD90F83C30054683
:103C90001BB1002004B0BDE8F081436B002BF8D0CD
:103CA0002046FFF7ADFDA36990F832209A42F0D28A
:103CB0002046FFF7B9FF6B6B6269934228BF13463A
:103CC0009846064620B90E4940F2D13000F0E6FE93
:103CD000012385F83C302046FFF792FD0746204639
:103CE000FFF713FC002401A9CDE901680394FEF756
:103CF00005FE10B905233B70CCE785F83C40C9E7C9
:103D0000074B010073B5044608B9FFF725FE2046AE
:103D1000FFF776FD90F83C3005461BB100242046A5
:103D200002B070BD90F83D30002B3BD1436B33B3F4
:103D30002046FFF765FD90F83130002BEED020468D
:103D4000FFF7D3FE6A6B63699A4228BF1A4606469C
:103D500030B91549019240F27F3000F09FFE019A80
:103D6000012385F83C30204604233146FFF7FAFD55
:103D700004460028D3D0002385F83C30CFE70378F1
:103D8000042BCBD1836B6BB990F82C102046FFF736
:103D900005FE04460028C2D003494FF4647000F0C9
:103DA0007DFEBCE70624BAE7074B010038B5D36CAB
:103DB0000546144623B9BDE838400121FFF7EEBDA2
:103DC000936C23B92846BDE83840FFF776BE92F9D8
:103DD0000D30002BF6DB0846FFF712FD00230386AB
:103DE00080F83230D4E912239A4288BFA364A363D7
:103DF000A36C636388BF02224FF0000388BF84F87E
:103E00002C2084F83C3084F854302846FFF734FFE7
:103E1000044610B12846FFF750FE204638BD00008A
:103E20002DE9FF41054608B9FFF796FD2846FFF743
:103E3000E7FC90F8543004461BB1002004B0BDE804
:103E4000F08190F85530002B55D1836C002BF4D0C5
:103E50002846FFF7D5FCAB6990F832209A42ECD2A5
:103E6000EB69A27BA76C53F822802846FFF7C8FCB9
:103E70006E69436CB74228BF374628467E1E1E44F3
:103E8000B6FBF3F6FFF7D0FE054620B91B4940F21A
:103E9000AF3000F003FE236D0395CDE90136012319
:103EA00084F85430D8F800309B6823B914494FF493
:103EB000897000F0F3FDD8F800305B6923B9104930
:103EC00040F2131000F0EAFDD8F80030019D5B6964
:103ED0004046984703689D420BD2D8F8003001A9AC
:103EE0009B68404698470028A8D0002384F85430A7
:103EF000A4E70720F9E70620A0E700BF074B010071
:103F00006A4B01000B78022B70B50C4602D0032BD4
:103F100029D070BD002000F03FFDA5680DB9FFF766
:103F20001BFD2846FFF76CFC06462846FFF7B6FC4B
:103F3000637853B92046FFF7A0FD2846FFF7E2FE5D
:103F400038B12846FFF7B9FD08E0012386F83D3077
:103F5000F3E72846FFF764FF0028F2D1BDE8704080
:103F6000002000F029BD002000F016FDA5680DB965
:103F7000FFF7F2FC2846FFF7BBFC63785BB92046ED
:103F8000FFF77BFD2846FFF777FE0028D9D12846AA
:103F9000FFF7C4FDE0E72846FFF78FFDF2E738B5ED
:103FA000D36C0546144623B9BDE838400121FFF71C
:103FB000F5BC936C23B92846BDE83840FFF77DBDBA
:103FC00092F90D30002BF6DA0846FFF719FC0023B2
:103FD000038680F83230D4E912239A4288BFA36462
:103FE000A363A36C636388BF02224FF0000388BF02
:103FF00084F82C2084F83C3084F854302846FFF7AD
:104000000FFF044610B12846FFF757FD204638BD84
:104010002DE9F04F0E4687B0054628BBAF494FF457
:10402000046000F03BFD2EB9AC4940F6410000F0C1
:1040300035FD0DB9FFF790FC2846FFF7E1FB33781B
:1040400007460E2B32D8DFE813F01C001200A50340
:104050001C0031002100E30031003100310031004B
:10406000A7031C00C203FF030029E5D1DCE70D22F2
:10407000002110F012F89A49042207F120000FF0F5
:10408000E3FF0024204607B0BDE8F08F25B993492F
:1040900040F2213000F002FD7278D1094FEA52134C
:1040A0004ED013F0030303D0012B26D00624E9E7FA
:1040B00002F01F02012AF9D1B478062CF6D105A826
:1040C0000493FFF7E7F904AB0093F27831790346E4
:1040D00007462846FEF7C6F90528D3D0049B3F2B98
:1040E00004D97E494FF4187000F0D8FC049A394680
:1040F000701CFEF727FF0446C4E70DB9FFF72CFC40
:10410000B378FE2BD2D1B6F80330002BCED1B6F85F
:104110000730012BCAD105A8FFF7BCF92B6A04466A
:1041200023B96E4940F2CE2000F0B8FC2B6A013B67
:1041300023802846FFF760FC01222146B018D8E70B
:104140004BB3012BB2D10DB9FFF706FC2846FFF7A0
:1041500057FBB378FF2B0746A8D1B6F80330002BE6
:10416000A4D1B6F80740002CA0D12846FFF7C4F927
:1041700080462846FFF7C9F90646404604F0E0F9B4
:10418000304604F0DDF93B78022B3FF47AAF284645
:10419000FFF732FC76E70DB9FFF7DEFB2846FFF7A5
:1041A0002FFB747804F01F04022C07467FF47EAFC7
:1041B00096F80280B8F1010F7FF478AFB6F80330BB
:1041C000002B7FF473AF0378082B00F072837679AD
:1041D000304604F051F8304604F05CFB33067FF5BE
:1041E00050AF3B78072B0CD0092B7FF44AAF284601
:1041F000FFF78BF904F04EFB21462846FFF7CEFB74
:1042000079E72846FFF781F904F044FB0121F4E740
:1042100096F90230002B65DA0DB9FFF79DFB2846B1
:10422000FFF7EEFA05A90446B07803F049FE08B19D
:1042300000230593F378002B7FF423AF2378033B0F
:10424000042B48D801A252F823F000BF61420000BD
:104250006D4200008340000083400000AD4000003C
:10426000E36C059A9B1AE3640021C6E7059E0DB92D
:10427000FFF772FB2846FFF7C3FA6A69436B934264
:1042800028BF13469E42044604D0144940F24C70A5
:1042900000F004FC626B0023964284F83C3098BF27
:1042A000931B6363A36B9E4294BF9B1B0023A3637A
:1042B0002846FFF71DFB2846FFF724FD044630B9CA
:1042C0002846FFF7ADFD044600283FF4DAAE284645
:1042D000FFF7F3FBD6E60324D4E600BF074B01004B
:1042E000CA4B01000DB9FFF737FB2846FFF788FAE4
:1042F00004A90446B07803F0E3FD08B10023049359
:10430000F278012A0CD12378052B3FF4BAAE062BA4
:1043100002D0012B7FF4B5AE2846FFF76DFBEAE62D
:10432000032A02D101232370ABE6022A237808D1A5
:10433000052B04D109212846FFF77FFBA1E60821C0
:10434000F9E7023B052B00F2138201A252F823F099
:1043500069430000714700007147000005470000F5
:1043600083400000AD4000000DB9FFF7F5FA284684
:10437000FFF746FA044628220021303004F12406D3
:104380000FF08BFE0021042230460FF086FE2846F7
:10439000FFF7BBF805A903F093FD08B100230593CF
:1043A000059B1F2BCBD1CA490422601C0FF074FC63
:1043B00007460028C3D10422611D30460FF044FE99
:1043C000A67B84F82C7004F1090284F84060104642
:1043D000FFF768F82B6AE0649E4203D32846FFF794
:1043E0006CFB88E6237C2A2B5ED8112B07D80A2B7E
:1043F0003ED91046FFF756F80028EFD106E7123BEA
:10440000182BF6D801A151F823F000BFB7450000E2
:10441000F3430000F343000069420000F34300004F
:10442000F3430000F3430000F34300003F46000065
:1044300069420000F3430000694200000D420000A1
:10444000F3430000F3430000F3430000F343000094
:10445000F3430000F34300006F460000F343000005
:10446000F3430000A5460000F3430000D9460000D6
:104470000A2BBED801A151F823F000BFE54400008B
:10448000F3430000F3430000FB440000DD43000061
:10449000F3430000F3430000F34300003F450000F6
:1044A000F34300007B450000552B3FF4DDAE5A2B53
:1044B0009FD1E37B092B91D91046FEF7F3FF042827
:1044C00006468BD804F158080822394640460FF0BA
:1044D000E4FD062384F8593084F8587003233246EB
:1044E000414628E01046FEF7DDFF00287FF476AF56
:1044F000E37B062B3FF4B8AE70E7E37B052B7FF63A
:104500006DAF1046FEF7CEFF122806463FF666AFA7
:1045100000283FF4A9AE04F15807122200213846C2
:104520000FF0BBFDF02384F858300B2384F85F3084
:104530003246032339462846FFF714FADBE5E37BCE
:10454000052B7FF64BAFEB6953F82600FFF782F996
:10455000A27CE37C4168207D616443EA0223627CA3
:10456000120402F4F812134341432365A164224666
:1045700029462846FFF713FDBDE5E37B052B7FF6B3
:104580002DAFEB6953F82600FFF764F9A27CE37CBA
:104590004168207D616443EA0223627C120402F4D4
:1045A000F812134341432365A16422462946284655
:1045B000FFF7FCFB9FE5A37C002B7FF40FAF1046B9
:1045C000FEF770FF242807463FF608AF00283FF4A7
:1045D0004BAE404AA265202284F85C20EA690121A2
:1045E00052F82600059305AAFFF71CF9059904F176
:1045F000600004F1680804F17806082289B10968AE
:104600000FF0B5FB059B1022596840460FF0AFFB39
:10461000059B0422996830460FF0A9FB03233A4614
:1046200022E003910FF039FD0399102240460FF06C
:1046300034FD0399042230460FF02FFDEEE7E37BB3
:10464000052B7FF6CBAE1046FEF72CFF04283FF675
:10465000C5AE0022032384F8592084F85A2084F838
:104660005B2084F85830024604F1580163E7E37B8D
:10467000092B7FF6B3AE1046FEF714FF0828074655
:104680003FF6ACAE00283FF4EFADEB6953F82600DF
:10469000FFF7E0F80368013B1BBAA36543681BBA48
:1046A000E365BBE7E37B092B7FF698AEEB6953F834
:1046B0002600FFF7CFF8E17D227E4368636442EA7B
:1046C0000122D4F81210534309BA2165A3644EE7BE
:1046D000C64B010000800612E37B092B7FF67EAEFD
:1046E000EB6953F82600FFF7B5F8E17D227E4368B9
:1046F000636442EA0122D4F81210534309BA2165D7
:10470000A36452E7002000F047F9049C0DB9FFF7BD
:1047100023F92846FFF774F86B69426B934228BF70
:1047200013469C421CBF012380F8553094424FF041
:10473000000380F83C3098BF131B4363836B9C429B
:1047400094BF1B1B002383632846FFF7A7F8284666
:10475000FFF792FA044620B92846FFF7DFF904462E
:1047600010B12846FFF7A9F9002000F025F989E4E7
:10477000514940F62E0000F091F997E4EB690022D0
:1047800053F824001146FFF74DF801342B6AA34279
:10479000F4D876E40024F9E70021032000F0BEF805
:1047A000044600283FF482AC0378192B4FEA5306E5
:1047B0007FF67CAC0125B542BFF463AC34F815003C
:1047C0000FF0E7F900283FF471AC0135F3E72B6AED
:1047D000102B04D9384940F6990000F05FF9002603
:1047E000DFF8DC80DFF8DC90DFF8CCA034462B6A01
:1047F000B3427FF647ACEB6953F826B0DBF80030E4
:104800001B681BB94146F02000F048F9DBF8003086
:104810002A461B68494658469847044690B9B7F857
:104820007C200123B3401343A7F87C305846FFF7A0
:1048300011F86B6942689A4204D9514640F6A500C6
:1048400000F02CF90136D2E72B6A102B04D91A4953
:1048500040F6AF0000F022F9184B0026344643F032
:1048600001082B6AB3427FF60DACEB6953F826A022
:104870005046FFF701F84FF0FB090446112C0CD10C
:10488000B9F1010901D10136EBE74FF47A40C04795
:104890005046FEF7F1FF0446F0E7002CF3D1012368
:1048A00003FA06F2B7F87C3023EA0203A7F87C305B
:1048B000E9E70F24FFF7E6BB074B0100C04B0100FF
:1048C0006A4B0100053F0000F8B5124B53F8205029
:1048D0002B7813B9AE1C3046F8BD0020FEF7DAFD88
:1048E0000D4F0646013D002315F8012F5C1C2AB927
:1048F0006400E4B244F440743480ECE71E2B03D926
:104900003946FC2000F0CAF8E3B22A7826F81320D2
:10491000EAE700BF884C0100CE4B0100034608B90E
:10492000FFF7D2BF012807D0022805D0032803D003
:10493000042801D0052809D1054800EB4303587825
:1049400020B1044B53F82030002BE9D100207047F0
:10495000A04C0100884C010072B6024A1368013372
:10496000136070471C030020034A1368013B136067
:1049700003B962B6704700BF1C030020EFF3058344
:10498000C3F308032BB9EFF31480C04300F0010018
:10499000704701207047000008B5FFF7EFFF0128BE
:1049A00003D00449432000F079F8BDE80840FFF740
:1049B000D3BF00BFAC4C010008B5FFF7DFFF0128F3
:1049C00003D00449512000F069F8BDE80840FFF722
:1049D000CBBF00BFAC4C0100EFF30583C3F308036A
:1049E0008BB1103B5AB2002AABBF02F16043074AB9
:1049F00003F5614303F00F03ACBF93F80003D05CF1
:104A00004009C0B270470F20704700BF14ED00E0AE
:104A1000024B034A1B681068184700BF2803002098
:104A2000200300201EF0040F1CBFEFF309800AE0F2
:104A3000EFF308800549064A884201D8904202D81F
:104A40008D464FF00000034B184700000000042083
:104A500000E003207D4A0000BFF34F8F0549064B5D
:104A6000CA6802F4E0621343CB60BFF34F8F00BF0C
:104A7000FDE700BF00ED00E00400FA0508B5054BB6
:104A80009A6ADB6A044B1B68DB0700D500BEFFF7A0
:104A9000E3FF08BD00ED00E0F0ED00E007B5CDE973
:104AA00000016A46002144F20200FCF7CFFC03B08B
:104AB0005DF804FB10B561B1B2FBF3F403FB142401
:104AC000A4B244B9C0E9001484608281C381204645
:104AD00010BD0E20FCE70920FAE737B550E8013F8A
:104AE0009DB2C48925448489A54228BF2D1B048911
:104AF000A54202BFBFF32F8F002207E0C5EA0305DE
:104B000040E80154002CE9D14FF001028DF8032058
:104B10000193019B9DF803200B6002F0FF0322B17B
:104B20000B880068184403B030BD1846FBE70A88BC
:104B30004B889A4209D150E8012FC2EA024240E86C
:104B40000123002BF7D1012070470020704737B5B3
:104B500050E8023F1FFAA3F5C488A54202BFBFF385
:104B60002F8F00220DE0C48925448489A54228BFE7
:104B70002D1BC3EA054540E80254002CE8D14FF054
:104B800001028DF803200193019B9DF803200B6027
:104B900002F0FF0322B14B880068184403B030BD17
:104BA0001846FBE70A884B889A4209D150E8022F41
:104BB000C2EA224240E80223002BF7D101207047CD
:104BC0000020704710B5034653E8000F0A4643E83B
:104BD000002494F0000FF7D110BD10B5034653E840
:104BE000000F00EA010243E8002494F0000FF6D120
:104BF00010BD10B5034653E8002F02EB010043E857
:104C0000000494F0000FF6D110BD10B5034653E830
:104C1000002F8A422CBF501A104643E8000494F03B
:104C2000000FF4D110BD0021FFF7D7BF19B1012942
:104C300005D00620704702B111700020704712B1F4
:104C400004301060F9E707207047000010B50446F3
:104C500020B9034940F27D10FFF720FFA06910BD85
:104C60000A4D010008B5FDF755FA0028FBD108BD33
:104C7000F0B50C4685B0054620B91F494FF4947035
:104C8000FFF70CFF24B91C4940F22910FFF706FF7B
:104C90001A4B1B68AB4203D01124204605B0F0BD6F
:104CA000AE69FDF737FA0028F6D194E8070006F15F
:104CB0000C0787E80700A2882168A068FCF7A6FD1A
:104CC000044640B9B36833B9FFF7CCFF0C4B1B78EF
:104CD000002B18BF0D24B368002BDED0002CDCD0D5
:104CE0004FF48172ADF80420B2690297039201A9D2
:104CF00028469847D1E700BF0A4D01002C03002049
:104D000030030020F0B50C4685B0054618B91E49A1
:104D1000F620FFF7C3FE1CB91B49F720FFF7BEFEC4
:104D20001A4B1B68AB4203D01124204605B0F0BDDE
:104D3000AE69FDF7EFF90028F6D194E8070006F117
:104D40000C0787E80700A2882168A068FCF720FD0F
:104D5000044640B9B36833B9FFF784FF0C4B1B78A6
:104D6000002B18BF0D24B368002BDED0002CDCD044
:104D70004FF48172ADF80420B2690297039201A941
:104D800028469847D1E700BF0A4D01002C030020B8
:104D9000300300207FB5054618B91049CA20FFF737
:104DA0007DFEAE69FDF7B6F9FCF708FE044608B9CA
:104DB0000B4B1860B36873B101228DF80420221EDA
:104DC00018BF01228DF8052000220292B2690392D9
:104DD00001A928469847204604B070BD0A4D01003D
:104DE0002C0300202DE9FF410E461546044618B954
:104DF0001B499220FFF752FE2369B3F5007F2BD1A8
:104E0000184F3B6853BBD4F818801749C8F818509E
:104E1000C8F8086004F114003C60FCF747FD054643
:104E200030B9AEB9FFF71EFF104B1B7883B10D25CB
:104E300000233B6066B14FF480720293D8F81830BB
:104E40000393ADF80420D8F8083001A9204698470C
:104E5000284604B0BDE8F0810625F9E71125F7E7FB
:104E60000A4D01002C030020714E00003003002089
:104E7000F0B52A4A43782A4F137002783D68012A18
:104E8000AC6985B0064629D0022A3BD0002A3ED123
:104E90003BB12846FFF77EFF18B1224A5821FCF7A4
:104EA000C7FAFDF747F9036823604FF400736360A6
:104EB0003B689B699B687BB1737800229B1A18BF83
:104EC00001238DF804208DF80530A3690393029225
:104ED000A36801A92846984705B0F0BDA268002A3A
:104EE000FAD00221003B18BF01238DF8053004F1F0
:104EF0000C038DF804100293A369039301A92846BB
:104F00009047E9E7A268002AE6D00321EAE7054ACC
:104F100088210320FCF78CFADEE700BF3003002075
:104F20002C0300200A4D010010B50D49A1F58C722B
:104F3000914201D800200FE08C1AE30F03EBE40349
:104F40005B1002EBC30452F83330834205D802D21F
:104F500004F10802ECE7606810BD2146E8E700BFF5
:104F60004852010008B5FFF7DFFF024B002808BFD9
:104F7000184608BD1D5101000268530910B50446CA
:104F800018D0012B4FF6FF7318BF002302F01F0249
:104F9000D340DB0704D409494FF4F670FFF77EFDD8
:104FA00023681F2B83BF03F01F03054823604FF0C6
:104FB000A04010BD4FF0FF33E8E700BF6848010094
:104FC000000300502DE9F8430468054694F82000DA
:104FD00003F0B2FC04F11807FF264FF0FF394FF041
:104FE0000008207AFF2802D003F0A6FC2672607A1F
:104FF000FF2802D003F0A0FC66722068431C03D097
:1050000001F0C0FCC4F8009084F80B800C34BC4262
:10501000E7D16868BDE8F84303F004BE2DE9F0412C
:10502000134EDFF850800C460025012706EB4106A1
:10503000735D5BB1735D013BDBB27355735D93B917
:1050400058F824301B682046DB6998474DB167B19A
:10505000084B53F824300221BDE8F041586803F0B2
:10506000A3BE0125E4E70027F0E7BDE8F08100BF1B
:105070004D0300203403002010B540680B4902792D
:105080008C5CFF2CE3B20DD0FE2B0DD0006803F535
:10509000A87350F82330064850F82200984203D1F4
:1050A000FF238B54002010BD0120FCE748030020A3
:1050B0005803002001292DE9F74F066804460D46E4
:1050C000904604D95F4940F25B20FFF7E7FC0C23D0
:1050D00003FB0563DB7A012B04D05A494FF41770A8
:1050E000FFF7DCFC96F82130022B40F0A6800C275D
:1050F0006F43F3195B68984509D1F3691BB9002028
:1051000003B0BDE8F08F626810799847F7E7204652
:10511000FFF7B2FF0190002840F091806268DFF84D
:1051200034A11279FE210AF80210266896F82000B0
:1051300003F056FCD146019BB8F1000F1FD1374454
:10514000787A03F04DFC387A03F034FC63681B79FD
:10515000FF220AF803200C2303FB05662368C6F828
:105160000480DB69002BCAD063681A79364B03EBE5
:10517000420302215955606803F0EAFDBFE7B169B7
:10518000884507D337441FFA81F8387A03F028FCA2
:10519000787AD9E705EB45024FEA820B06EB8202EB
:1051A00060685268914243D0002A41D090453FD276
:1051B000032103F09FFDD4F804A096F820709AF81C
:1051C0000530032B04D8214940F27110FFF766FC2B
:1051D0000C2303FB0563DAF800109B7A56F80B00EA
:1051E00001F5A67A0BB301F0C7FC024651463846DA
:1051F00003F0C0FB96F8200003F0DCFB6368144A60
:105200001B7909F8035042F823800C2707FB056738
:10521000606800234246294603F06CFD387A03F0AB
:10522000C9FB787A03F0C6FB95E701F07BFCDCE76D
:105230000379FF2209F80320E7E7082060E711203F
:105240005EE700BF485201004D0300209B52010061
:10525000580300204803002003681B8B5A43642333
:10526000B2FBF3F292B2FFF725BF00002DE9F04F39
:105270002DED028B8DB004460291059220B9C049F4
:1052800040F21130FFF70AFC029B002B00F0738103
:10529000276897F82130002B40F06F8103F0C0FDA4
:1052A00008B1852844D101F0D9FA002837D0B54B90
:1052B000B54A1B6803F0F003303B18BF012313709D
:1052C000FF2387F820304FF6FF7300223B814FF019
:1052D000FF33FA723B60FA75BB82FB6007F1200076
:1052E00003F0FCFA804600BB029B08330546069398
:1052F000EBB208EE103A029B53F825305A1C00F02E
:10530000B580266896F82110B1B108252046FFF730
:1053100059FE28460DB0BDEC028BBDE8F08F01F0C0
:1053200063FA0028C3D00325F3E72046FFF74AFEBF
:105330000425EEE70125DBE7069A07934FF00C09F9
:1053400009FB05F912F805B006EB09024FF0010A56
:10535000516082F80AB003228DF82420BBFA8BF248
:10536000520909A918468DF825208DF826A001F0CC
:105370007FFAC8B9079B46F809300AA80A93BBF11F
:10538000000F00F0E480FFF7F7FD0A9B0AFA03F331
:10539000C0F80C354FF00C0A0AFB05FA0AF10800B8
:1053A000304403F09BFA08B10425AFE70AF1090085
:1053B000304403F093FA0028F6D1B2449AF808007A
:1053C00003F00EFB9AF8090003F00AFB56F80900F7
:1053D000BBF1000F00F0C38001F0CEFB824656F80F
:1053E000090001F09FFB0C2303FB0563814693F842
:1053F00008B063685A79AA4206D86449079340F214
:105400007110FFF74BFB079B1B68A90001F5A0710A
:1054100052461944584603F0ADFA0C2303FB0563CA
:10542000D4F804B093F809A09BF80530022B04D8F7
:10543000564940F27110FFF731FBDBF800104A4685
:1054400001F5A471504603F095FA0C2303FB0566A1
:105450000123F37263684E4A1B7902EB430318EE93
:10546000101A002220465A55FFF724FE002D3FF463
:1054700061AF029B1B69B3F5805F02D3B8F1090FDE
:1054800075D1414B1B7823B1B8F1010F38BF4FF0F4
:10549000010800238DF8293060688DF828804FF4CA
:1054A000E063ADF82A3003793A4A0B930AA903F076
:1054B000D3FA054600287FF429AF63681B68D3F848
:1054C0001015029B1869C9B2060FC1F1200E000128
:1054D000A1F1200C20FA01F806FA0EFE48EA0E08A7
:1054E00026FA0CFC26FA01F948EA0C08B9F1010F7A
:1054F00008BFB8F1000F08D3274940F2B920CDE921
:105500000289FFF7CBFADDE902896068C7F81880E5
:10551000CDE9028903F0B4FBDDE90289012600969A
:10552000042342466068022103F0FDFB022160680B
:1055300003F03AFC059BFB616368184A1B7987F806
:10554000216042F82340164AFF21D154E1E6FFF7DB
:1055500013FD0A9B0AFA03F3C0F808351AE701F0B5
:10556000E1FA824656F8090001F006FB3BE75B08CA
:1055700008F101087FE70B25CBE60825C9E600BF47
:1055800048520100E80F00F06C0300209B5201001C
:105590004D0300201D500000CC52010034030020B8
:1055A000480300202DE9F047076897F821300446AA
:1055B00023B91B4940F29730FFF770FA0026DFF855
:1055C00068903D46B0464FF00C0A63681B7909EBC2
:1055D000430303F80680EB7A73B1236828680AFB5B
:1055E0000633997AB1FA81F1490901F0CDFA2868B8
:1055F00001F012FAC5F804800C3576B16068094AEA
:105600000379FF21D15403F03BFB606803F0D4FA27
:10561000022387F82130BDE8F0870126D5E700BFD7
:1056200048520100480300204D0300202DE9F743B4
:10563000066896F82130054623B920494FF46D706D
:10564000FFF72CFA686803F0D3FA6868022103F0C8
:10565000ABFB96F8200003F0C3F9344600274FF067
:105660000C094FF00108E37ABBB12B68226809FBF3
:10567000073301A89B7A0192C3B9FFF77DFC019B18
:1056800008FA03F3C0F80835206801F0F7F9207A2A
:1056900003F0A6F9607A03F0A3F90C3427B186F879
:1056A000217003B0BDE8F0830127DCE7FFF764FC5D
:1056B000019B08FA03F3C0F80C35E5E748520100F6
:1056C000CA699A4210B543600CD38C690460086FB4
:1056D00018440867D01A1C44C86100388C6118BF90
:1056E000012010BD01F1280202608B670020F8E75D
:1056F00038B50D46044620B906494FF48870FFF7C7
:10570000CDF9237AAB4283BF093405EB4505601917
:10571000002038BDD04A010038B50D46044620B9F6
:10572000064940F24310FFF7B9F96378AB4283BFF3
:10573000A07840190019002038BD00BFD04A0100F0
:1057400008B50121FFF7D4FF0121FFF7E5FF00783D
:1057500008BD00002DE9F84317468E4A99460B7A9A
:1057600013700E460546904620B98B494FF444709D
:10577000FFF794F92B68002B00F08780A3F2133316
:105780007C2B00F23C837C2B00F23983DFE813F0A2
:1057900088009300A100AD00B900C500D100DD0074
:1057A000370337033703370337033703F50008019F
:1057B00037033703370337031B012701350137034D
:1057C0003703370348015401820137033703370396
:1057D00037036A0176018201370337033703370342
:1057E0003703370394013703370337033703A8011F
:1057F000B401C001CC01D90137033703E501F10140
:10580000FD01090215023703370321022D02390277
:105810004502370337035802640270027C02880293
:1058200037033703370337033703370337033703A8
:105830003703370337033703370337033703370398
:10584000370337033703B002BC023703370337038C
:10585000CE023703370337033703EB02370337032F
:1058600037033703EB0237033703370337033703B5
:105870003703FD02090337033703370337032703D1
:105880003703370337033703270308232B71B9F195
:10589000000F05D140F213332B600120BDE8F883DF
:1058A0000FB12B793B700B23B9F1010F2B710ED87F
:1058B0004FF44573F0E700240FB12B793B550134C9
:1058C000337D2B714C4505D340F21533E4E70124B9
:1058D000F2E700240FB12B793B55013402234C45EC
:1058E0002B7103D340F21633D6E700240FB12B7986
:1058F0003B55013402234C452B7103D340F217333F
:10590000CAE700240FB12B793B55013402234C45E3
:105910002B7103D34FF44673BEE700240FB12B79EC
:105920003B550134737E2B714C4503D340F2193340
:10593000B2E700240FB12B793B55013400234C45CD
:105940002B7103D340F21A33A6E700240FB12B7951
:105950003B55124B002201341A70104B1A7898F8FC
:1059600000309A4202D340F29A3395E70923A145C9
:105970002B7103D840F221338EE700240FB12B792D
:105980003B55013404234C452B710AD340F222339A
:1059900082E700BF6F030020F05201006E03002079
:1059A00000240FB12B793B55A24B30461978FFF7F5
:1059B0009FFEA14B013418604C4503782B7103D333
:1059C00040F2273368E700240FB12B793B550134AF
:1059D00000234C452B7103D34FF44A735CE700243A
:1059E0000FB12B793B55944B1B6801345B782B71BD
:1059F0004C4503D340F229334EE700240FB12B79F5
:105A00003B558D4B327D1B681B789A4204F1010493
:105A10001ED102234C452B7103D340F22D333BE7BB
:105A200000240FB12B793B55013402234C452B71D7
:105A300003D340F22E332FE700240FB12B793B55CF
:105A40000134737E2B714C4525D340F22F3323E76D
:105A5000B27D9A422AD10A234C452B7103D34FF4CD
:105A60004D7319E700240FB12B793B550134002306
:105A70004C452B7103D340F235330DE700240FB1B1
:105A80002B793B55013400234C452B7103D340F255
:105A9000363301E700240FB12B793B550134002345
:105AA000A1452B7109D840F23D33F5E6634940F238
:105AB0003A30FEF7F3FFF2E700240FB12B793B55A4
:105AC0005D4B327D1B681B789A4204F1010440F063
:105AD000FF8005234C452B7103D340F24233DBE6B4
:105AE00000240FB12B793B55013424234C452B71F5
:105AF00003D340F24333CFE600240FB12B793B555B
:105B0000013400234C452B7103D34FF45173C3E68A
:105B100000240FB12B793B55013410234C452B71D8
:105B200003D340F24533B7E600240FB12B793B5540
:105B3000013401204C45287104D340F246332B60D8
:105B4000ACE600240FB12B793B55013405234C45BD
:105B50002B7103D340F249339EE600240FB12B7919
:105B60003B55013424234C452B7103D340F24A3377
:105B700092E600240FB12B793B55013401204C45AE
:105B8000287103D340F24B33D9E700240FB12B79AE
:105B90003B55013403234C452B7103D34FF453730E
:105BA0007AE600240FB12B793B550134B37D2B717C
:105BB0004C4503D340F24D336EE600240FB12B79F0
:105BC0003B55013404234C452B7103D34FF45473DC
:105BD00062E600240FB12B793B55013424234C4558
:105BE0002B7103D340F2513356E600240FB12B79C9
:105BF0003B55013402234C452B7103D340F2523301
:105C00004AE600240FB12B793B55013402234C4561
:105C10002B7103D340F253333EE600240FB12B79AE
:105C20003B55013405234C452B710AD340F25633C2
:105C300032E600BF6E03002074030020F052010022
:105C400000240FB12B793B55013424234C452B7193
:105C500003D340F257331FE600240FB12B793B5595
:105C6000013406234C452B7103D34FF4567313E6CE
:105C700000240FB12B793B550134337D2B714C45FA
:105C800003D340F2593307E600240FB12B793B557B
:105C90000134B37D2B714C4503D340F25A33FBE5FD
:105CA00000240FB12B793B550134564B1B685A78B1
:105CB000554B1A70554B00221A70544B1A78524BA0
:105CC0001B789A420DD3524A13780133137044E67D
:105CD000B27D9A42E9D04F4940F26330FEF7DEFED2
:105CE000E3E70723A1452B7103D840F26E33D3E5D8
:105CF00000240FB12B793B55013405234C452B7102
:105D000003D340F26F33C7E500240FB12B793B5525
:105D10003E4B19783B4B1868FFF7FEFC01340378C3
:105D20002B714C4503D340F27333B5E500240FB11A
:105D30002B793B55334B327D1B681B789A4204F11B
:105D4000010406D103234C452B710DD34FF45E7330
:105D5000A2E5B27D9A4212D102234C452B7103D3A6
:105D600040F27D3398E500240FB12B793B55013487
:105D70004023A1452B7109D84FF461738CE5254967
:105D800040F28130FEF78AFEF2E700240FB12B7952
:105D90003B55013400234C452B7103D340F285332E
:105DA0007AE500240FB12B793B55164B327D1B68E9
:105DB0001B789A4204F1010407D1336A4C451B78E1
:105DC0002B710DD340F28A3366E5B27D9A4210D131
:105DD00000234C452B7103D340F28F335CE5002444
:105DE0000FB12B793B550134084A137801331370F6
:105DF00063E7084940F29330FEF750FEF4E70020D5
:105E000028604BE5740300206D0300207003002020
:105E10006E030020F052010010B5044618B906497F
:105E20005F20FEF73BFE23681BB903496020FEF7A5
:105E300035FE20680C3010BDF0520100014952209F
:105E4000FEF72CBEF052010013B5044618B90191BB
:105E5000FFF7F4FF0199E36923B1204602B0BDE8E2
:105E60001040184702B010BD10B5044608B9FFF73E
:105E7000E5FF2046FFF7D0FF0023C0E91B33C0E950
:105E80001D3383828361036200F12803836610BDA2
:105E90002DE9F0430E4689B0054620B9A94940F2E4
:105EA000DD20FEF7FBFD26B9A64940F2DE20FEF715
:105EB000F5FD33780E2B20D8DFE813F07400600175
:105EC000740074001F000F00C0001F001F005C0161
:105ED0001F00740074007400740025B999494FF4D0
:105EE000E470FEF7DBFD7278D1094FEA52133DD022
:105EF00013F0030306D0012B28D00624204609B056
:105F0000BDE8F08302F01F02012AF6D1B478062C16
:105F1000F3D105A80393FDF7BDFA03AB0093F27824
:105F20003179034607462846FCF79CFA0528E5D058
:105F3000039B3F2B03D98349C920FEF7AFFD039A8A
:105F40003946701CFCF7FEFF0446D7E70DB9FFF792
:105F500075FF2846FFF760FFB378212BCDD1B6F847
:105F60000720072AC9D100F10C01EAE7012BC4D1AF
:105F70000DB9FFF763FF2846FFF74EFFB378202BDC
:105F8000074611D0222BB8D1B6F80730002BB4D178
:105F9000027DB6F80330838202F0010203F00101B2
:105FA0008A4229D10024A9E7B6F80730072BA4D1EB
:105FB0000DB9FFF743FF2846FFF72EFFB3780370B4
:105FC000B6F80730DBB243700230CDE9050300209C
:105FD0000790FEF7E1FC05A90020FCF78FFC0446C2
:105FE00030B9594B03A9CDE90335FCF799FF0446B5
:105FF0000020FEF7E1FC81E78CB2C1F10301C9B2D8
:106000002846FFF721FF002CCCD101212846FFF7BD
:106010006FFB2146FFF780FB007802F091FA2846DB
:10602000FFF78EFB02F08CFA07F12803C7E91B4447
:10603000C7E91D44BC613C62BB665FE7002128469E
:10604000FFF756FB0021FFF767FBB37802789A420F
:10605000A8D01B06F47809D51CB1032CA2D00324C8
:106060004CE701212846FFF7EFFE47E704F0FD0368
:10607000012B97D0002CF2D10DB9FFF7DFFE284697
:10608000FFF7CAFE06462846FFF75AFB2F4BF46976
:10609000CDE905368046ACB9336FF466C6E91C43DA
:1060A000336A63B1D6E9080106F1180383E80300F7
:1060B000346205A94046FCF737FC044600E0B461B1
:1060C0000021CFE7D6F87890B0694C4528BF4C4600
:1060D00006F12807224639460DF0B6FF336F2344F8
:1060E0007367A9EB0403F366336A00223C4432670A
:1060F000B466002B3BD006F1200999E8030006F1B5
:10610000180787E8030014463262F36EB06953B390
:10611000F269B16E9A421BD80DF096FFF369F26EE8
:106120007367D21AF266B26E1A44B266002128462C
:10613000FFF78AFE336AD3B199E8030087E80300CA
:106140003462E2E7F052010085610000C1560000B0
:106150001A460DF079FFF26EF36932679B1AF3610C
:10616000B3691344B361B369002BA2D100E0B361FA
:106170000024A5E703212846FFF766FE2846FFF71F
:1061800073FE0FE710B5044660B90846FFF744FEFA
:106190000378202B08D1811C07220C300DF054FF0E
:1061A000204610BD0320FCE70620FAE708B5FFF7FC
:1061B00033FE406F08BD08B5FFF72EFEC06E08BD68
:1061C0002DE9F341804616460F4621B9254940F294
:1061D000D730FEF763FC4046FFF71EFE838ADB07DD
:1061E00004463BD58569002D32D1C36EB3420FD32F
:1061F000816E324638460DF027FFE36E66679B1BC3
:10620000E366A36E3344A366284602B0BDE8F0817E
:10621000C0E906764046FFF793FA134BE26ECDE9EC
:106220000034064662B1A16EA0690DF00DFFE36E69
:10623000E269D21AE261A269C4E91B531A44A2615D
:1062400069463046FCF770FB002808BF9220DCE767
:10625000036A2BB9C0E908769220D6E70820D4E774
:106260001120D2E7F0520100C156000070B54FF086
:10627000805286B0D2F8A830D2F8A42000926FEAFB
:1062800083436FEA93430B4A0B4E9BB20D2102A846
:106290000DF035FD02AD002402A80DF07AFF844216
:1062A00001D306B070BD15F8013B06F8013B01347F
:1062B000F2E700BF705301007803002038B5074CA7
:1062C000051E04F1080318BF1C4623682BB11A6889
:1062D00022605B6828469847F7E738BD90030020A6
:1062E00020B9054B01225A70FFF7E8BF012802D1FF
:1062F000014A9070F8E7704788030020014B187836
:10630000704700BF8803002038B50C4C23789BB938
:106310000B486360A3602361E36000F051F9054618
:1063200000F062F901232370064BD3F800340BB15F
:106330000123A370284638BD8525F5E78803002092
:10634000E16200000000014038B51A4C2378054690
:106350001BB91949F620FEF7A1FBA37803F0FF0053
:10636000ABB115B16B68012098470020FEF714FB14
:10637000E36800200133E360FEF71EFBE368C3B966
:10638000BDE838400C494FF48970FEF787BBFEF733
:1063900003FB25B1226913463BB92A602561E368F6
:1063A000002BE5D100F042F9E2E79D42F7D01B68EF
:1063B000F2E738BD880300207953010008B5074B88
:1063C0001B7823B9064940F22510FEF767FB4FF012
:1063D0008043D3F81804C0F3004008BD88030020B0
:1063E0007953010038B51B4C2378054623B91A4967
:1063F00040F23310FEF752FB637803F0FF00ABB1BD
:1064000015B16B68002098470020FEF7C5FA636855
:10641000002001336360FEF7CFFA6368C3B9BDE8BB
:1064200038400D4940F24F10FEF738BBFEF7B4FA82
:1064300025B1A26813463BB92A60A5606368002BAA
:10644000E5D100F00BF9E2E79D42F7D01B68F2E7D7
:1064500038BD00BF880300207953010038B50F4CC8
:10646000237823B90E494FF4AA70FEF717FB63682F
:1064700023B90B4940F25510FEF710FB0020FEF740
:106480008BFA6368013B6360656815B900F0FEF83C
:106490006570BDE838400020FEF78EBA8803002002
:1064A0007953010010B5074C23784BB9064B0028EF
:1064B00008BF184600F0CCFD08B90123237010BDB9
:1064C0008520FCE79C030020D153010008B500F0B3
:1064D00002FEBDE8084000F005BE07B50190FFF7D9
:1064E000F5FF019800F0E0FD00F0EEFD002003B0A4
:1064F0005DF804FB7FB503788DF8043043680293A0
:1065000083688DF80C30C36804930369064A8DF8DC
:106510001430064B01A853F8213052F82110984747
:1065200007B05DF804FB00BFA0030020B00300200B
:10653000F0B50546174615F804CB124A42F82C7000
:10654000114A42F82C30114B0C460FCB85B06E46E9
:1065500086E80F002368009323798DF8053063796E
:106560008DF80630A3680293002FA389084AADF87E
:106570000C3008BF3A4663463146284603F004FB18
:1065800005B0F0BDB0030020A0030020D4530100EB
:10659000F564000010B5034653E8000F00EA01025D
:1065A00043E8002494F0000FF6D110BD00F18040C4
:1065B000002382B0036003680193019B02B070471F
:1065C00010B5044618B90649A420FEF767FA054A33
:1065D000107918B901211460918010BD8520FCE765
:1065E000E4530100C003002008B50C4B1B791BB914
:1065F0000B49BD20FEF752FA0A4B1A68D20704D4A1
:10660000C02283F8002301221A604FF08042012348
:10661000C2F81835044A137008BD00BFC00300203B
:10662000E453010000E100E0C803002008B5094B75
:106630001B791BB90849EA20FEF730FA4FF4827043
:10664000FFF7B4FF4FF080430222C3F80423012276
:106650009A6008BDC0030020E453010008B5094B4F
:106660001B7923B908494FF48170FEF717FA4FF4EC
:106670008070FFF79BFF4FF080430122C3F8042393
:106680001A6008BDC0030020E453010010B50E4C91
:10669000227922B90D494FF48570FEF7FFF94FF0CA
:1066A00080420121C2F808134FF48070FFF77EFF8B
:1066B000074B1960D2F80C3403F00113B3F1011F3A
:1066C000F8D00023637110BDC0030020E453010023
:1066D00004000040124B1B6810B573B14FF480707A
:1066E000FFF764FF4FF080430122C3F808230D4BEE
:1066F000587910B95A711B6898470B4B1B6873B1D6
:106700004FF48270FFF752FF4FF080430222C3F82C
:106710000823044BBDE810401B680120184710BD3A
:1067200000010040C00300200401004000F180404F
:1067300000F5C040002382B0036003680193019B11
:1067400002B0704743090BD0012B4FF6FF7318BFFF
:10675000002300F01F0023FA00F000F00100704752
:106760004FF0FF33F5E70000054B4FF0FF320728ED
:1067700043F8202084BFC01880F85820704700BF1D
:10678000CC03002010B504460068FFF7DBFF20B9FA
:1067900007494FF4F670FEF781F923681F2B83BF7A
:1067A00003F01F03034823604FF0A04010BD00BF5B
:1067B000684801000003005013B5019001A80C4681
:1067C000FFF7E0FF019B00EB8300D0F8003723F4D4
:1067D0004033C0F80037D0F8003743EA0443C0F82C
:1067E000003702B010BD000010B5184C94F86A20B4
:1067F00052BBFF211046FFF7A5FF10B1A31883F885
:1068000030100132302AF5D10021C8B2FFF7ACFFB9
:1068100001310C29F9D1062200210D480DF03DFC73
:106820000C4BC02283F8062340221A604FF4BE703E
:10683000FFF77CFF084B4FF00042C3F8042301230D
:1068400084F86A30002010BD0820FCE7CC0300204B
:106850003004002000E100E000600040034B93F8AA
:106860006A00003818BF0120704700BFCC03002029
:1068700073B504460D46FFF765FF20B93E4940F267
:106880004910FEF70BF93D4E96F86A30012B04D003
:1068900039494FF4A570FEF701F925B9364940F2A0
:1068A0004B10FEF7FBF8331993F93020013260D119
:1068B000AA78002A51D0314B002253F8041B013131
:1068C00045D1331983F83020002346F82230920056
:1068D00002F1804202F5C0422B78D2F810056978A7
:1068E00020F499101B04090520F4F85001F48011DC
:1068F00003F44033C2F810050B432102D2F810050F
:1069000001F47C510B430343C2F810356D780194B8
:10691000012D01A825D1FFF735FF019B9D40C0F84F
:10692000085501A80194FFF72DFF019B03F5E073C3
:10693000032240F82320E308114A0120D15C04F02F
:10694000070400FA04F40C43D454002003E001329D
:10695000082AB2D1042002B070BDFE2283F8302094
:10696000D4E7FFF70FFF019A01239340C0F80C35DD
:10697000D7E70820EFE700BF3A540100CC0300201E
:1069800030040020F7B50446FFF7DCFE20B91E49AD
:1069900040F28110FEF782F81C4D2B1993F930302C
:1069A000013304D118494FF4C170FEF777F8291963
:1069B00091F83000072809D8FFF7D6FE91F930305A
:1069C000134A03F5A273002142F823102544FF2344
:1069D000104F85F83030E60804F0070301259D408C
:1069E000BB5D2B420DD001A80194FFF7CBFE019BAC
:1069F00003F5E073022240F82320BB5D23EA05057E
:106A0000BD5503B0F0BD00BF3A540100CC030020D7
:106A1000006000403004002038B50546FFF792FEC4
:106A200020B9144940F2B310FEF738F8124C63193C
:106A300093F93030013304D10E494FF4DA70FEF788
:106A40002DF8631993F83030072B04D9094940F227
:106A5000B510FEF723F82C4494F930309B0003F175
:106A6000804303F5C043D3F8102542F00302C3F876
:106A7000102538BD3A540100CC03002038B5054636
:106A8000FFF760FE20B9144940F2BD10FEF706F88A
:106A9000124C631993F93030013304D10E494FF48D
:106AA000DF70FDF7FBFF631993F83030072B04D933
:106AB000094940F2BF10FDF7F1FF2C4494F9303042
:106AC0009B0003F1804303F5C043D3F8102522F067
:106AD0000302C3F8102538BD3A540100CC0300204E
